:10000000F8FF002011040000A7B90000A7B9000004
:10001000A7B90000A7B90000A7B90000A7B9000060
:10002000A7B90000A7B90000A7B90000A7B9000050
:10003000A7B90000A7B90000A7B90000A7B9000040
:10004000A7B90000A7B90000A7B90000A7B9000030
:10040000FFFFFFFFFFFFFFFFFFFFFFFFFEFFFFFFFD
:1004100062B612F0B3FEFEE7FFFFFFFFFFFFFFFF34
:10042000FFFFFFFFFFFFFFFFFFFFFFFFFFFFFFFFDC
:10043000FFFFFFFFFFFFFFFFFFFFFFFFFFFFFFFFCC
:10044000FFFFFFFFFFFFFFFFFFFFFFFFFFFFFFFFBC
:10045000FFFFFFFFFFFFFFFFFBF3EBE3DBD3CBC3AC
:10046000BBB3ABA39B938B837C746C645C544C4494
:100470003C342C241C140C0400000000000000007C
:10048000000000000000000000000000000000006C
:10049000000000000000000000000000000000005C
:1004A000000000000000000000000000000000004C
:1004B0000000000000000000FFFFFFFFFFFFFFFF44
:1004C000FFFFFFFFFFFFFFFFFFFFFFFFFFFFFFFF3C
:1004D000FFFFFFFFFFFFFFFFFFFFFFFFFFFFFFFF2C
:1004E000FFFFFFFFFFFFFFFFFFFFFFFFFFFFFFFF1C
:1004F000FFFFFFFFFFFFFFFFFFFFFFFEF4EAE0D675
:10050000CCC1B7ADA3998F857A70665C52483E33F3
:10051000291F150B01000000000000000000000072
:1005200000000000000000000000000000000000CB
:1005300000000000000000000000000000000000BB
:1005400000000000000000000000000000000000AB
:100550000000000000000000FFFFFFFFFFFFFFFFA3
:10056000FFFFFFFFFFFFFFFFFFFFFFFFFFFFFFFF9B
:10057000FFFFFFFFFFFFFFFFFFFFFFFFFFFFFFFF8B
:10058000FFFFFFFFFFFFFFFFFFFFFFFFFFFFFFFF7B
:10059000FFFFFFFFFFFFFFFFFFFFFFFFFFFFFFF674
:1005A000E8DACCBEB0A29486796B5D4F4133251753
:1005B0000900000000000000000000000000000032
:1005C000000000000000000000000000000000002B
:1005D000000000000000000000000000000000001B
:1005E000000000000000000000000000000000000B
:1005F0000000000000000000FFFFFFFFFFFFFFFF03
:10060000FFFFFFFFFFFFFFFFFFFFFFFFFFFFFFFFFA
:10061000FFFFFFFFFFFFFFFFFFFFFFFFFFFFFFFFEA
:10062000FFFFFFFFFFFFFFFFFFFFFFFFFFFFFFFFDA
:10063000FFFFFFFFFFFFFFFFFFFFFFFFFFFFFFFFCA
:10064000FFFFFAE4CEB7A18B745E48311B050000B2
:10065000000000000000000000000000000000009A
:10066000000000000000000000000000000000008A
:10067000000000000000000000000000000000007A
:10068000000000000000000000000000000000006A
:100690000000000000000000FFFFFFFFFFFFFFFF62
:1006A000FFFFFFFFFFFFFFFFFFFFFFFFFFFFFFFF5A
:1006B000FFFFFFFFFFFFFFFFFFFFFFFFFFFFFFFF4A
:1006C000FFFFFFFFFFFFFFFFFFFFFFFFFFFFFFFF3A
:1006D000FFFFFFFFFFFFFFFFFFFFFFFFFFFFFFFF2A
:1006E000FFFFFFFFFFFFD39B642C00000000000012
:1006F00000000000000000000000000000000000FA
:1007000000000000000000000000000000000000E9
:1007100000000000000000000000000000000000D9
:1007200000000000000000000000000000000000C9
:1007300000000000000000000000000000000000B9
:1007400000000000000000000000000000000000A9
:100750000000000000000000000000000000000099
:100760000000000000000000000000000000000089
:100770000000000000000000000000000000000079
:100780000000000000000048B7FFFFFFFFFFFFFF71
:10079000FFFFFFFFFFFFFFFFFFFFFFFFFFFFFFFF69
:1007A000FFFFFFFFFFFFFFFFFFFFFFFFFFFFFFFF59
:1007B000FFFFFFFFFFFFFFFFFFFFFFFFFFFFFFFF49
:1007C000FFFFFFFFFFFFFFFFFFFFFFFFFFFFFFFF39
:1007D000FFFFFFFFFFFFFFFF000000000000000021
:1007E0000000000000000000000000000000000009
:1007F00000000000000000000000000000000000F9
:1008000000000000000000000000000000000000E8
:1008100000000000000000000000000000000000D8
:10082000000000021E3A56728DA9C5E1FDFFFFFFD0
:10083000FFFFFFFFFFFFFFFFFFFFFFFFFFFFFFFFC8
:10084000FFFFFFFFFFFFFFFFFFFFFFFFFFFFFFFFB8
:10085000FFFFFFFFFFFFFFFFFFFFFFFFFFFFFFFFA8
:10086000FFFFFFFFFFFFFFFFFFFFFFFFFFFFFFFF98
:10087000FFFFFFFFFFFFFFFF000000000000000080
:100880000000000000000000000000000000000068
:100890000000000000000000000000000000000058
:1008A0000000000000000000000000000000000048
:1008B0000000000000000000000000000000000038
:1008C00008182838485868788797A7B7C7D7E7F730
:1008D000FFFFFFFFFFFFFFFFFFFFFFFFFFFFFFFF28
:1008E000FFFFFFFFFFFFFFFFFFFFFFFFFFFFFFFF18
:1008F000FFFFFFFFFFFFFFFFFFFFFFFFFFFFFFFF08
:10090000FFFFFFFFFFFFFFFFFFFFFFFFFFFFFFFFF7
:10091000FFFFFFFFFFFFFFFF0000000000000000DF
:1009200000000000000000000000000000000000C7
:1009300000000000000000000000000000000000B7
:1009400000000000000000000000000000000000A7
:10095000000000000000000000000000000A162156
:100960002C37424D58646F7A85909BA7B2BDC8D38F
:10097000DEE9F5FFFFFFFFFFFFFFFFFFFFFFFFFFC8
:10098000FFFFFFFFFFFFFFFFFFFFFFFFFFFFFFFF77
:10099000FFFFFFFFFFFFFFFFFFFFFFFFFFFFFFFF67
:1009A000FFFFFFFFFFFFFFFFFFFFFFFFFFFFFFFF57
:1009B000FFFFFFFFFFFFFFFF00000000000000003F
:1009C0000000000000000000000000000000000027
:1009D0000000000000000000000000000000000017
:1009E0000000000000000000000000000000000007
:1009F000000000000000000000030C141D252E372D
:100A00003F485059616A737B848C959EA6AFB7C0EE
:100A1000C8D1DAE2EBF3FCFFFFFFFFFFFFFFFFFFB0
:100A2000FFFFFFFFFFFFFFFFFFFFFFFFFFFFFFFFD6
:100A3000FFFFFFFFFFFFFFFFFFFFFFFFFFFFFFFFC6
:100A4000FFFFFFFFFFFFFFFFFFFFFFFFFFFFFFFFB6
:100A5000FFFFFFFFFFFFFFFF00000000000000009E
:100A60000000000000000000000000000000000086
:100A70000000000000000000000000000000000076
:100A80000000000000000000000000000000000066
:100A9000000000000000060C131A21282F363D44E8
:100AA0004B525960676E757C838A91989FA6ADB44E
:100AB000BBC2C9D0D7DEE5ECF3F9FFFFFFFFFFFFB4
:100AC000FFFFFFFFFFFFFFFFFFFFFFFFFFFFFFFF36
:100AD000FFFFFFFFFFFFFFFFFFFFFFFFFFFFFFFF26
:100AE000FFFFFFFFFFFFFFFFFFFFFFFFFFFFFFFF16
:100AF000FFFFFFFFFFFFFFFF0000000000000000FE
:100B000000000000000000000000000000000000E5
:100B100000000000000000000000000000000000D5
:100B200000000000000000000000000000000000C5
:100B3000000001070D13191F252A30363C42484E8C
:100B400053595F656B71777D82888E949AA0A6ACAD
:100B5000B1B7BDC3C9CFD5DAE0E6ECF2F8FEFFFFCE
:100B6000FFFFFFFFFFFFFFFFFFFFFFFFFFFFFFFF95
:100B7000FFFFFFFFFFFFFFFFFFFFFFFFFFFFFFFF85
:100B8000FFFFFFFFFFFFFFFFFFFFFFFFFFFFFFFF75
:100B9000FFFFFFFFFFFFFFFF00000000000000005D
:100BA0000000000000000000000000000000000045
:100BB0000000000000000000000000000000000035
:100BC0000000000000000000000000000000000322
:100BD000080D12181D22272C31363B40454A4F5430
:100BE000595F64696E73787D82878C91969BA0A60D
:100BF000ABB0B5BABFC4C9CED3D8DDE2E7EDF2F7EA
:100C0000FCFFFFFFFFFFFFFFFFFFFFFFFFFFFFFFF7
:100C1000FFFFFFFFFFFFFFFFFFFFFFFFFFFFFFFFE4
:100C2000FFFFFFFFFFFFFFFFFFFFFFFFFFFFFFFFD4
:100C3000FFFFFFFFFFFFFFFF0000000000000000BC
:100C400000000000000000000000000000000000A4
:100C50000000000000000000000000000000000094
:100C600000000000000000000000000005090E1256
:100C7000171B2024292D31363A3F43484C51555AF1
:100C80005E62676B7074797D82868B8F94989DA16C
:100C9000A5AAAEB3B7BCC0C5C9CED2D6DBDFE4E8E7
:100CA000EDF1F6FAFFFFFFFFFFFFFFFFFFFFFFFF82
:100CB000FFFFFFFFFFFFFFFFFFFFFFFFFFFFFFFF44
:100CC000FFFFFFFFFFFFFFFFFFFFFFFFFFFFFFFF34
:100CD000FFFFFFFFFFFFFFFF00000000000000001C
:100CE0000000000000000000000000000000000004
:100CF00000000000000000000000000000000000F4
:100D0000000000000000000002060A0E12161A1E63
:100D100022262A2E32363A3E42464A4E52565A5ED3
:100D200062666A6E72767A7E8185898D9195999DCB
:100D3000A1A5A9ADB1B5B9BDC1C5C9CDD1D5D9DDC3
:100D4000E1E5E9EDF1F5F9FDFFFFFFFFFFFFFFFF33
:100D5000FFFFFFFFFFFFFFFFFFFFFFFFFFFFFFFFA3
:100D6000FFFFFFFFFFFFFFFFFFFFFFFFFFFFFFFF93
:100D7000FFFFFFFFFFFFFFFF00000000000000007B
:100D80000000000000000000000000000000000063
:100D90000000000000000000000000000000000053
:100DA000000000000003070B0E1215191D20242758
:100DB0002B2F3236393D4144484B4F53565A5D61D3
:100DC00065686C6F73777A7E8185888C9093979A2B
:100DD0009EA2A5A9ACB0B4B7BBBEC2C6C9CDD0D483
:100DE000D8DBDFE2E6EAEDF1F4F8FCFFFFFFFFFFFE
:100DF000FFFFFFFFFFFFFFFFFFFFFFFFFFFFFFFF03
:100E0000FFFFFFFFFFFFFFFFFFFFFFFFFFFFFFFFF2
:100E1000FFFFFFFFFFFFFFFF0000000000000000DA
:100E200000000000000000000000000000000000C2
:100E300000000000000000000000000000000000B2
:100E4000000104080B0E1215181B1F2225292C2F38
:100E50003236393C404346494D5053565A5D6064E2
:100E6000676A6D7174777B7E8184888B8E9295988A
:100E70009B9FA2A5A9ACAFB2B6B9BCBFC3C6C9CD32
:100E8000D0D3D6DADDE0E4E7EAEDF1F4F7FBFEFFDC
:100E9000FFFFFFFFFFFFFFFFFFFFFFFFFFFFFFFF62
:100EA000FFFFFFFFFFFFFFFFFFFFFFFFFFFFFFFF52
:100EB000FFFFFFFFFFFFFFFF00000000000000003A
:100EC0000000000000000000000000000000000022
:100ED000000000000000000000000000000002050B
:100EE000080B0E1114171B1E2124272A2D30333610
:100EF000393C3F4245484B4E5154575A5D606366FA
:100F0000696C6F7275787B7E8184878A8D909396E9
:100F1000999C9FA2A5A8ABAEB1B4B7BABDC0C3C6D9
:100F2000C9CCCFD2D5D8DBDEE1E4E8EBEEF1F4F7C3
:100F3000FAFDFFFFFFFFFFFFFFFFFFFFFFFFFFFFC8
:100F4000FFFFFFFFFFFFFFFFFFFFFFFFFFFFFFFFB1
:100F5000FFFFFFFFFFFFFFFF000000000000000099
:100F60000000000000000000000000000000000081
:100F700000000000000000000000010306090C0F43
:100F80001114171A1D1F2225282A2D303336383BFD
:100F90003E414446494C4F5154575A5D5F62656823
:100FA0006B6D707376797B7E818486898C8F929449
:100FB000979A9DA0A2A5A8ABAEB0B3B6B9BBBEC16F
:100FC000C4C7C9CCCFD2D5D7DADDE0E2E5E8EBEE95
:100FD000F0F3F6F9FCFEFFFFFFFFFFFFFFFFFFFF4F
:100FE000FFFFFFFFFFFFFFFFFFFFFFFFFFFFFFFF11
:100FF000FFFFFFFFFFFFFFFF0000000000000000F9
:1010000000000000000000000000000000000000E0
:1010100000000000000000020407090C0F11141664
:10102000191C1E212326292B2E303336383B3D40F8
:101030004345484A4D505255575A5C5F6264676950
:101040006C6F717476797C7E818386898B8E9093A8
:1010500096989B9DA0A3A5A8AAADAFB2B5B7BABC00
:10106000BFC2C4C7C9CCCFD1D4D6D9DCDEE1E3E658
:10107000E9EBEEF0F3F6F8FBFDFFFFFFFFFFFFFFEC
:10108000FFFFFFFFFFFFFFFFFFFFFFFFFFFFFFFF70
:10109000FFFFFFFFFFFFFFFF000000000000000058
:1010A0000000000000000000000000000000000040
:1010B000000000000305070A0C0F111416181B1D71
:1010C00020222527292C2E313336383A3D3F424401
:1010D00047494B4E505355575A5C5F616466686B85
:1010E0006D70727577797C7E818386888A8D8F9208
:1010F0009497999B9EA0A3A5A8AAACAFB1B4B6B88B
:10110000BBBDC0C2C5C7C9CCCED1D3D6D8DADDDF0E
:10111000E2E4E7E9EBEEF0F3F5F8FAFCFFFFFFFF9E
:10112000FFFFFFFFFFFFFFFFFFFFFFFFFFFFFFFFCF
:10113000FFFFFFFFFFFFFFFF0000000000000000B7
:10114000000000000000000000000000000000009F
:10115000010306080A0D0F111316181A1C1F21236C
:1011600026282A2C2F313336383A3C3F4143454814
:101170004A4C4F515355585A5C5E616365686A6CBE
:101180006E717375787A7C7E818385878A8C8E9167
:101190009395979A9C9EA1A3A5A7AAACAEB0B3B510
:1011A000B7BABCBEC0C3C5C7C9CCCED0D3D5D7D9BA
:1011B000DCDEE0E3E5E7E9ECEEF0F2F5F7F9FCFE62
:1011C000FFFFFFFFFFFFFFFFFFFFFFFFFFFFFFFF2F
:1011D000FFFFFFFFFFFFFFFF000000000000000017
:1011E00000000000000000000000000000020406F3
:1011F000080B0D0F111315171A1C1E202224262967
:101200002B2D2F313335383A3C3E40424547494B30
:101210004D4F515456585A5C5E60636567696B6DFB
:101220006F727476787A7C7E81838587898B8D90C6
:10123000929496989A9C9FA1A3A5A7A9ABAEB0B291
:10124000B4B6B8BABDBFC1C3C5C7CACCCED0D2D45C
:10125000D6D9DBDDDFE1E3E5E8EAECEEF0F2F4F726
:10126000F9FBFDFFFFFFFFFFFFFFFFFFFFFFFFFF9A
:10127000FFFFFFFFFFFFFFFF000000000000000076
:1012800000000000000000000001030507090B0D2D
:101290000F11131517191B1D1F21232527292B2D6E
:1012A0002F313335383A3C3E40424446484A4C4E52
:1012B00050525456585A5C5E60626466686A6C6E3E
:1012C00070727476787A7C7E81838587898B8D8F26
:1012D00091939597999B9D9FA1A3A5A7A9ABADAF0E
:1012E000B1B3B5B7B9BBBDBFC1C3C5C7CACCCED0FA
:1012F000D2D4D6D8DADCDEE0E2E4E6E8EAECEEF0DE
:10130000F2F4F6F8FAFCFEFFFFFFFFFFFFFFFFFF1E
:10131000FFFFFFFFFFFFFFFF0000000000000000D5
:1013200000000000000002030507090B0D0F111358
:101330001517191B1C1E20222426282A2C2E303279
:10134000343537393B3D3F41434547494B4D4E507E
:10135000525456585A5C5E6062646667696B6D6F82
:1013600071737577797B7D7F80828486888A8C8E85
:101370009092949698999B9D9FA1A3A5A7A9ABAD88
:10138000AFB1B2B4B6B8BABCBEC0C2C4C6C8CACB8C
:10139000CDCFD1D3D5D7D9DBDDDFE1E3E4E6E8EA91
:1013A000ECEEF0F2F4F6F8FAFCFDFFFFFFFFFFFFB2
:1013B000FFFFFFFFFFFFFFFF000000000000000035
:1013C000000000020406080A0B0D0F111315161871
:1013D0001A1C1E2021232527292A2C2E3032343591
:1013E00037393B3D3F40424446484A4B4D4F5153AD
:1013F0005556585A5C5E6061636567696A6C6E70C9
:1014000072747577797B7D7F80828486888A8B8DE4
:101410008F91939596989A9C9E9FA1A3A5A7A9AA00
:10142000ACAEB0B2B4B5B7B9BBBDBFC0C2C4C6C81C
:10143000CACBCDCFD1D3D5D6D8DADCDEDFE1E3E538
:10144000E7E9EAECEEF0F2F4F5F7F9FBFDFFFFFF58
:10145000FFFFFFFFFFFFFFFF000000000000000193
:10146000030506080A0C0D0F11131416181A1B1D7C
:101470001F2122242627292B2D2E303234353739AF
:101480003B3C3E4042434547494A4C4E50515355E0
:1014900057585A5C5E5F61636466686A6B6D6F7112
:1014A00072747678797B7D7F8082848687898B8D44
:1014B0008E9092949597999B9C9EA0A1A3A5A7A876
:1014C000AAACAEAFB1B3B5B6B8BABCBDBFC1C3C4A8
:1014D000C6C8CACBCDCFD1D2D4D6D8D9DBDDDEE0D9
:1014E000E2E4E5E7E9EBECEEF0F2F3F5F7F9FAFC0C
:1014F000FEFFFFFFFFFFFFFF0000000002030507E4
:10150000080A0C0D0F1112141617191B1C1E20218E
:10151000232526282A2B2D2F3032343537393A3CD3
:101520003E3F4143444648494B4D4E505253555718
:10153000585A5C5D5F6162646667696B6C6E70715E
:10154000737576787A7B7D7F8082848587898A8CA3
:101550008E8F9193949698999B9D9EA0A2A3A5A7E8
:10156000A8AAACADAFB1B2B4B6B7B9BBBCBEC0C12E
:10157000C3C5C6C8CACBCDCFD0D2D4D5D7D9DADC73
:10158000DEDFE1E3E4E6E8E9EBEDEEF0F2F3F5F7B8
:10159000F8FAFCFDFFFFFFFF0102040607090A0C31
:1015A0000E0F1112141617191A1C1E1F21222425A2
:1015B00027292A2C2D2F3132343537393A3C3D3FFB
:1015C0004142444547494A4C4D4F50525455575853
:1015D0005A5C5D5F6062646567686A6C6D6F7072AB
:1015E000747577787A7C7D7F8082838587888A8B03
:1015F0008D8F9092939597989A9B9D9FA0A2A3A55B
:10160000A7A8AAABADAFB0B2B3B5B6B8BABBBDBEB2
:10161000C0C2C3C5C6C8CACBCDCED0D2D3D5D6D80A
:10162000DADBDDDEE0E1E3E5E6E8E9EBEDEEF0F163
:10163000F3F5F6F8F9FBFDFE0608090B0C0E0F1189
:1016400012141517181A1B1D1E20222325262829BF
:101650002B2C2E2F3132343537383A3C3D3F404227
:1016600043454648494B4C4E4F5152545557595A91
:101670005C5D5F606263656668696B6C6E6F7173F9
:10168000747677797A7C7D7F808283858688898B62
:101690008C8E909193949697999A9C9D9FA0A2A3CB
:1016A000A5A6A8AAABADAEB0B1B3B4B6B7B9BABC33
:1016B000BDBFC0C2C3C5C7C8CACBCDCED0D1D3D49D
:1016C000D6D7D9DADCDDDFE1E2E4E5E7E8EAEBED05
:1016D000EEF0F1F3F4F6F7F90B0C0E0F11121415EE
:1016E00017181A1B1C1E1F2122242527282A2B2DE0
:1016F0002E303132343537383A3B3D3E4041434459
:101700004647484A4B4D4E505153545657595A5CD0
:101710005D5E606163646667696A6C6D6F70727349
:10172000747677797A7C7D7F808283858688898BC1
:101730008C8D8F909293959698999B9C9E9FA1A239
:10174000A3A5A6A8A9ABACAEAFB1B2B4B5B7B8B9B2
:10175000BBBCBEBFC1C2C4C5C7C8CACBCDCECFD12A
:10176000D2D4D5D7D8DADBDDDEE0E1E3E4E5E7E8A3
:10177000EAEBEDEEF0F1F3F40F1112131516181950
:101780001B1C1D1F202223242627292A2B2D2E3007
:101790003133343537383A3B3C3E3F41424345468E
:1017A00048494B4C4D4F505253545657595A5B5D14
:1017B0005E606163646567686A6B6C6E6F7172739B
:1017C000757678797B7C7D7F808283848687898A21
:1017D0008C8D8E909193949597989A9B9C9E9FA1A7
:1017E000A2A4A5A6A8A9ABACADAFB0B2B3B4B6B72E
:1017F000B9BABCBDBEC0C1C3C4C5C7C8CACBCCCEB4
:10180000CFD1D2D4D5D6D8D9DBDCDDDFE0E2E3E43A
:10181000E6E7E9EAECEDEEF013151617191A1C1DB0
:101820001E20212224252628292A2C2D2F30313331
:1018300034353738393B3C3E3F40424344464748C5
:101840004A4B4C4E4F515253555657595A5B5D5E59
:1018500060616264656668696A6C6D6E70717374EC
:10186000757778797B7C7D7F808283848687888A80
:101870008B8C8E8F919293959697999A9B9D9E9F14
:10188000A1A2A4A5A6A8A9AAACADAEB0B1B3B4B5A7
:10189000B7B8B9BBBCBDBFC0C1C3C4C6C7C8CACB3B
:1018A000CCCECFD0D2D3D5D6D7D9DADBDDDEDFE1CF
:1018B000E2E3E5E6E8E9EAEC17181A1B1C1E1F2014
:1018C0002223242627282A2B2C2D2F303133343560
:1018D0003738393B3C3D3F40414244454648494A00
:1018E0004C4D4E50515254555657595A5B5D5E5FA0
:1018F000616263656667696A6B6C6E6F7072737440
:101900007677787A7B7C7E7F8081838485878889DF
:101910008B8C8D8F90919394959698999A9C9D9E7F
:10192000A0A1A2A4A5A6A8A9AAABADAEAFB1B2B31F
:10193000B5B6B7B9BABBBDBEBFC0C2C3C4C6C7C8BF
:10194000CACBCCCECFD0D2D3D4D5D7D8D9DBDCDD5F
:10195000DFE0E1E3E4E5E7E81B1C1D1F2021222472
:10196000252627292A2B2C2E2F3032333435373891
:10197000393A3C3D3E3F414243454647484A4B4C3D
:101980004D4F50515354555658595A5B5D5E5F60E8
:10199000626364666768696B6C6D6E707172737593
:1019A0007677797A7B7C7E7F80818384858688893F
:1019B0008A8C8D8E8F91929394969798999B9C9DEB
:1019C0009FA0A1A2A4A5A6A7A9AAABACAEAFB0B296
:1019D000B3B4B5B7B8B9BABCBDBEC0C1C2C3C5C641
:1019E000C7C8CACBCCCDCFD0D1D3D4D5D6D8D9DAED
:1019F000DBDDDEDFE0E2E3E41E1F212223242527D6
:101A000028292A2C2D2E2F30323334353738393AC5
:101A10003B3D3E3F40424344454748494A4B4D4E7B
:101A20004F50525354555658595A5B5D5E5F606132
:101A30006364656668696A6B6D6E6F7071737475E7
:101A40007678797A7B7C7E7F80818384858687899E
:101A50008A8B8C8E8F90919294959697999A9B9C55
:101A60009E9FA0A1A2A4A5A6A7A9AAABACADAFB00A
:101A7000B1B2B4B5B6B7B8BABBBCBDBFC0C1C2C4C1
:101A8000C5C6C7C8CACBCCCDCFD0D1D2D3D5D6D777
:101A9000D8DADBDCDDDEE0E1212224252627282937
:101AA0002B2C2D2E2F31323334353738393A3B3CFD
:101AB0003E3F40414244454647484A4B4C4D4E4FBD
:101AC00051525354555758595A5B5C5E5F6061627E
:101AD00064656667686A6B6C6D6E6F71727374753E
:101AE0007778797A7B7D7E7F8081828485868788FE
:101AF0008A8B8C8D8E9091929394959798999A9BBE
:101B00009D9E9FA0A1A3A4A5A6A7A8AAABACADAE7D
:101B1000B0B1B2B3B4B5B7B8B9BABBBDBEBFC0C13E
:101B2000C3C4C5C6C7C8CACBCCCDCED0D1D2D3D4FE
:101B3000D6D7D8D9DADBDDDE24252628292A2B2C96
:101B40002D2E3031323334353638393A3B3C3D3F37
:101B50004041424344454748494A4B4C4D4F505100
:101B6000525354565758595A5B5C5E5F60616263CA
:101B700064666768696A6B6D6E6F70717273757693
:101B80007778797A7B7D7E7F80818284858687885D
:101B9000898A8C8D8E8F9091929495969798999B27
:101BA0009C9D9E9FA0A1A3A4A5A6A7A8A9ABACADF0
:101BB000AEAFB0B2B3B4B5B6B7B8BABBBCBDBEBFBA
:101BC000C0C2C3C4C5C6C7C9CACBCCCDCECFD1D283
:101BD000D3D4D5D6D7D9DADB2728292A2B2C2E2FF8
:101BE0003031323334353638393A3B3C3D3E3F4074
:101BF00042434445464748494B4C4D4E4F50515245
:101C00005355565758595A5B5C5D5F606162636417
:101C1000656668696A6B6C6D6E6F707273747576E9
:101C20007778797A7C7D7E7F8081828385868788BC
:101C3000898A8B8C8D8F9091929394959697999A8F
:101C40009B9C9D9E9FA0A2A3A4A5A6A7A8A9AAAC61
:101C5000ADAEAFB0B1B2B3B4B6B7B8B9BABBBCBD34
:101C6000BFC0C1C2C3C4C5C6C7C9CACBCCCDCECF05
:101C7000D0D1D3D4D5D6D7D8292A2C2D2E2F303158
:101C8000323334353637393A3B3C3D3E3F404142B2
:101C90004344464748494A4B4C4D4E4F505153548C
:101CA00055565758595A5B5C5D5E60616263646566
:101CB000666768696A6B6D6E6F7071727374757642
:101CC00077787A7B7C7D7E7F80818283848587881C
:101CD000898A8B8C8D8E8F909192949596979899F6
:101CE0009A9B9C9D9E9FA1A2A3A4A5A6A7A8A9AAD2
:101CF000ABACAEAFB0B1B2B3B4B5B6B7B8B9BBBCAC
:101D0000BDBEBFC0C1C2C3C4C5C6C8C9CACBCCCD85
:101D1000CECFD0D1D2D3D5D62C2D2E2F30313233B9
:101D200034353637383A3B3C3D3E3F4041424344F0
:101D300045464748494A4B4C4E4F505152535455D3
:101D4000565758595A5B5C5D5E5F606263646566B6
:101D50006768696A6B6C6D6E6F7071727374767799
:101D600078797A7B7C7D7E7F80818283848586877B
:101D700088898B8C8D8E8F9091929394959697985D
:101D8000999A9B9C9D9FA0A1A2A3A4A5A6A7A8A940
:101D9000AAABACADAEAFB0B1B3B4B5B6B7B8B9BA23
:101DA000BBBCBDBEBFC0C1C2C3C4C5C7C8C9CACB06
:101DB000CCCDCECFD0D1D2D32E2F3031323334351B
:101DC000363738393A3B3C3D3F4041424344454633
:101DD0004748494A4B4C4D4E4F505152535455561B
:101DE0005758595A5B5C5D5E5F606162636465660B
:101DF0006768696B6C6D6E6F7071727374757677EE
:101E000078797A7B7C7D7E7F8081828384858687DA
:101E100088898A8B8C8D8E8F9091929394969798C7
:101E2000999A9B9C9D9E9FA0A1A2A3A4A5A6A7A8AA
:101E3000A9AAABACADAEAFB0B1B2B3B4B5B6B7B89A
:101E4000B9BABBBCBDBEBFC0C2C3C4C5C6C7C8C982
:101E5000CACBCCCDCECFD0D130313233343536377A
:101E600038393A3B3C3D3E3F40414243444546477A
:101E700048494A4B4C4D4E4F50515253545556576A
:101E800058595A5B5C5D5E5F60616263646566675A
:101E900068696A6B6C6D6E6F70717273747576774A
:101EA00078797A7B7C7D7E7F80818283848586873A
:101EB00088898A8B8C8D8E8F90919293949596972A
:101EC00098999A9B9C9D9E9FA0A1A2A3A4A5A6A71A
:101ED000A8A9AAABACADAEAFB0B1B2B3B4B5B6B70A
:101EE000B8B9BABBBCBDBEBFC0C1C2C3C4C5C6C7FA
:101EF000C8C9CACBCCCDCECF3233343536373839DA
:101F00003A3B3C3D3E3F40414243444546474849B9
:101F10004A4B4C4D4E4F4F505152535455565758B3
:101F2000595A5B5C5D5E5F606162636465666768A9
:101F3000696A6B6C6D6E6F6F7071727374757677A2
:101F400078797A7B7C7D7E7F808182838485868799
:101F500088898A8B8C8D8E8F909091929394959690
:101F60009798999A9B9C9D9E9FA0A1A2A3A4A5A689
:101F7000A7A8A9AAABACADAEAFB0B0B1B2B3B4B57F
:101F8000B6B7B8B9BABBBCBDBEBFC0C1C2C3C4C579
:101F9000C6C7C8C9CACBCCCD3435363738393A3B39
:101FA0003C3D3E3F40414243434445464748494A01
:101FB0004B4C4D4E4F5051525354545556575859FF
:101FC0005A5B5C5D5E5F60616263646566666768FC
:101FD000696A6B6C6D6E6F707172737475767777FA
:101FE00078797A7B7C7D7E7F8081828384858687F9
:101FF0008888898A8B8C8D8E8F90919293949596F8
:10200000979899999A9B9C9D9E9FA0A1A2A3A4A5F5
:10201000A6A7A8A9AAABABACADAEAFB0B1B2B3B4F2
:10202000B5B6B7B8B9BABBBCBCBDBEBFC0C1C2C3F0
:10203000C4C5C6C7C8C9CACB363738393A3B3C3D98
:102040003E3F3F404142434445464748494A4A4B48
:102050004C4D4E4F50515253545556565758595A4D
:102060005B5C5D5E5F606162626364656667686950
:102070006A6B6C6D6E6E6F70717273747576777853
:10208000797A7A7B7C7D7E7F808182838485858658
:102090008788898A8B8C8D8E8F909191929394955D
:1020A000969798999A9B9C9D9D9E9FA0A1A2A3A460
:1020B000A5A6A7A8A9A9AAABACADAEAFB0B1B2B363
:1020C000B4B5B5B6B7B8B9BABBBCBDBEBFC0C0C168
:1020D000C2C3C4C5C6C7C8C938393A3B3C3C3D3EFB
:1020E0003F40414243444545464748494A4B4C4D91
:1020F0004E4E4F50515253545556575758595A5B9C
:102100005C5D5E5F606061626364656667686969A3
:102110006A6B6C6D6E6F70717272737475767778AE
:10212000797A7B7B7C7D7E7F8081828384848586B7
:102130008788898A8B8C8D8D8E8F909192939495C0
:1021400096969798999A9B9C9D9E9F9FA0A1A2A3CB
:10215000A4A5A6A7A8A8A9AAABACADAEAFB0B1B1D3
:10216000B2B3B4B5B6B7B8B9BABABBBCBDBEBFC0DE
:10217000C1C2C3C3C4C5C6C73A3B3B3C3D3E3F405A
:1021800041424243444546474849494A4B4C4D4EDB
:102190004F5051515253545556575858595A5B5CE9
:1021A0005D5E5F5F60616263646566666768696AF9
:1021B0006B6C6D6D6E6F7071727374757576777808
:1021C000797A7B7C7C7D7E7F808182838384858617
:1021D0008788898A8A8B8C8D8E8F90919292939426
:1021E0009596979899999A9B9C9D9E9FA0A0A1A235
:1021F000A3A4A5A6A7A7A8A9AAABACADAEAEAFB045
:10220000B1B2B3B4B5B6B6B7B8B9BABBBCBDBDBE52
:10221000BFC0C1C2C3C4C4C53B3C3D3E3F404041BA
:102220004243444546464748494A4B4C4C4D4E4F25
:102230005051525253545556575858595A5B5C5D39
:102240005E5E5F60616263646465666768696A6A4E
:102250006B6C6D6E6F707071727374757676777863
:10226000797A7B7C7C7D7E7F808182838384858676
:10227000878889898A8B8C8D8E8F8F909192939489
:102280009595969798999A9B9B9C9D9E9FA0A1A19E
:10229000A2A3A4A5A6A7A7A8A9AAABACADADAEAFB3
:1022A000B0B1B2B3B3B4B5B6B7B8B9B9BABBBCBDC7
:1022B000BEBFBFC0C1C2C3C43D3E3F3F4041424319
:1022C00044444546474849494A4B4C4D4E4E4F5071
:1022D00051525353545556575859595A5B5C5D5E89
:1022E0005E5F6061626363646566676868696A6BA4
:1022F0006C6D6D6E6F7071727373747576777878BC
:10230000797A7B7C7D7D7E7F8081828283848586D5
:10231000878788898A8B8C8C8D8E8F9091929293EF
:10232000949596979798999A9B9C9C9D9E9FA0A107
:10233000A1A2A3A4A5A6A6A7A8A9AAABACACADAE22
:10234000AFB0B1B1B2B3B4B5B6B6B7B8B9BABBBB3A
:10235000BCBDBEBFC0C0C1C23E3F4041424243447B
:102360004546474748494A4B4B4C4D4E4F505051BC
:10237000525354545556575859595A5B5C5D5D5EDB
:102380005F6061626263646566666768696A6B6BF9
:102390006C6D6E6F70707172737474757677787916
:1023A000797A7B7C7D7D7E7F808182828384858635
:1023B000868788898A8B8B8C8D8E8F8F9091929354
:1023C00094949596979899999A9B9C9D9D9E9FA071
:1023D000A1A2A2A3A4A5A6A6A7A8A9AAABABACAD8F
:1023E000AEAFAFB0B1B2B3B4B4B5B6B7B8B8B9BAAE
:1023F000BBBCBDBDBEBFC0C14041414243444545D9
:1024000046474849494A4B4C4D4D4E4F5051515209
:102410005354555556575859595A5B5C5D5D5E5F2C
:10242000606161626364656566676869696A6B6C4F
:102430006D6D6E6F70717172737475757677787972
:10244000797A7B7C7D7D7E7F808182828384858694
:10245000868788898A8A8B8C8D8E8E8F90919292B6
:1024600093949596969798999A9A9B9C9D9E9E9FD9
:10247000A0A1A2A2A3A4A5A6A6A7A8A9AAAAABACFC
:10248000ADAEAEAFB0B1B2B2B3B4B5B6B6B7B8B91F
:10249000BABABBBCBDBEBEBF41424343444546473A
:1024A0004748494A4A4B4C4D4E4E4F505152525359
:1024B00054555556575859595A5B5C5D5D5E5F607F
:1024C0006061626364646566676868696A6B6B6CA7
:1024D0006D6E6F6F707172737374757676777879CD
:1024E0007A7A7B7C7D7E7E7F8081818283848585F4
:1024F00086878889898A8B8C8C8D8E8F909091921B
:102500009394949596979798999A9B9B9C9D9E9F40
:102510009FA0A1A2A2A3A4A5A6A6A7A8A9AAAAAB68
:10252000ACADADAEAFB0B1B1B2B3B4B5B5B6B7B88E
:10253000B8B9BABBBCBCBDBE42434445454647489A
:1025400049494A4B4C4C4D4E4F4F505152535354A6
:10255000555656575859595A5B5C5D5D5E5F6060D1
:1025600061626363646566676768696A6A6B6C6DFC
:102570006D6E6F7071717273747475767777787928
:102580007A7B7B7C7D7E7E7F808181828384858552
:1025900086878888898A8B8B8C8D8E8F8F9091927D
:1025A000929394959596979899999A9B9C9C9D9EA9
:1025B0009F9FA0A1A2A3A3A4A5A6A6A7A8A9A9AAD4
:1025C000ABACADADAEAFB0B0B1B2B3B3B4B5B6B7FE
:1025D000B7B8B9BABABBBCBD4444454647474849F9
:1025E0004A4A4B4C4D4D4E4F5050515253535455F7
:1025F0005656575859595A5B5C5C5D5E5F5F606127
:1026000062626364656566676869696A6B6C6C6D54
:102610006E6F6F7071727273747575767778787982
:102620007A7B7B7C7D7E7E7F8081818283848485B2
:1026300086878788898A8A8B8C8D8D8E8F909091E2
:10264000929393949596969798999A9A9B9C9D9D10
:102650009E9FA0A0A1A2A3A3A4A5A6A6A7A8A9A93E
:10266000AAABACACADAEAFAFB0B1B2B2B3B4B5B56E
:10267000B6B7B8B8B9BABBBB454646474848494A59
:102680004B4B4C4D4E4E4F50515152535454555646
:1026900057575859595A5B5C5C5D5E5F5F60616279
:1026A000626364656566676768696A6A6B6C6D6DAD
:1026B0006E6F7070717273737475767677787879DF
:1026C0007A7B7B7C7D7E7E7F808181828384848512
:1026D0008687878889898A8B8C8C8D8E8F8F909145
:1026E00092929394959596979898999A9A9B9C9D77
:1026F0009D9E9FA0A0A1A2A3A3A4A5A6A6A7A8A8AB
:10270000A9AAABABACADAEAEAFB0B1B1B2B3B4B4DD
:10271000B5B6B7B7B8B9B9BA46474748494A4A4BB8
:102720004C4C4D4E4F4F5051525253545455565796
:10273000575859595A5B5C5C5D5E5F5F60616162CE
:10274000636464656667676869696A6B6C6C6D6E03
:102750006E6F70717172737474757676777879793B
:102760007A7B7C7C7D7E7E7F808181828383848571
:102770008686878889898A8B8B8C8D8E8E8F9091A7
:102780009192939394959696979898999A9B9B9CDF
:102790009D9E9E9FA0A0A1A2A3A3A4A5A6A6A7A814
:1027A000A8A9AAABABACADADAEAFB0B0B1B2B3B34C
:1027B000B4B5B5B6B7B8B8B9474848494A4B4B4C19
:1027C0004D4D4E4F505051525253545555565757E8
:1027D0005859595A5B5C5C5D5E5E5F606161626323
:1027E0006364656666676868696A6B6B6C6D6D6E5D
:1027F0006F70707172727374747576777778797997
:102800007A7B7C7C7D7E7E7F8081818283838485D0
:102810008686878888898A8B8B8C8D8D8E8F8F900A
:10282000919292939494959697979899999A9B9C44
:102830009C9D9E9E9FA0A1A1A2A3A3A4A5A6A6A77E
:10284000A8A8A9AAAAABACADADAEAFAFB0B1B2B2B9
:10285000B3B4B4B5B6B7B7B84849494A4B4C4C4D78
:102860004E4E4F505051525353545555565757583A
:10287000595A5A5B5C5C5D5E5E5F60606162636377
:1028800064656566676768696A6A6B6C6C6D6E6EB5
:102890006F70717172737374757576777778797AF2
:1028A0007A7B7C7C7D7E7E7F808181828383848530
:1028B0008586878888898A8A8B8C8C8D8E8E8F906E
:1028C000919192939394959596979898999A9A9BAB
:1028D0009C9C9D9E9F9FA0A1A1A2A3A3A4A5A5A6E9
:1028E000A7A8A8A9AAAAABACACADAEAFAFB0B1B126
:1028F000B2B3B3B4B5B6B6B7494A4A4B4C4D4D4ED8
:102900004F4F50515152535354555556575758598C
:102910005A5A5B5C5C5D5E5E5F60606162626364CC
:1029200064656667676869696A6B6B6C6D6D6E6F0D
:102930006F70717172737474757676777878797A4E
:102940007A7B7C7C7D7E7E7F80818182838384858F
:10295000858687878889898A8B8B8C8D8E8E8F90D0
:1029600090919292939494959696979898999A9B11
:102970009B9C9D9D9E9F9FA0A1A1A2A3A3A4A5A552
:10298000A6A7A8A8A9AAAAABACACADAEAEAFB0B092
:10299000B1B2B2B3B4B5B5B64A4B4B4C4D4D4E4F38
:1029A0004F50515152535354555656575858595ADF
:1029B0005A5B5C5C5D5E5E5F606061626263646422
:1029C000656666676868696A6A6B6C6C6D6E6E6F67
:1029D0007070717272737474757676777878797AAC
:1029E0007A7B7C7C7D7E7E7F8081818283838485EF
:1029F000858687878889898A8B8B8C8D8D8E8F8F32
:102A00009091919293939495959697979899999A76
:102A10009B9B9C9D9D9E9F9FA0A1A1A2A3A3A4A5BB
:102A2000A5A6A7A7A8A9A9AAABACACADAEAEAFB0FE
:102A3000B0B1B2B2B3B4B4B54B4C4C4D4E4E4F5096
:102A400050515252535454555656575858595A5A31
:102A50005B5C5C5D5E5E5F5F606161626363646579
:102A6000656667676869696A6B6B6C6D6D6E6F6FC1
:102A70007071717273737475757677777879797A06
:102A80007B7B7C7D7D7E7F7F80808182828384844E
:102A9000858686878888898A8A8B8C8C8D8E8E8F96
:102AA0009090919292939494959696979898999ADB
:102AB0009A9B9C9C9D9E9E9FA0A0A1A1A2A3A3A423
:102AC000A5A5A6A7A7A8A9A9AAABABACADADAEAF6B
:102AD000AFB0B1B1B2B3B3B44C4D4D4E4F4F5050F7
:102AE000515252535454555656575858595A5A5B86
:102AF0005C5C5D5D5E5F5F606161626363646565D0
:102B00006667676868696A6A6B6C6C6D6E6E6F7019
:102B10007071727273747475757677777879797A63
:102B20007B7B7C7D7D7E7F7F8080818282838484AD
:102B3000858686878888898A8A8B8B8C8D8D8E8FF7
:102B40008F90919192939394959596979798989941
:102B50009A9A9B9C9C9D9E9E9FA0A0A1A2A2A3A38B
:102B6000A4A5A5A6A7A7A8A9A9AAABABACADADAED5
:102B7000AFAFB0B0B1B2B2B34D4D4E4F4F50515157
:102B80005253535454555656575858595A5A5B5BDA
:102B90005C5D5D5E5F5F6061616263636464656626
:102BA00066676868696A6A6B6B6C6D6D6E6F6F7073
:102BB0007171727273747475767677787879797AC0
:102BC0007B7B7C7D7D7E7F7F80808182828384840D
:102BD00085868687878889898A8B8B8C8D8D8E8E5A
:102BE0008F909091929293949495959697979899A7
:102BF000999A9B9B9C9D9D9E9E9FA0A0A1A2A2A3F3
:102C0000A4A4A5A5A6A7A7A8A9A9AAABABACACAD3F
:102C1000AEAEAFB0B0B1B2B24E4E4F5050515152B5
:102C200053535455555656575858595A5A5B5B5C2E
:102C30005D5D5E5F5F60606162626364646565667E
:102C400067676869696A6B6B6C6C6D6E6E6F7070CC
:102C500071717273737475757676777878797A7A1C
:102C60007B7B7C7D7D7E7F7F80808182828384846C
:102C700085858687878889898A8A8B8C8C8D8E8EBC
:102C80008F8F90919192939394949596969798980C
:102C9000999A9A9B9B9C9D9D9E9F9FA0A0A1A2A25A
:102CA000A3A4A4A5A5A6A7A7A8A9A9AAAAABACACAA
:102CB000ADAEAEAFAFB0B1B14F4F50505152525315
:102CC000535455555657575858595A5A5B5B5C5D83
:102CD0005D5E5F5F606061626263636465656667D5
:102CE000676868696A6A6B6B6C6D6D6E6F6F707028
:102CF00071727273737475757677777878797A7A7A
:102D00007B7B7C7D7D7E7F7F8080818282838484CB
:102D100085858687878888898A8A8B8C8C8D8D8E1D
:102D20008F8F90909192929394949595969797986F
:102D300098999A9A9B9C9C9D9D9E9F9FA0A0A1A2C2
:102D4000A2A3A4A4A5A5A6A7A7A8A8A9AAAAABAC14
:102D5000ACADADAEAFAFB0B04F5051515252535475
:102D60005455555657575858595A5A5B5B5C5D5DD8
:102D70005E5E5F606061616263636465656666672D
:102D8000686869696A6B6B6C6C6D6E6E6F6F707181
:102D900071727273747475757677777879797A7AD7
:102DA0007B7C7C7D7D7E7F7F80808182828383842B
:102DB00085858686878888898A8A8B8B8C8D8D8E7F
:102DC0008E8F9090919192939394949596969797D5
:102DD0009899999A9A9B9C9C9D9E9E9F9FA0A1A129
:102DE000A2A2A3A4A4A5A5A6A7A7A8A8A9AAAAAB7E
:102DF000ABACADADAEAEAFB05051515252535454D6
:102E000055555657575858595A5A5B5B5C5D5D5E2D
:102E10005E5F606061616263636464656666676784
:102E20006869696A6A6B6C6C6D6D6E6F6F707071DA
:102E300071727373747475767677777879797A7A34
:102E40007B7C7C7D7D7E7F7F80808182828383848A
:102E50008585868687888889898A8B8B8C8C8D8EE0
:102E60008E8F8F909091929293939495959696973A
:102E7000989899999A9B9B9C9C9D9E9E9F9FA0A190
:102E8000A1A2A2A3A4A4A5A5A6A7A7A8A8A9AAAAE7
:102E9000ABABACADADAEAEAF515152535354545534
:102EA000565657575858595A5A5B5B5C5D5D5E5E83
:102EB0005F606061616262636464656566676768DC
:102EC0006869696A6B6B6C6C6D6E6E6F6F70717137
:102ED00072727373747575767677787879797A7B90
:102EE0007B7C7C7D7D7E7F7F8080818282838384EA
:102EF0008485868687878889898A8A8B8C8C8D8D44
:102F00008E8E8F909091919293939494959696979C
:102F1000979898999A9A9B9B9C9D9D9E9E9F9FA0F7
:102F2000A1A1A2A2A3A4A4A5A5A6A7A7A8A8A9A950
:102F3000AAABABACACADAEAE525253535454555693
:102F40005657575858595A5A5B5B5C5D5D5E5E5FD9
:102F50005F60616162626363646565666667686835
:102F600069696A6A6B6C6C6D6D6E6E6F7070717191
:102F700072727374747575767777787879797A7BED
:102F80007B7C7C7D7D7E7F7F808081828283838449
:102F90008485868687878888898A8A8B8B8C8D8DA5
:102FA0008E8E8F8F90919192929393949595969601
:102FB00097979899999A9A9B9C9C9D9D9E9E9FA05D
:102FC000A0A1A1A2A2A3A4A4A5A5A6A7A7A8A8A9B9
:102FD000A9AAABABACACADAD5253535455555656F4
:102FE00057575859595A5A5B5B5C5D5D5E5E5F5F2F
:102FF000606061626263636464656666676768688F
:10300000696A6A6B6B6C6C6D6E6E6F6F70707172EB
:10301000727373747475767677777878797A7A7B49
:103020007B7C7C7D7E7E7F7F8080818182838384A8
:10303000848585868787888889898A8B8B8C8C8D07
:103040008D8E8F8F90909191929393949495959665
:103050009797989899999A9B9B9C9C9D9D9E9F9FC2
:10306000A0A0A1A1A2A2A3A4A4A5A5A6A6A7A8A822
:10307000A9A9AAAAABACACAD535454555556565752
:10308000575859595A5A5B5B5C5C5D5E5E5F5F6086
:1030900060616262636364646565666767686869E6
:1030A000696A6A6B6C6C6D6D6E6E6F707071717247
:1030B000727373747575767677777878797A7A7BA8
:1030C0007B7C7C7D7E7E7F7F808081818283838408
:1030D000848585868787888889898A8A8B8C8C8D68
:1030E0008D8E8E8F8F9091919292939394959596C9
:1030F0009697979898999A9A9B9B9C9C9D9D9E9F2A
:103100009FA0A0A1A1A2A3A3A4A4A5A5A6A6A7A889
:10311000A8A9A9AAAAABABAC5454555556565757B3
:103120005859595A5A5B5B5C5C5D5E5E5F5F6060DC
:10313000616162636364646565666667676869693F
:103140006A6A6B6B6C6C6D6E6E6F6F7070717172A2
:10315000737374747575767677777879797A7A7B04
:103160007B7C7C7D7E7E7F7F808081818283838467
:10317000848585868687888889898A8A8B8B8C8CCA
:103180008D8E8E8F8F90909191929393949495952C
:10319000969697989899999A9A9B9B9C9C9D9E9E8F
:1031A0009F9FA0A0A1A1A2A3A3A4A4A5A5A6A6A7F2
:1031B000A8A8A9A9AAAAABAB545555565657585812
:1031C00059595A5A5B5B5C5C5D5D5E5F5F60606134
:1031D000616262636364656566666767686869699A
:1031E0006A6B6B6C6C6D6D6E6E6F6F7071717272FD
:1031F000737374747575767777787879797A7A7B62
:103200007B7C7D7D7E7E7F7F8080818182828384C6
:10321000848585868687878888898A8A8B8B8C8C2B
:103220008D8D8E8E8F909091919292939394949590
:1032300096969797989899999A9A9B9C9C9D9D9EF3
:103240009E9F9FA0A0A1A2A2A3A3A4A4A5A5A6A659
:10325000A7A7A8A9A9AAAAAB555556565758585971
:10326000595A5A5B5B5C5C5D5D5E5F5F606061618B
:103270006262636364646565666767686869696AF2
:103280006A6B6B6C6C6D6E6E6F6F70707171727259
:10329000737374757576767777787879797A7A7BBF
:1032A0007B7C7D7D7E7E7F7F808081818282838426
:1032B00084858586868787888889898A8A8B8C8C8D
:1032C0008D8D8E8E8F8F90909191929393949495F3
:1032D00095969697979898999A9A9B9B9C9C9D9D5A
:1032E0009E9E9F9FA0A0A1A2A2A3A3A4A4A5A5A6C1
:1032F000A6A7A7A8A9A9AAAA5556575758585959D1
:103300005A5A5B5B5C5C5D5D5E5E5F6060616162E2
:1033100062636364646565666667676869696A6A4B
:103320006B6B6C6C6D6D6E6E6F6F707071717273B4
:10333000737474757576767777787879797A7A7B1D
:103340007C7C7D7D7E7E7F7F808081818282838385
:1033500084858586868787888889898A8A8B8B8CED
:103360008C8D8E8E8F8F9090919192929393949456
:103370009595969697989899999A9A9B9B9C9C9DBF
:103380009D9E9E9F9FA0A1A1A2A2A3A3A4A4A5A528
:10339000A6A6A7A7A8A8A9AA565757585859595A30
:1033A0005A5B5B5C5C5D5D5E5E5F5F60606162623C
:1033B00063636464656566666767686869696A6AA5
:1033C0006B6B6C6C6D6E6E6F6F707071717272730F
:1033D0007374747575767677777878797A7A7B7B7B
:1033E0007C7C7D7D7E7E7F7F8080818182828383E5
:1033F00084848585868787888889898A8A8B8B8C4F
:103400008C8D8D8E8E8F8F909091919293939494BA
:10341000959596969797989899999A9A9B9B9C9C24
:103420009D9D9E9F9FA0A0A1A1A2A2A3A3A4A4A58D
:10343000A5A6A6A7A7A8A8A95757585859595A5A90
:103440005B5B5C5C5D5D5E5E5F5F60606161626294
:10345000636364656566666767686869696A6A6BFD
:103460006B6C6C6D6D6E6E6F6F707071717272736C
:103470007374747575767777787879797A7A7B7BD7
:103480007C7C7D7D7E7E7F7F808081818282838344
:1034900084848585868687878888898A8A8B8B8CB1
:1034A0008C8D8D8E8E8F8F9090919192929393941C
:1034B00094959596969797989899999A9A9B9C9C8B
:1034C0009D9D9E9E9F9FA0A0A1A1A2A2A3A3A4A4F4
:1034D000A5A5A6A6A7A7A8A857585859595A5A5BF0
:1034E0005B5C5C5D5D5E5E5F5F60606161626263EC
:1034F000636464656566666767686869696A6A6B5C
:103500006B6C6C6D6E6E6F6F7070717172727373C5
:103510007474757576767777787879797A7A7B7B33
:103520007C7C7D7D7E7E7F7F8080818182828383A3
:103530008484858586868787888889898A8A8B8B13
:103540008C8C8D8D8E8E8F8F909091919293939481
:1035500094959596969797989899999A9A9B9B9CEB
:103560009C9D9D9E9E9F9FA0A0A1A1A2A2A3A3A45B
:10357000A4A5A5A6A6A7A7A8585859595A5A5B5B4F
:103580005C5C5D5D5E5E5F5F606061616262636343
:103590006464656566666767686869696A6A6B6BB3
:1035A0006C6C6D6D6E6E6F6F707071717272737323
:1035B0007474757576767777787879797A7A7B7B93
:1035C0007C7C7D7D7E7E7F7F808081818282838303
:1035D0008484858586868787888889898A8A8B8B73
:1035E0008C8C8D8D8E8E8F8F9090919192929393E3
:1035F0009494959596969797989899999A9A9B9B53
:103600009C9C9D9D9E9E9F9FA0A0A1A1A2A2A3A3C2
:10361000A4A4A5A5A6A6A7A75859595A5A5B5B5CAE
:103620005C5D5D5E5E5F5F6060616162626363649A
:1036300064656566666767686869696A6A6B6B6C0A
:103640006C6C6D6D6E6E6F6F707071717272737382
:103650007474757576767777787879797A7A7B7BF2
:103660007C7C7D7D7E7E7F7F808081818282838362
:103670008484858586868787888889898A8A8B8BD2
:103680008C8C8D8D8E8E8F8F909091919292939342
:10369000939494959596969797989899999A9A9BBA
:1036A0009B9C9C9D9D9E9E9F9FA0A0A1A1A2A2A32A
:1036B000A3A4A4A5A5A6A6A759595A5A5B5B5C5C0E
:1036C0005D5D5E5E5F5F60606161626263636364F3
:1036D00064656566666767686869696A6A6B6B6C6A
:1036E0006C6D6D6E6E6F6F707071717272737374DA
:1036F0007475757676767777787879797A7A7B7B50
:103700007C7C7D7D7E7E7F7F8080818182828383C1
:10371000848485858686878788888989898A8A8B33
:103720008B8C8C8D8D8E8E8F8F90909191929293A9
:10373000939494959596969797989899999A9A9B19
:103740009B9C9C9C9D9D9E9E9F9FA0A0A1A1A2A290
:10375000A3A3A4A4A5A5A6A6595A5A5B5B5C5C5D6D
:103760005D5E5E5F5F60606061616262636364644E
:10377000656566666767686869696A6A6B6B6C6CC1
:103780006D6D6D6E6E6F6F70707171727273737438
:103790007475757676777778787979797A7A7B7BAC
:1037A0007C7C7D7D7E7E7F7F808081818282838321
:1037B000848485858686868787888889898A8A8B96
:1037C0008B8C8C8D8D8E8E8F8F909091919292920A
:1037D00093939494959596969797989899999A9A81
:1037E0009B9B9C9C9D9D9E9E9F9F9FA0A0A1A1A2F4
:1037F000A2A3A3A4A4A5A5A65A5A5B5B5C5C5D5DCD
:103800005E5E5F5F5F6060616162626363646465A6
:10381000656666676768686869696A6A6B6B6C6C1D
:103820006D6D6E6E6F6F7070717171727273737493
:1038300074757576767777787879797A7A7B7B7B09
:103840007C7C7D7D7E7E7F7F808081818282838380
:10385000848484858586868787888889898A8A8BF7
:103860008B8C8C8D8D8E8E8E8F8F9090919192926D
:103870009393949495959696979797989899999AE3
:103880009A9B9B9C9C9D9D9E9E9F9FA0A0A0A1A15A
:10389000A2A2A3A3A4A4A5A55A5B5B5C5C5D5D5E2C
:1038A0005E5E5F5F60606161626263636464656500
:1038B0006566666767686869696A6A6B6B6C6C6D78
:1038C0006D6D6E6E6F6F70707171727273737474F0
:1038D00074757576767777787879797A7A7B7B7C68
:1038E0007C7C7D7D7E7E7F7F8080818182828383E0
:1038F000838484858586868787888889898A8A8B58
:103900008B8B8C8C8D8D8E8E8F8F909091919292CF
:103910009293939494959596969797989899999A47
:103920009A9A9B9B9C9C9D9D9E9E9F9FA0A0A1A1BF
:10393000A1A2A2A3A3A4A4A55B5B5C5C5D5D5D5E8C
:103940005E5F5F606061616262636363646465655A
:1039500066666767686869696A6A6A6B6B6C6C6DD2
:103960006D6E6E6F6F70707071717272737374744C
:1039700075757676767777787879797A7A7B7B7CC5
:103980007C7C7D7D7E7E7F7F80808181828283833F
:1039900083848485858686878788888989898A8AB9
:1039A0008B8B8C8C8D8D8E8E8F8F8F909091919232
:1039B00092939394949595959696979798989999AC
:1039C0009A9A9B9B9C9C9C9D9D9E9E9F9FA0A0A124
:1039D000A1A2A2A2A3A3A4A45B5C5C5D5D5D5E5EEC
:1039E0005F5F6060616162626263636464656566B3
:1039F00066676768686869696A6A6B6B6C6C6D6D2D
:103A00006D6E6E6F6F7070717172727273737474A9
:103A100075757676777778787879797A7A7B7B7C22
:103A20007C7D7D7D7E7E7F7F80808181828282839E
:103A300083848485858686878787888889898A8A1A
:103A40008B8B8C8C8D8D8D8E8E8F8F909091919293
:103A50009292939394949595969697979798989910
:103A6000999A9A9B9B9C9C9D9D9D9E9E9F9FA0A08A
:103A7000A1A1A2A2A2A3A3A45C5C5D5D5D5E5E5F4A
:103A80005F6060616161626263636464656566660C
:103A9000666767686869696A6A6B6B6B6C6C6D6D89
:103AA0006E6E6F6F6F707071717272737374747405
:103AB00075757676777778787979797A7A7B7B7C81
:103AC0007C7D7D7D7E7E7F7F8080818182828283FE
:103AD00083848485858686868787888889898A8A7B
:103AE0008B8B8B8C8C8D8D8E8E8F8F9090909191F7
:103AF0009292939394949495959696979798989973
:103B000099999A9A9B9B9C9C9D9D9E9E9E9F9FA0EF
:103B1000A0A1A1A2A2A2A3A35C5C5D5D5E5E5F5FAB
:103B20006060606161626263636464656565666666
:103B3000676768686969696A6A6B6B6C6C6D6D6DE3
:103B40006E6E6F6F70707171717272737374747561
:103B500075757676777778787979797A7A7B7B7CE0
:103B60007C7D7D7D7E7E7F7F80808181828282835D
:103B700083848485858686868787888889898A8ADA
:103B80008A8B8B8C8C8D8D8E8E8E8F8F9090919159
:103B900092929293939494959596969697979898D7
:103BA00099999A9A9A9B9B9C9C9D9D9E9E9F9F9F54
:103BB000A0A0A1A1A2A2A3A35C5D5D5E5E5F5F6009
:103BC00060606161626263636464646565666667C0
:103BD0006767686869696A6A6B6B6B6C6C6D6D6E40
:103BE0006E6F6F6F707071717272727373747475BF
:103BF000757676767777787879797A7A7A7B7B7C3E
:103C00007C7D7D7E7E7E7F7F8080818181828283BC
:103C10008384848585858686878788888989898A3B
:103C20008A8B8B8C8C8D8D8D8E8E8F8F90909091BA
:103C30009192929393949494959596969797989839
:103C40009899999A9A9B9B9B9C9C9D9D9E9E9F9FB9
:103C50009FA0A0A1A1A2A2A35D5D5E5E5F5F5F6069
:103C6000606161626263636364646565666666671A
:103C70006768686969696A6A6B6B6C6C6D6D6D6E9B
:103C80006E6F6F707070717172727373747474751B
:103C9000757676777777787879797A7A7A7B7B7C9C
:103CA0007C7D7D7E7E7E7F7F80808181818282831C
:103CB0008384848585858686878788888889898A9C
:103CC0008A8B8B8B8C8C8D8D8E8E8F8F8F9090911D
:103CD000919292929393949495959696969797989D
:103CE000989999999A9A9B9B9C9C9C9D9D9E9E9F1E
:103CF0009FA0A0A0A1A1A2A25D5E5E5F5F5F6060C9
:103D00006161626262636364646565656666676774
:103D100068686869696A6A6B6B6B6C6C6D6D6E6EF6
:103D20006E6F6F7070717172727273737474757577
:103D3000757676777778787879797A7A7B7B7B7CF9
:103D40007C7D7D7E7E7E7F7F80808181818282837B
:103D50008384848485858686878787888889898AFD
:103D60008A8A8B8B8C8C8D8D8D8E8E8F8F9090917F
:103D70009191929293939494949595969697979700
:103D8000989899999A9A9A9B9B9C9C9D9D9D9E9E82
:103D90009F9FA0A0A0A1A1A25E5E5F5F5F60606127
:103DA00061616262636364646465656666676767D0
:103DB000686869696A6A6A6B6B6C6C6D6D6D6E6E52
:103DC0006F6F7070707171727273737374747575D4
:103DD000757676777778787879797A7A7B7B7B7C59
:103DE0007C7D7D7E7E7E7F7F8080818181828283DB
:103DF0008384848485858686878787888889898A5D
:103E00008A8A8B8B8C8C8C8D8D8E8E8F8F8F9090E1
:103E10009191929292939394949595959696979763
:103E200098989899999A9A9B9B9B9C9C9D9D9E9EE5
:103E30009E9F9FA0A0A0A1A15E5E5F5F6060616188
:103E40006162626363646464656566666667676829
:103E5000686969696A6A6B6B6C6C6C6D6D6E6E6EAD
:103E60006F6F707071717172727373747474757531
:103E7000767676777778787979797A7A7B7B7C7CB5
:103E80007C7D7D7E7E7E7F7F80808181818282833A
:103E900083838484858586868687878888898989BF
:103EA0008A8A8B8B8B8C8C8D8D8E8E8E8F8F909043
:103EB00091919192929393939494959596969697C7
:103EC0009798989999999A9A9B9B9B9C9C9D9D9E4B
:103ED0009E9E9F9FA0A0A1A15E5F5F6060606161E8
:103EE0006262636363646465656566666767686884
:103EF0006869696A6A6A6B6B6C6C6D6D6D6E6E6F0A
:103F00006F6F70707171727272737374747475758F
:103F1000767677777778787979797A7A7B7B7C7C13
:103F20007C7D7D7E7E7E7F7F808081818182828399
:103F3000838384848585868686878788888889891F
:103F40008A8A8B8B8B8C8C8D8D8D8E8E8F8F9090A3
:103F50009091919292929393949495959596969729
:103F60009797989899999A9A9A9B9B9C9C9C9D9DAF
:103F70009E9E9F9F9FA0A0A15F5F60606061616245
:103F800062626363646465656566666767676868DF
:103F90006969696A6A6B6B6C6C6C6D6D6E6E6E6F65
:103FA0006F707070717172727373737474757575EC
:103FB0007676777777787879797A7A7A7B7B7C7C72
:103FC0007C7D7D7E7E7E7F7F8080818181828283F9
:103FD0008383848485858586868787888888898980
:103FE0008A8A8A8B8B8C8C8C8D8D8E8E8F8F8F9006
:103FF000909191919292939393949495959696968D
:10400000979798989899999A9A9A9B9B9C9C9D9D12
:104010009D9E9E9F9F9FA0A05F60606061616262A5
:104020006263636464646565666666676768686939
:1040300069696A6A6B6B6B6C6C6D6D6D6E6E6F6FC0
:104040006F70707171717272737373747475757649
:104050007676777778787879797A7A7A7B7B7C7CD0
:104060007C7D7D7E7E7E7F7F808081818182828358
:1040700083838484858585868687878788888989E0
:10408000898A8A8B8B8C8C8C8D8D8E8E8E8F8F9067
:1040900090909191929292939394949495959696F0
:1040A00096979798989999999A9A9B9B9B9C9C9D77
:1040B0009D9D9E9E9F9F9FA05F6060616162626206
:1040C0006363646464656566666667676868686993
:1040D000696A6A6A6B6B6C6C6C6D6D6E6E6E6F6F1D
:1040E00070707071717272727373747474757576A6
:1040F0007676777778787879797A7A7A7B7B7C7C30
:104100007C7D7D7E7E7E7F7F8080818181828283B7
:10411000838384848585858686878787888889893F
:10412000898A8A8B8B8B8C8C8D8D8D8E8E8F8F8FC9
:104130009090919191929293939394949595959652
:104140009697979798989999999A9A9B9B9B9C9CDC
:104150009D9D9D9E9E9F9FA0606061616162626364
:1041600063636464656565666667676768686969EF
:10417000696A6A6B6B6B6C6C6D6D6D6E6E6F6F6F79
:104180007070717171727273737374747575757602
:104190007677777778787979797A7A7B7B7B7C7C8C
:1041A0007D7D7D7E7E7F7F7F808080818182828217
:1041B00083838484848585868686878788888889A2
:1041C000898A8A8A8B8B8C8C8C8D8D8E8E8E8F8F2C
:1041D00090909091919292929393949494959596B5
:1041E0009696979798989899999A9A9A9B9B9C9C3F
:1041F0009C9D9D9E9E9E9F9F6061616162626363C4
:10420000636464656565666666676768686869694A
:104210006A6A6A6B6B6C6C6C6D6D6E6E6E6F6F70D4
:104220007070717172727273737374747575757660
:104230007677777778787979797A7A7B7B7B7C7CEB
:104240007D7D7D7E7E7F7F7F808080818182828276
:104250008383848484858586868687878888888901
:10426000898A8A8A8B8B8C8C8C8D8D8D8E8E8F8F8C
:104270008F90909191919292939393949495959518
:10428000969697979798989999999A9A9A9B9B9CA2
:104290009C9C9D9D9E9E9E9F606161626262636325
:1042A00064646465656666666767686868696969A5
:1042B0006A6A6B6B6B6C6C6D6D6D6E6E6F6F6F7031
:1042C00070707171727272737374747475757676BE
:1042D0007677777878787979797A7A7B7B7B7C7C4A
:1042E0007D7D7D7E7E7F7F7F8080808181828282D6
:1042F0008383848484858586868687878788888962
:1043000089898A8A8B8B8B8C8C8D8D8D8E8E8F8FED
:104310008F9090909191929292939394949495957A
:1043200096969697979798989999999A9A9B9B9B06
:104330009C9C9D9D9D9E9E9F616162626263636481
:104340006464656565666667676768686969696A00
:104350006A6A6B6B6C6C6C6D6D6E6E6E6F6F6F708E
:10436000707171717272737373747475757576761A
:1043700076777778787879797A7A7A7B7B7B7C7CA8
:104380007D7D7D7E7E7F7F7F808080818182828235
:1043900083838484848585858686878787888889C2
:1043A00089898A8A8A8B8B8C8C8C8D8D8E8E8E8F50
:1043B0008F909090919191929293939394949595DC
:1043C00095969696979798989899999A9A9A9B9B6A
:1043D0009B9C9C9D9D9D9E9E6162626263636364E3
:1043E00064656565666666676768686869696A6A5C
:1043F0006A6B6B6B6C6C6D6D6D6E6E6F6F6F7070EA
:104400007071717272727373737474757575767678
:1044100077777778787879797A7A7A7B7B7B7C7C06
:104420007D7D7D7E7E7F7F7F808080818182828294
:104430008383848484858585868687878788888822
:1044400089898A8A8A8B8B8C8C8C8D8D8D8E8E8FB0
:104450008F8F90909091919292929393949494953F
:104460009595969697979798989999999A9A9A9BCD
:104470009B9C9C9C9D9D9D9E616262636363646442
:1044800064656566666667676768686969696A6AB8
:104490006B6B6B6C6C6C6D6D6E6E6E6F6F6F707046
:1044A00071717172727273737474747575757676D6
:1044B00077777778787979797A7A7A7B7B7C7C7C64
:1044C0007D7D7D7E7E7F7F7F8080808181828282F4
:1044D0008383838484858585868686878788888884
:1044E00089898A8A8A8B8B8B8C8C8D8D8D8E8E8E12
:1044F0008F8F9090909191919292939393949494A2
:10450000959596969697979898989999999A9A9B2F
:104510009B9B9C9C9C9D9D9E6262626363646464A1
:10452000656565666667676768686869696A6A6A13
:104530006B6B6B6C6C6D6D6D6E6E6E6F6F707070A3
:104540007171717272737373747474757576767633
:1045500077777778787979797A7A7A7B7B7C7C7CC3
:104560007D7D7D7E7E7F7F7F808080818182828253
:1045700083838384848585858686868787888888E3
:104580008989898A8A8B8B8B8C8C8C8D8D8E8E8E73
:104590008F8F8F9090919191929292939394949403
:1045A000959595969697979798989899999A9A9A93
:1045B0009B9B9B9C9C9D9D9D626263636464646500
:1045C000656566666667676868686969696A6A6B6F
:1045D0006B6B6C6C6C6D6D6E6E6E6F6F6F70707000
:1045E0007171727272737373747475757576767691
:1045F00077777878787979797A7A7A7B7B7C7C7C22
:104600007D7D7D7E7E7F7F7F8080808181828282B2
:104610008383838484858585868686878787888843
:104620008989898A8A8A8B8B8C8C8C8D8D8D8E8ED4
:104630008F8F8F9090909191919292939393949465
:1046400094959596969697979798989999999A9AF6
:104650009A9B9B9B9C9C9D9D626363636464656560
:104660006566666667676768686969696A6A6A6BCA
:104670006B6C6C6C6D6D6D6E6E6E6F6F707070715B
:1046800071717272727373747474757575767677EE
:1046900077777878787979797A7A7B7B7B7C7C7C80
:1046A0007D7D7D7E7E7F7F7F808080818182828212
:1046B00083838384848485858686868787878888A4
:1046C0008889898A8A8A8B8B8B8C8C8D8D8D8E8E36
:1046D0008E8F8F8F909091919192929293939394C9
:1046E0009495959596969697979898989999999A5A
:1046F0009A9A9B9B9C9C9C9D6363636464646565C0
:1047000066666667676768686869696A6A6A6B6B24
:104710006B6C6C6C6D6D6E6E6E6F6F6F70707071B8
:10472000717272727373737474747575767676774A
:10473000777778787879797A7A7A7B7B7B7C7C7CDE
:104740007D7D7E7E7E7F7F7F808080818181828271
:104750008383838484848585858686878787888804
:10476000888989898A8A8B8B8B8C8C8C8D8D8D8E98
:104770008E8F8F8F9090909191919292939393942A
:1047800094949595959696979797989898999999BE
:104790009A9A9B9B9B9C9C9C63636464646565651F
:1047A00066666667676868686969696A6A6A6B6B82
:1047B0006C6C6C6D6D6D6E6E6E6F6F6F7070717115
:1047C00071727272737373747475757576767677A9
:1047D000777778787879797A7A7A7B7B7B7C7C7C3E
:1047E0007D7D7E7E7E7F7F7F8080808181818282D1
:1047F0008383838484848585858686878787888864
:10480000888989898A8A8A8B8B8C8C8C8D8D8D8EF8
:104810008E8E8F8F9090909191919292929393938C
:10482000949495959596969697979798989999991F
:104830009A9A9A9B9B9B9C9C63646464656565667D
:10484000666667676768686969696A6A6A6B6B6BDD
:104850006C6C6C6D6D6E6E6E6F6F6F707070717171
:104860007172727273737474747575757676767707
:10487000777778787979797A7A7A7B7B7B7C7C7C9C
:104880007D7D7E7E7E7F7F7F808080818181828230
:1048900083838384848485858586868687878888C4
:1048A000888989898A8A8A8B8B8B8C8C8D8D8D8E59
:1048B0008E8E8F8F8F9090909191919292939393EF
:1048C0009494949595959696969797989898999983
:1048D000999A9A9A9B9B9B9C6364646465656666DF
:1048E000666767676868686969696A6A6A6B6B6C3A
:1048F0006C6C6D6D6D6E6E6E6F6F6F7070707171D0
:104900007272727373737474747575757676767764
:10491000777878787979797A7A7A7B7B7B7C7C7CFA
:104920007D7D7E7E7E7F7F7F80808081818182828F
:104930008383838484848585858686868787878824
:10494000888989898A8A8A8B8B8B8C8C8C8D8D8DBA
:104950008E8E8F8F8F90909091919192929293934F
:1049600093949495959596969697979798989899E5
:1049700099999A9A9B9B9B9C64646465656566663D
:104980006767676868686969696A6A6A6B6B6B6C94
:104990006C6C6D6D6D6E6E6F6F6F7070707171712C
:1049A00072727273737374747475757676767777C2
:1049B000777878787979797A7A7A7B7B7B7C7C7D59
:1049C0007D7D7E7E7E7F7F7F8080808181818282EF
:1049D0008283838484848585858686868787878885
:1049E00088888989898A8A8B8B8B8C8C8C8D8D8D1C
:1049F0008E8E8E8F8F8F90909091919292929393B2
:104A00009394949495959596969697979798989948
:104A100099999A9A9A9B9B9B64646565656666669C
:104A200067676768686869696A6A6A6B6B6B6C6CF0
:104A30006C6D6D6D6E6E6E6F6F6F70707071717189
:104A4000727273737374747475757576767677771E
:104A5000777878787979797A7A7A7B7B7C7C7C7DB7
:104A60007D7D7E7E7E7F7F7F80808081818182824E
:104A700082838383848485858586868687878788E5
:104A800088888989898A8A8A8B8B8B8C8C8C8D8D7E
:104A90008E8E8E8F8F8F9090909191919292929313
:104AA00093939494949595959696979797989898AC
:104AB0009999999A9A9A9B9B6465656566666667FB
:104AC00067676868686969696A6A6A6B6B6B6C6C4E
:104AD0006C6D6D6D6E6E6F6F6F70707071717172E5
:104AE000727273737374747475757576767677777E
:104AF000777878787979797A7A7B7B7B7C7C7C7D16
:104B00007D7D7E7E7E7F7F7F8080808181818282AD
:104B10008283838384848485858686868787878845
:104B200088888989898A8A8A8B8B8B8C8C8C8D8DDD
:104B30008D8E8E8E8F8F8F90909091919292929376
:104B4000939394949495959596969697979798980D
:104B5000989999999A9A9A9B64656565666667675C
:104B6000676868686969696A6A6A6B6B6B6C6C6CA8
:104B70006D6D6D6E6E6E6F6F6F7070707171717242
:104B800072727373737474747575757676767777DD
:104B90007878787979797A7A7A7B7B7B7C7C7C7D72
:104BA0007D7D7E7E7E7F7F7F80808081818182820D
:104BB00082838383848484858585868686878787A8
:104BC00088888989898A8A8A8B8B8B8C8C8C8D8D3D
:104BD0008D8E8E8E8F8F8F909090919191929292D8
:104BE0009393939494949595959696969797979872
:104BF000989899999A9A9A9B6565656666666767BB
:104C0000676868686969696A6A6A6B6B6B6C6C6C07
:104C10006D6D6D6E6E6E6F6F6F707071717172729F
:104C20007273737374747475757576767677777737
:104C30007878787979797A7A7A7B7B7B7C7C7C7DD1
:104C40007D7D7E7E7E7F7F7F80808081818182826C
:104C50008283838384848485858586868687878707
:104C60008888888989898A8A8A8B8B8B8C8C8C8DA1
:104C70008D8D8E8E8E8F8F90909091919192929239
:104C800093939394949495959596969697979798D1
:104C900098989999999A9A9A65656666666767671A
:104CA0006868686969696A6A6A6B6B6B6C6C6C6D61
:104CB0006D6D6E6E6E6F6F6F7070707171717272FC
:104CC0007273737374747475757576767677777797
:104CD0007878787979797A7A7A7B7B7B7C7C7C7D31
:104CE0007D7D7E7E7E7F7F7F8080808181818282CC
:104CF0008283838384848485858586868687878767
:104D00008888888989898A8A8A8B8B8B8C8C8C8D00
:104D10008D8D8E8E8E8F8F8F90909091919192929B
:104D20009293939394949495959596969697979736
:104D30009898989999999A9A656666666767676878
:104D40006868686969696A6A6A6B6B6B6C6C6C6DC0
:104D50006D6D6E6E6E6F6F6F70707071717172725B
:104D600072737373747474757575767676777777F6
:104D70007878787979797A7A7A7B7B7B7C7C7C7D90
:104D80007D7D7E7E7E7F7F7F80808081818182822B
:104D900082838383848484858585868686878787C6
:104DA0008888888989898A8A8A8B8B8B8C8C8C8D60
:104DB0008D8D8E8E8E8F8F8F9090909191919292FB
:104DC0009293939394949495959596969697979796
:104DD000979898989999999A6566666667676768DB
:104DE00068686969696A6A6A6B6B6B6C6C6C6D6D1B
:104DF0006D6E6E6E6F6F6F707070717171727272B6
:104E00007373737474747575757576767677777752
:104E10007878787979797A7A7A7B7B7B7C7C7C7DEF
:104E20007D7D7E7E7E7F7F7F80808081818182828A
:104E30008283838384848485858586868687878725
:104E40008888888989898A8A8A8A8B8B8B8C8C8CC2
:104E50008D8D8D8E8E8E8F8F8F909090919191925F
:104E600092929393939494949595959696969797FA
:104E7000979898989999999A666666676767686837
:104E8000686969696A6A6A6B6B6B6C6C6C6C6D6D76
:104E90006D6E6E6E6F6F6F70707071717172727215
:104EA00073737374747475757576767677777778AF
:104EB0007878797979797A7A7A7B7B7B7C7C7C7D4E
:104EC0007D7D7E7E7E7F7F7F8080808181818282EA
:104ED0008283838384848485858586868686878786
:104EE000878888888989898A8A8A8B8B8B8C8C8C25
:104EF0008D8D8D8E8E8E8F8F8F90909091919192BF
:104F0000929293939393949494959595969696975D
:104F100097979898989999990000000000000000D0
:104F20000000000000000000000000000000000081
:104F30000000000000000000000000000000000071
:104F40000000000000000000000000000000000061
:104F50000000000000000000000000000000000051
:105230000000000000000000FFFFFFFFFFFFFFFF76
:10524000FFFFFFFFFFFFFFFFFFFFFFFFFFFFFFFF6E
:10525000FFFFFFFFFFFFFFFFFFFFFFFFFFFFFFFF5E
:10526000FFFFFFFFFFFFFFFFFFFFFFFFFFFFFFFF4E
:10527000FFFFFFFFFFFFFFFFFFFFFFFFFFFFFFFF3E
:105B9000FFFFFFFFFFFFFFFFF9F9F9F9F9F9F9F945
:105BA000F9F9F9F9F9F9F9F9F9F9F9F9F9F9F9F965
:105BB000F9F9F9F9F9F9F9F9F9F9F9F9F9F9F9F955
:105BC000F9F9F9F9F9F9F9F9F9F9F9F9F9F9F9F945
:105BD000F9F9F9F9F9F9F9F9F9F9F9F9F9F9F9F935
:105BE000F9F9F9F9F9F9F9F9F9F9F9F9F9F9F9F925
:105BF000F9F9F9F9F9F9F9F9F9F9F9F9F9F9F9F915
:105C0000F9F9F9F9F9F9F9F9F9F9F9F9F9F9F9F904
:105C1000F9F9F9F9F9F9F9F9F9F9F9F9F9F9F9F9F4
:105C2000F9F9F9F9F9F9F9F9F9F9F9F9F9F9F9F9E4
:105C3000F9F9F9F9F9F9F9F9E7E7E7E7E7E7E7E764
:105C4000E7E7E7E7E7E7E7E7E7E7E7E7E7E7E7E7E4
:105C5000E7E7E7E7E7E7E7E7E7E7E7E7E7E7E7E7D4
:105C6000E7E7E7E7E7E7E7E7E7E7E7E7E7E7E7E7C4
:105C7000E7E7E7E7E7E7E7E7E7E7E7E7E7E7E7E7B4
:105C8000E7E7E7E7E7E7E7E7E7E7E7E7E7E7E7E7A4
:105C9000E7E7E7E7E7E7E7E7E7E7E7E7E7E7E7E794
:105CA000E7E7E7E7E7E7E7E7E7E7E7E7E7E7E7E784
:105CB000E7E7E7E7E7E7E7E7E7E7E7E7E7E7E7E774
:105CC000E7E7E7E7E7E7E7E7E7E7E7E7E7E7E7E764
:105CD000E7E7E7E7E7E7E7E7D7D7D7D7D7D7D7D7D4
:105CE000D7D7D7D7D7D7D7D7D7D7D7D7D7D7D7D744
:105CF000D7D7D7D7D7D7D7D7D7D7D7D7D7D7D7D734
:105D0000D7D7D7D7D7D7D7D7D7D7D7D7D7D7D7D723
:105D1000D7D7D7D7D7D7D7D7D7D7D7D7D7D7D7D713
:105D2000D7D7D7D7D7D7D7D7D7D7D7D7D7D7D7D703
:105D3000D7D7D7D7D7D7D7D7D7D7D7D7D7D7D7D7F3
:105D4000D7D7D7D7D7D7D7D7D7D7D7D7D7D7D7D7E3
:105D5000D7D7D7D7D7D7D7D7D7D7D7D7D7D7D7D7D3
:105D6000D7D7D7D7D7D7D7D7D7D7D7D7D7D7D7D7C3
:105D7000D7D7D7D7D7D7D7D7CACACACACACACACA1B
:105D8000CACACACACACACACACACACACACACACACA73
:105D9000CACACACACACACACACACACACACACACACA63
:105DA000CACACACACACACACACACACACACACACACA53
:105DB000CACACACACACACACACACACACACACACACA43
:105DC000CACACACACACACACACACACACACACACACA33
:105DD000CACACACACACACACACACACACACACACACA23
:105DE000CACACACACACACACACACACACACACACACA13
:105DF000CACACACACACACACACACACACACACACACA03
:105E0000CACACACACACACACACACACACACACACACAF2
:105E1000CACACACACACACACABDBDBDBDBDBDBDBD4A
:105E2000BDBDBDBDBDBDBDBDBDBDBDBDBDBDBDBDA2
:105E3000BDBDBDBDBDBDBDBDBDBDBDBDBDBDBDBD92
:105E4000BDBDBDBDBDBDBDBDBDBDBDBDBDBDBDBD82
:105E5000BDBDBDBDBDBDBDBDBDBDBDBDBDBDBDBD72
:105E6000BDBDBDBDBDBDBDBDBDBDBDBDBDBDBDBD62
:105E7000BDBDBDBDBDBDBDBDBDBDBDBDBDBDBDBD52
:105E8000BDBDBDBDBDBDBDBDBDBDBDBDBDBDBDBD42
:105E9000BDBDBDBDBDBDBDBDBDBDBDBDBDBDBDBD32
:105EA000BDBDBDBDBDBDBDBDBDBDBDBDBDBDBDBD22
:105EB000BDBDBDBDBDBDBDBDB2B2B2B2B2B2B2B26A
:105EC000B2B2B2B2B2B2B2B2B2B2B2B2B2B2B2B2B2
:105ED000B2B2B2B2B2B2B2B2B2B2B2B2B2B2B2B2A2
:105EE000B2B2B2B2B2B2B2B2B2B2B2B2B2B2B2B292
:105EF000B2B2B2B2B2B2B2B2B2B2B2B2B2B2B2B282
:105F0000B2B2B2B2B2B2B2B2B2B2B2B2B2B2B2B271
:105F1000B2B2B2B2B2B2B2B2B2B2B2B2B2B2B2B261
:105F2000B2B2B2B2B2B2B2B2B2B2B2B2B2B2B2B251
:105F3000B2B2B2B2B2B2B2B2B2B2B2B2B2B2B2B241
:105F4000B2B2B2B2B2B2B2B2B2B2B2B2B2B2B2B231
:105F5000B2B2B2B2B2B2B2B2A8A8A8A8A8A8A8A871
:105F6000A8A8A8A8A8A8A8A8A8A8A8A8A8A8A8A8B1
:105F7000A8A8A8A8A8A8A8A8A8A8A8A8A8A8A8A8A1
:105F8000A8A8A8A8A8A8A8A8A8A8A8A8A8A8A8A891
:105F9000A8A8A8A8A8A8A8A8A8A8A8A8A8A8A8A881
:105FA000A8A8A8A8A8A8A8A8A8A8A8A8A8A8A8A871
:105FB000A8A8A8A8A8A8A8A8A8A8A8A8A8A8A8A861
:105FC000A8A8A8A8A8A8A8A8A8A8A8A8A8A8A8A851
:105FD000A8A8A8A8A8A8A8A8A8A8A8A8A8A8A8A841
:105FE000A8A8A8A8A8A8A8A8A8A8A8A8A8A8A8A831
:105FF000A8A8A8A8A8A8A8A89E9E9E9E9E9E9E9E71
:106000009E9E9E9E9E9E9E9E9E9E9E9E9E9E9E9EB0
:106010009E9E9E9E9E9E9E9E9E9E9E9E9E9E9E9EA0
:106020009E9E9E9E9E9E9E9E9E9E9E9E9E9E9E9E90
:106030009E9E9E9E9E9E9E9E9E9E9E9E9E9E9E9E80
:106040009E9E9E9E9E9E9E9E9E9E9E9E9E9E9E9E70
:106050009E9E9E9E9E9E9E9E9E9E9E9E9E9E9E9E60
:106060009E9E9E9E9E9E9E9E9E9E9E9E9E9E9E9E50
:106070009E9E9E9E9E9E9E9E9E9E9E9E9E9E9E9E40
:106080009E9E9E9E9E9E9E9E9E9E9E9E9E9E9E9E30
:106090009E9E9E9E9E9E9E9E969696969696969660
:1060A0009696969696969696969696969696969690
:1060B0009696969696969696969696969696969680
:1060C0009696969696969696969696969696969670
:1060D0009696969696969696969696969696969660
:1060E0009696969696969696969696969696969650
:1060F0009696969696969696969696969696969640
:10610000969696969696969696969696969696962F
:10611000969696969696969696969696969696961F
:10612000969696969696969696969696969696960F
:1061300096969696969696968E8E8E8E8E8E8E8E3F
:106140008E8E8E8E8E8E8E8E8E8E8E8E8E8E8E8E6F
:106150008E8E8E8E8E8E8E8E8E8E8E8E8E8E8E8E5F
:106160008E8E8E8E8E8E8E8E8E8E8E8E8E8E8E8E4F
:106170008E8E8E8E8E8E8E8E8E8E8E8E8E8E8E8E3F
:106180008E8E8E8E8E8E8E8E8E8E8E8E8E8E8E8E2F
:106190008E8E8E8E8E8E8E8E8E8E8E8E8E8E8E8E1F
:1061A0008E8E8E8E8E8E8E8E8E8E8E8E8E8E8E8E0F
:1061B0008E8E8E8E8E8E8E8E8E8E8E8E8E8E8E8EFF
:1061C0008E8E8E8E8E8E8E8E8E8E8E8E8E8E8E8EEF
:1061D0008E8E8E8E8E8E8E8E878787878787878717
:1061E000878787878787878787878787878787873F
:1061F000878787878787878787878787878787872F
:10620000878787878787878787878787878787871E
:10621000878787878787878787878787878787870E
:1062200087878787878787878787878787878787FE
:1062300087878787878787878787878787878787EE
:1062400087878787878787878787878787878787DE
:1062500087878787878787878787878787878787CE
:1062600087878787878787878787878787878787BE
:1062700087878787878787878080808080808080E6
:10628000808080808080808080808080808080800E
:1062900080808080808080808080808080808080FE
:1062A00080808080808080808080808080808080EE
:1062B00080808080808080808080808080808080DE
:1062C00080808080808080808080808080808080CE
:1062D00080808080808080808080808080808080BE
:1062E00080808080808080808080808080808080AE
:1062F000808080808080808080808080808080809E
:10630000808080808080808080808080808080808D
:1063100080808080808080807A7A7A7A7A7A7A7AAD
:106320007A7A7A7A7A7A7A7A7A7A7A7A7A7A7A7ACD
:106330007A7A7A7A7A7A7A7A7A7A7A7A7A7A7A7ABD
:106340007A7A7A7A7A7A7A7A7A7A7A7A7A7A7A7AAD
:106350007A7A7A7A7A7A7A7A7A7A7A7A7A7A7A7A9D
:106360007A7A7A7A7A7A7A7A7A7A7A7A7A7A7A7A8D
:106370007A7A7A7A7A7A7A7A7A7A7A7A7A7A7A7A7D
:106380007A7A7A7A7A7A7A7A7A7A7A7A7A7A7A7A6D
:106390007A7A7A7A7A7A7A7A7A7A7A7A7A7A7A7A5D
:1063A0007A7A7A7A7A7A7A7A7A7A7A7A7A7A7A7A4D
:1063B0007A7A7A7A7A7A7A7A74747474747474746D
:1063C000747474747474747474747474747474748D
:1063D000747474747474747474747474747474747D
:1063E000747474747474747474747474747474746D
:1063F000747474747474747474747474747474745D
:10640000747474747474747474747474747474744C
:10641000747474747474747474747474747474743C
:10642000747474747474747474747474747474742C
:10643000747474747474747474747474747474741C
:10644000747474747474747474747474747474740C
:1064500074747474747474746F6F6F6F6F6F6F6F24
:106460006F6F6F6F6F6F6F6F6F6F6F6F6F6F6F6F3C
:106470006F6F6F6F6F6F6F6F6F6F6F6F6F6F6F6F2C
:106480006F6F6F6F6F6F6F6F6F6F6F6F6F6F6F6F1C
:106490006F6F6F6F6F6F6F6F6F6F6F6F6F6F6F6F0C
:1064A0006F6F6F6F6F6F6F6F6F6F6F6F6F6F6F6FFC
:1064B0006F6F6F6F6F6F6F6F6F6F6F6F6F6F6F6FEC
:1064C0006F6F6F6F6F6F6F6F6F6F6F6F6F6F6F6FDC
:1064D0006F6F6F6F6F6F6F6F6F6F6F6F6F6F6F6FCC
:1064E0006F6F6F6F6F6F6F6F6F6F6F6F6F6F6F6FBC
:1064F0006F6F6F6F6F6F6F6F6A6A6A6A6A6A6A6AD4
:106500006A6A6A6A6A6A6A6A6A6A6A6A6A6A6A6AEB
:106510006A6A6A6A6A6A6A6A6A6A6A6A6A6A6A6ADB
:106520006A6A6A6A6A6A6A6A6A6A6A6A6A6A6A6ACB
:106530006A6A6A6A6A6A6A6A6A6A6A6A6A6A6A6ABB
:106540006A6A6A6A6A6A6A6A6A6A6A6A6A6A6A6AAB
:106550006A6A6A6A6A6A6A6A6A6A6A6A6A6A6A6A9B
:106560006A6A6A6A6A6A6A6A6A6A6A6A6A6A6A6A8B
:106570006A6A6A6A6A6A6A6A6A6A6A6A6A6A6A6A7B
:106580006A6A6A6A6A6A6A6A6A6A6A6A6A6A6A6A6B
:106590006A6A6A6A6A6A6A6A656565656565656583
:1065A000656565656565656565656565656565659B
:1065B000656565656565656565656565656565658B
:1065C000656565656565656565656565656565657B
:1065D000656565656565656565656565656565656B
:1065E000656565656565656565656565656565655B
:1065F000656565656565656565656565656565654B
:10660000656565656565656565656565656565653A
:10661000656565656565656565656565656565652A
:10662000656565656565656565656565656565651A
:10663000656565656565656561616161616161612A
:10664000616161616161616161616161616161613A
:10665000616161616161616161616161616161612A
:10666000616161616161616161616161616161611A
:10667000616161616161616161616161616161610A
:1066800061616161616161616161616161616161FA
:1066900061616161616161616161616161616161EA
:1066A00061616161616161616161616161616161DA
:1066B00061616161616161616161616161616161CA
:1066C00061616161616161616161616161616161BA
:1066D00061616161616161615D5D5D5D5D5D5D5DCA
:1066E0005D5D5D5D5D5D5D5D5D5D5D5D5D5D5D5DDA
:1066F0005D5D5D5D5D5D5D5D5D5D5D5D5D5D5D5DCA
:106700005D5D5D5D5D5D5D5D5D5D5D5D5D5D5D5DB9
:106710005D5D5D5D5D5D5D5D5D5D5D5D5D5D5D5DA9
:106720005D5D5D5D5D5D5D5D5D5D5D5D5D5D5D5D99
:106730005D5D5D5D5D5D5D5D5D5D5D5D5D5D5D5D89
:106740005D5D5D5D5D5D5D5D5D5D5D5D5D5D5D5D79
:106750005D5D5D5D5D5D5D5D5D5D5D5D5D5D5D5D69
:106760005D5D5D5D5D5D5D5D5D5D5D5D5D5D5D5D59
:106770005D5D5D5D5D5D5D5D595959595959595969
:106780005959595959595959595959595959595979
:106790005959595959595959595959595959595969
:1067A0005959595959595959595959595959595959
:1067B0005959595959595959595959595959595949
:1067C0005959595959595959595959595959595939
:1067D0005959595959595959595959595959595929
:1067E0005959595959595959595959595959595919
:1067F0005959595959595959595959595959595909
:1068000059595959595959595959595959595959F8
:106810005959595959595959555555555555555508
:106820005555555555555555555555555555555518
:106830005555555555555555555555555555555508
:1068400055555555555555555555555555555555F8
:1068500055555555555555555555555555555555E8
:1068600055555555555555555555555555555555D8
:1068700055555555555555555555555555555555C8
:1068800055555555555555555555555555555555B8
:1068900055555555555555555555555555555555A8
:1068A0005555555555555555555555555555555598
:1068B00055555555555555555252525252525252A0
:1068C00052525252525252525252525252525252A8
:1068D0005252525252525252525252525252525298
:1068E0005252525252525252525252525252525288
:1068F0005252525252525252525252525252525278
:106900005252525252525252525252525252525267
:106910005252525252525252525252525252525257
:106920005252525252525252525252525252525247
:106930005252525252525252525252525252525237
:106940005252525252525252525252525252525227
:1069500052525252525252524F4F4F4F4F4F4F4F2F
:106960004F4F4F4F4F4F4F4F4F4F4F4F4F4F4F4F37
:106970004F4F4F4F4F4F4F4F4F4F4F4F4F4F4F4F27
:106980004F4F4F4F4F4F4F4F4F4F4F4F4F4F4F4F17
:106990004F4F4F4F4F4F4F4F4F4F4F4F4F4F4F4F07
:1069A0004F4F4F4F4F4F4F4F4F4F4F4F4F4F4F4FF7
:1069B0004F4F4F4F4F4F4F4F4F4F4F4F4F4F4F4FE7
:1069C0004F4F4F4F4F4F4F4F4F4F4F4F4F4F4F4FD7
:1069D0004F4F4F4F4F4F4F4F4F4F4F4F4F4F4F4FC7
:1069E0004F4F4F4F4F4F4F4F4F4F4F4F4F4F4F4FB7
:1069F0004F4F4F4F4F4F4F4F4B4B4B4B4B4B4B4BC7
:106A00004B4B4B4B4B4B4B4B4B4B4B4B4B4B4B4BD6
:106A10004B4B4B4B4B4B4B4B4B4B4B4B4B4B4B4BC6
:106A20004B4B4B4B4B4B4B4B4B4B4B4B4B4B4B4BB6
:106A30004B4B4B4B4B4B4B4B4B4B4B4B4B4B4B4BA6
:106A40004B4B4B4B4B4B4B4B4B4B4B4B4B4B4B4B96
:106A50004B4B4B4B4B4B4B4B4B4B4B4B4B4B4B4B86
:106A60004B4B4B4B4B4B4B4B4B4B4B4B4B4B4B4B76
:106A70004B4B4B4B4B4B4B4B4B4B4B4B4B4B4B4B66
:106A80004B4B4B4B4B4B4B4B4B4B4B4B4B4B4B4B56
:106A90004B4B4B4B4B4B4B4B48484848484848485E
:106AA0004848484848484848484848484848484866
:106AB0004848484848484848484848484848484856
:106AC0004848484848484848484848484848484846
:106AD0004848484848484848484848484848484836
:106AE0004848484848484848484848484848484826
:106AF0004848484848484848484848484848484816
:106B00004848484848484848484848484848484805
:106B100048484848484848484848484848484848F5
:106B200048484848484848484848484848484848E5
:106B300048484848484848484646464646464646E5
:106B400046464646464646464646464646464646E5
:106B500046464646464646464646464646464646D5
:106B600046464646464646464646464646464646C5
:106B700046464646464646464646464646464646B5
:106B800046464646464646464646464646464646A5
:106B90004646464646464646464646464646464695
:106BA0004646464646464646464646464646464685
:106BB0004646464646464646464646464646464675
:106BC0004646464646464646464646464646464665
:106BD000464646464646464643434343434343436D
:106BE0004343434343434343434343434343434375
:106BF0004343434343434343434343434343434365
:106C00004343434343434343434343434343434354
:106C10004343434343434343434343434343434344
:106C20004343434343434343434343434343434334
:106C30004343434343434343434343434343434324
:106C40004343434343434343434343434343434314
:106C50004343434343434343434343434343434304
:106C600043434343434343434343434343434343F4
:106C700043434343434343434040404040404040FC
:106C80004040404040404040404040404040404004
:106C900040404040404040404040404040404040F4
:106CA00040404040404040404040404040404040E4
:106CB00040404040404040404040404040404040D4
:106CC00040404040404040404040404040404040C4
:106CD00040404040404040404040404040404040B4
:106CE00040404040404040404040404040404040A4
:106CF0004040404040404040404040404040404094
:106D00004040404040404040404040404040404083
:106D100040404040404040403E3E3E3E3E3E3E3E83
:106D20003E3E3E3E3E3E3E3E3E3E3E3E3E3E3E3E83
:106D30003E3E3E3E3E3E3E3E3E3E3E3E3E3E3E3E73
:106D40003E3E3E3E3E3E3E3E3E3E3E3E3E3E3E3E63
:106D50003E3E3E3E3E3E3E3E3E3E3E3E3E3E3E3E53
:106D60003E3E3E3E3E3E3E3E3E3E3E3E3E3E3E3E43
:106D70003E3E3E3E3E3E3E3E3E3E3E3E3E3E3E3E33
:106D80003E3E3E3E3E3E3E3E3E3E3E3E3E3E3E3E23
:106D90003E3E3E3E3E3E3E3E3E3E3E3E3E3E3E3E13
:106DA0003E3E3E3E3E3E3E3E3E3E3E3E3E3E3E3E03
:106DB0003E3E3E3E3E3E3E3E3C3C3C3C3C3C3C3C03
:106DC0003C3C3C3C3C3C3C3C3C3C3C3C3C3C3C3C03
:106DD0003C3C3C3C3C3C3C3C3C3C3C3C3C3C3C3CF3
:106DE0003C3C3C3C3C3C3C3C3C3C3C3C3C3C3C3CE3
:106DF0003C3C3C3C3C3C3C3C3C3C3C3C3C3C3C3CD3
:106E00003C3C3C3C3C3C3C3C3C3C3C3C3C3C3C3CC2
:106E10003C3C3C3C3C3C3C3C3C3C3C3C3C3C3C3CB2
:106E20003C3C3C3C3C3C3C3C3C3C3C3C3C3C3C3CA2
:106E30003C3C3C3C3C3C3C3C3C3C3C3C3C3C3C3C92
:106E40003C3C3C3C3C3C3C3C3C3C3C3C3C3C3C3C82
:106E50003C3C3C3C3C3C3C3C3A3A3A3A3A3A3A3A82
:106E60003A3A3A3A3A3A3A3A3A3A3A3A3A3A3A3A82
:106E70003A3A3A3A3A3A3A3A3A3A3A3A3A3A3A3A72
:106E80003A3A3A3A3A3A3A3A3A3A3A3A3A3A3A3A62
:106E90003A3A3A3A3A3A3A3A3A3A3A3A3A3A3A3A52
:106EA0003A3A3A3A3A3A3A3A3A3A3A3A3A3A3A3A42
:106EB0003A3A3A3A3A3A3A3A3A3A3A3A3A3A3A3A32
:106EC0003A3A3A3A3A3A3A3A3A3A3A3A3A3A3A3A22
:106ED0003A3A3A3A3A3A3A3A3A3A3A3A3A3A3A3A12
:106EE0003A3A3A3A3A3A3A3A3A3A3A3A3A3A3A3A02
:106EF0003A3A3A3A3A3A3A3A37373737373737370A
:106F00003737373737373737373737373737373711
:106F10003737373737373737373737373737373701
:106F200037373737373737373737373737373737F1
:106F300037373737373737373737373737373737E1
:106F400037373737373737373737373737373737D1
:106F500037373737373737373737373737373737C1
:106F600037373737373737373737373737373737B1
:106F700037373737373737373737373737373737A1
:106F80003737373737373737373737373737373791
:106F90003737373737373737353535353535353591
:106FA0003535353535353535353535353535353591
:106FB0003535353535353535353535353535353581
:106FC0003535353535353535353535353535353571
:106FD0003535353535353535353535353535353561
:106FE0003535353535353535353535353535353551
:106FF0003535353535353535353535353535353541
:107000003535353535353535353535353535353530
:107010003535353535353535353535353535353520
:107020003535353535353535353535353535353510
:107030003535353535353535343434343434343408
:107040003434343434343434343434343434343400
:1070500034343434343434343434343434343434F0
:1070600034343434343434343434343434343434E0
:1070700034343434343434343434343434343434D0
:1070800034343434343434343434343434343434C0
:1070900034343434343434343434343434343434B0
:1070A00034343434343434343434343434343434A0
:1070B0003434343434343434343434343434343490
:1070C0003434343434343434343434343434343480
:1070D0003434343434343434323232323232323280
:1070E0003232323232323232323232323232323280
:1070F0003232323232323232323232323232323270
:10710000323232323232323232323232323232325F
:10711000323232323232323232323232323232324F
:10712000323232323232323232323232323232323F
:10713000323232323232323232323232323232322F
:10714000323232323232323232323232323232321F
:10715000323232323232323232323232323232320F
:1071600032323232323232323232323232323232FF
:1071700032323232323232323030303030303030FF
:1071800030303030303030303030303030303030FF
:1071900030303030303030303030303030303030EF
:1071A00030303030303030303030303030303030DF
:1071B00030303030303030303030303030303030CF
:1071C00030303030303030303030303030303030BF
:1071D00030303030303030303030303030303030AF
:1071E000303030303030303030303030303030309F
:1071F000303030303030303030303030303030308F
:10720000303030303030303030303030303030307E
:1072100030303030303030302E2E2E2E2E2E2E2E7E
:107220002E2E2E2E2E2E2E2E2E2E2E2E2E2E2E2E7E
:107230002E2E2E2E2E2E2E2E2E2E2E2E2E2E2E2E6E
:107240002E2E2E2E2E2E2E2E2E2E2E2E2E2E2E2E5E
:107250002E2E2E2E2E2E2E2E2E2E2E2E2E2E2E2E4E
:107260002E2E2E2E2E2E2E2E2E2E2E2E2E2E2E2E3E
:107270002E2E2E2E2E2E2E2E2E2E2E2E2E2E2E2E2E
:107280002E2E2E2E2E2E2E2E2E2E2E2E2E2E2E2E1E
:107290002E2E2E2E2E2E2E2E2E2E2E2E2E2E2E2E0E
:1072A0002E2E2E2E2E2E2E2E2E2E2E2E2E2E2E2EFE
:1072B0002E2E2E2E2E2E2E2E2C2C2C2C2C2C2C2CFE
:1072C0002C2C2C2C2C2C2C2C2C2C2C2C2C2C2C2CFE
:1072D0002C2C2C2C2C2C2C2C2C2C2C2C2C2C2C2CEE
:1072E0002C2C2C2C2C2C2C2C2C2C2C2C2C2C2C2CDE
:1072F0002C2C2C2C2C2C2C2C2C2C2C2C2C2C2C2CCE
:107300002C2C2C2C2C2C2C2C2C2C2C2C2C2C2C2CBD
:107310002C2C2C2C2C2C2C2C2C2C2C2C2C2C2C2CAD
:107320002C2C2C2C2C2C2C2C2C2C2C2C2C2C2C2C9D
:107330002C2C2C2C2C2C2C2C2C2C2C2C2C2C2C2C8D
:107340002C2C2C2C2C2C2C2C2C2C2C2C2C2C2C2C7D
:107350002C2C2C2C2C2C2C2C2B2B2B2B2B2B2B2B75
:107360002B2B2B2B2B2B2B2B2B2B2B2B2B2B2B2B6D
:107370002B2B2B2B2B2B2B2B2B2B2B2B2B2B2B2B5D
:107380002B2B2B2B2B2B2B2B2B2B2B2B2B2B2B2B4D
:107390002B2B2B2B2B2B2B2B2B2B2B2B2B2B2B2B3D
:1073A0002B2B2B2B2B2B2B2B2B2B2B2B2B2B2B2B2D
:1073B0002B2B2B2B2B2B2B2B2B2B2B2B2B2B2B2B1D
:1073C0002B2B2B2B2B2B2B2B2B2B2B2B2B2B2B2B0D
:1073D0002B2B2B2B2B2B2B2B2B2B2B2B2B2B2B2BFD
:1073E0002B2B2B2B2B2B2B2B2B2B2B2B2B2B2B2BED
:1073F0002B2B2B2B2B2B2B2B2929292929292929ED
:1074000029292929292929292929292929292929EC
:1074100029292929292929292929292929292929DC
:1074200029292929292929292929292929292929CC
:1074300029292929292929292929292929292929BC
:1074400029292929292929292929292929292929AC
:10745000292929292929292929292929292929299C
:10746000292929292929292929292929292929298C
:10747000292929292929292929292929292929297C
:10748000292929292929292929292929292929296C
:107490002929292929292929282828282828282864
:1074A000282828282828282828282828282828285C
:1074B000282828282828282828282828282828284C
:1074C000282828282828282828282828282828283C
:1074D000282828282828282828282828282828282C
:1074E000282828282828282828282828282828281C
:1074F000282828282828282828282828282828280C
:1075000028282828282828282828282828282828FB
:1075100028282828282828282828282828282828EB
:1075200028282828282828282828282828282828DB
:1075300028282828282828282626262626262626DB
:1075400026262626262626262626262626262626DB
:1075500026262626262626262626262626262626CB
:1075600026262626262626262626262626262626BB
:1075700026262626262626262626262626262626AB
:10758000262626262626262626262626262626269B
:10759000262626262626262626262626262626268B
:1075A000262626262626262626262626262626267B
:1075B000262626262626262626262626262626266B
:1075C000262626262626262626262626262626265B
:1075D0002626262626262626252525252525252553
:1075E000252525252525252525252525252525254B
:1075F000252525252525252525252525252525253B
:10760000252525252525252525252525252525252A
:10761000252525252525252525252525252525251A
:10762000252525252525252525252525252525250A
:1076300025252525252525252525252525252525FA
:1076400025252525252525252525252525252525EA
:1076500025252525252525252525252525252525DA
:1076600025252525252525252525252525252525CA
:1076700025252525252525252424242424242424C2
:1076800024242424242424242424242424242424BA
:1076900024242424242424242424242424242424AA
:1076A000242424242424242424242424242424249A
:1076B000242424242424242424242424242424248A
:1076C000242424242424242424242424242424247A
:1076D000242424242424242424242424242424246A
:1076E000242424242424242424242424242424245A
:1076F000242424242424242424242424242424244A
:107700002424242424242424242424242424242439
:107710002424242424242424232323232323232331
:107720002323232323232323232323232323232329
:107730002323232323232323232323232323232319
:107740002323232323232323232323232323232309
:1077500023232323232323232323232323232323F9
:1077600023232323232323232323232323232323E9
:1077700023232323232323232323232323232323D9
:1077800023232323232323232323232323232323C9
:1077900023232323232323232323232323232323B9
:1077A00023232323232323232323232323232323A9
:1077B00023232323232323232121212121212121A9
:1077C00021212121212121212121212121212121A9
:1077D0002121212121212121212121212121212199
:1077E0002121212121212121212121212121212189
:1077F0002121212121212121212121212121212179
:107800002121212121212121212121212121212168
:107810002121212121212121212121212121212158
:107820002121212121212121212121212121212148
:107830002121212121212121212121212121212138
:107840002121212121212121212121212121212128
:107850002121212121212121202020202020202020
:107860002020202020202020202020202020202018
:107870002020202020202020202020202020202008
:1078800020202020202020202020202020202020F8
:1078900020202020202020202020202020202020E8
:1078A00020202020202020202020202020202020D8
:1078B00020202020202020202020202020202020C8
:1078C00020202020202020202020202020202020B8
:1078D00020202020202020202020202020202020A8
:1078E0002020202020202020202020202020202098
:1078F00020202020202020201F1F1F1F1F1F1F1F90
:107900001F1F1F1F1F1F1F1F1F1F1F1F1F1F1F1F87
:107910001F1F1F1F1F1F1F1F1F1F1F1F1F1F1F1F77
:107920001F1F1F1F1F1F1F1F1F1F1F1F1F1F1F1F67
:107930001F1F1F1F1F1F1F1F1F1F1F1F1F1F1F1F57
:107940001F1F1F1F1F1F1F1F1F1F1F1F1F1F1F1F47
:107950001F1F1F1F1F1F1F1F1F1F1F1F1F1F1F1F37
:107960001F1F1F1F1F1F1F1F1F1F1F1F1F1F1F1F27
:107970001F1F1F1F1F1F1F1F1F1F1F1F1F1F1F1F17
:107980001F1F1F1F1F1F1F1F1F1F1F1F1F1F1F1F07
:107990001F1F1F1F1F1F1F1F1E1E1E1E1E1E1E1EFF
:1079A0001E1E1E1E1E1E1E1E1E1E1E1E1E1E1E1EF7
:1079B0001E1E1E1E1E1E1E1E1E1E1E1E1E1E1E1EE7
:1079C0001E1E1E1E1E1E1E1E1E1E1E1E1E1E1E1ED7
:1079D0001E1E1E1E1E1E1E1E1E1E1E1E1E1E1E1EC7
:1079E0001E1E1E1E1E1E1E1E1E1E1E1E1E1E1E1EB7
:1079F0001E1E1E1E1E1E1E1E1E1E1E1E1E1E1E1EA7
:107A00001E1E1E1E1E1E1E1E1E1E1E1E1E1E1E1E96
:107A10001E1E1E1E1E1E1E1E1E1E1E1E1E1E1E1E86
:107A20001E1E1E1E1E1E1E1E1E1E1E1E1E1E1E1E76
:107A30001E1E1E1E1E1E1E1E1D1D1D1D1D1D1D1D6E
:107A40001D1D1D1D1D1D1D1D1D1D1D1D1D1D1D1D66
:107A50001D1D1D1D1D1D1D1D1D1D1D1D1D1D1D1D56
:107A60001D1D1D1D1D1D1D1D1D1D1D1D1D1D1D1D46
:107A70001D1D1D1D1D1D1D1D1D1D1D1D1D1D1D1D36
:107A80001D1D1D1D1D1D1D1D1D1D1D1D1D1D1D1D26
:107A90001D1D1D1D1D1D1D1D1D1D1D1D1D1D1D1D16
:107AA0001D1D1D1D1D1D1D1D1D1D1D1D1D1D1D1D06
:107AB0001D1D1D1D1D1D1D1D1D1D1D1D1D1D1D1DF6
:107AC0001D1D1D1D1D1D1D1D1D1D1D1D1D1D1D1DE6
:107AD0001D1D1D1D1D1D1D1D1C1C1C1C1C1C1C1CDE
:107AE0001C1C1C1C1C1C1C1C1C1C1C1C1C1C1C1CD6
:107AF0001C1C1C1C1C1C1C1C1C1C1C1C1C1C1C1CC6
:107B00001C1C1C1C1C1C1C1C1C1C1C1C1C1C1C1CB5
:107B10001C1C1C1C1C1C1C1C1C1C1C1C1C1C1C1CA5
:107B20001C1C1C1C1C1C1C1C1C1C1C1C1C1C1C1C95
:107B30001C1C1C1C1C1C1C1C1C1C1C1C1C1C1C1C85
:107B40001C1C1C1C1C1C1C1C1C1C1C1C1C1C1C1C75
:107B50001C1C1C1C1C1C1C1C1C1C1C1C1C1C1C1C65
:107B60001C1C1C1C1C1C1C1C1C1C1C1C1C1C1C1C55
:107B70001C1C1C1C1C1C1C1C1B1B1B1B1B1B1B1B4D
:107B80001B1B1B1B1B1B1B1B1B1B1B1B1B1B1B1B45
:107B90001B1B1B1B1B1B1B1B1B1B1B1B1B1B1B1B35
:107BA0001B1B1B1B1B1B1B1B1B1B1B1B1B1B1B1B25
:107BB0001B1B1B1B1B1B1B1B1B1B1B1B1B1B1B1B15
:107BC0001B1B1B1B1B1B1B1B1B1B1B1B1B1B1B1B05
:107BD0001B1B1B1B1B1B1B1B1B1B1B1B1B1B1B1BF5
:107BE0001B1B1B1B1B1B1B1B1B1B1B1B1B1B1B1BE5
:107BF0001B1B1B1B1B1B1B1B1B1B1B1B1B1B1B1BD5
:107C00001B1B1B1B1B1B1B1B1B1B1B1B1B1B1B1BC4
:107C10001B1B1B1B1B1B1B1B1A1A1A1A1A1A1A1ABC
:107C20001A1A1A1A1A1A1A1A1A1A1A1A1A1A1A1AB4
:107C30001A1A1A1A1A1A1A1A1A1A1A1A1A1A1A1AA4
:107C40001A1A1A1A1A1A1A1A1A1A1A1A1A1A1A1A94
:107C50001A1A1A1A1A1A1A1A1A1A1A1A1A1A1A1A84
:107C60001A1A1A1A1A1A1A1A1A1A1A1A1A1A1A1A74
:107C70001A1A1A1A1A1A1A1A1A1A1A1A1A1A1A1A64
:107C80001A1A1A1A1A1A1A1A1A1A1A1A1A1A1A1A54
:107C90001A1A1A1A1A1A1A1A1A1A1A1A1A1A1A1A44
:107CA0001A1A1A1A1A1A1A1A1A1A1A1A1A1A1A1A34
:107CB0001A1A1A1A1A1A1A1A19191919191919192C
:107CC0001919191919191919191919191919191924
:107CD0001919191919191919191919191919191914
:107CE0001919191919191919191919191919191904
:107CF00019191919191919191919191919191919F4
:107D000019191919191919191919191919191919E3
:107D100019191919191919191919191919191919D3
:107D200019191919191919191919191919191919C3
:107D300019191919191919191919191919191919B3
:107D400019191919191919191919191919191919A3
:107D5000191919191919191918181818181818189B
:107D60001818181818181818181818181818181893
:107D70001818181818181818181818181818181883
:107D80001818181818181818181818181818181873
:107D90001818181818181818181818181818181863
:107DA0001818181818181818181818181818181853
:107DB0001818181818181818181818181818181843
:107DC0001818181818181818181818181818181833
:107DD0001818181818181818181818181818181823
:107DE0001818181818181818181818181818181813
:107DF000181818181818181817171717171717170B
:107E00001717171717171717171717171717171702
:107E100017171717171717171717171717171717F2
:107E200017171717171717171717171717171717E2
:107E300017171717171717171717171717171717D2
:107E400017171717171717171717171717171717C2
:107E500017171717171717171717171717171717B2
:107E600017171717171717171717171717171717A2
:107E70001717171717171717171717171717171792
:107E80001717171717171717171717171717171782
:107E9000171717171717171716161616161616167A
:107EA0001616161616161616161616161616161672
:107EB0001616161616161616161616161616161662
:107EC0001616161616161616161616161616161652
:107ED0001616161616161616161616161616161642
:107EE0001616161616161616161616161616161632
:107EF0001616161616161616161616161616161622
:107F00001616161616161616161616161616161611
:107F10001616161616161616161616161616161601
:107F200016161616161616161616161616161616F1
:107F300016161616161616161515151515151515E9
:107F400015151515151515151515151515151515E1
:107F500015151515151515151515151515151515D1
:107F600015151515151515151515151515151515C1
:107F700015151515151515151515151515151515B1
:107F800015151515151515151515151515151515A1
:107F90001515151515151515151515151515151591
:107FA0001515151515151515151515151515151581
:107FB0001515151515151515151515151515151571
:107FC0001515151515151515151515151515151561
:107FD0001515151515151515141414141414141459
:107FE0001414141414141414141414141414141451
:107FF0001414141414141414141414141414141441
:108000001414141414141414141414141414141430
:108010001414141414141414141414141414141420
:108020001414141414141414141414141414141410
:108030001414141414141414141414141414141400
:1080400014141414141414141414141414141414F0
:1080500014141414141414141414141414141414E0
:1080600014141414141414141414141414141414D0
:1080700014141414141414141313131313131313C8
:1080800013131313131313131313131313131313C0
:1080900013131313131313131313131313131313B0
:1080A00013131313131313131313131313131313A0
:1080B0001313131313131313131313131313131390
:1080C0001313131313131313131313131313131380
:1080D0001313131313131313131313131313131370
:1080E0001313131313131313131313131313131360
:1080F0001313131313131313131313131313131350
:10810000131313131313131313131313131313133F
:10811000131313131313131313131313131313132F
:10812000131313131313131313131313131313131F
:10813000131313131313131313131313131313130F
:1081400013131313131313131313131313131313FF
:1081500013131313131313131313131313131313EF
:1081600013131313131313131313131313131313DF
:1081700013131313131313131313131313131313CF
:1081800013131313131313131313131313131313BF
:1081900013131313131313131313131313131313AF
:1081A000131313131313131313131313131313139F
:1081B0001313131313131313121212121212121297
:1081C000121212121212121212121212121212128F
:1081D000121212121212121212121212121212127F
:1081E000121212121212121212121212121212126F
:1081F000121212121212121212121212121212125F
:10820000121212121212121212121212121212124E
:10821000121212121212121212121212121212123E
:10822000121212121212121212121212121212122E
:10823000121212121212121212121212121212121E
:10824000121212121212121212121212121212120E
:108250001212121212121212111111111111111106
:1082600011111111111111111111111111111111FE
:1082700011111111111111111111111111111111EE
:1082800011111111111111111111111111111111DE
:1082900011111111111111111111111111111111CE
:1082A00011111111111111111111111111111111BE
:1082B00011111111111111111111111111111111AE
:1082C000111111111111111111111111111111119E
:1082D000111111111111111111111111111111118E
:1082E000111111111111111111111111111111117E
:1082F0001111111111111111101010101010101076
:10830000101010101010101010101010101010106D
:10831000101010101010101010101010101010105D
:10832000101010101010101010101010101010104D
:10833000101010101010101010101010101010103D
:10834000101010101010101010101010101010102D
:10835000101010101010101010101010101010101D
:10836000101010101010101010101010101010100D
:1083700010101010101010101010101010101010FD
:1083800010101010101010101010101010101010ED
:1083900010101010101010101010101010101010DD
:1083A00010101010101010101010101010101010CD
:1083B00010101010101010101010101010101010BD
:1083C00010101010101010101010101010101010AD
:1083D000101010101010101010101010101010109D
:1083E000101010101010101010101010101010108D
:1083F000101010101010101010101010101010107D
:10840000101010101010101010101010101010106C
:10841000101010101010101010101010101010105C
:10842000101010101010101010101010101010104C
:1084300010101010101010100F0F0F0F0F0F0F0F44
:108440000F0F0F0F0F0F0F0F0F0F0F0F0F0F0F0F3C
:108450000F0F0F0F0F0F0F0F0F0F0F0F0F0F0F0F2C
:108460000F0F0F0F0F0F0F0F0F0F0F0F0F0F0F0F1C
:108470000F0F0F0F0F0F0F0F0F0F0F0F0F0F0F0F0C
:108480000F0F0F0F0F0F0F0F0F0F0F0F0F0F0F0FFC
:108490000F0F0F0F0F0F0F0F0F0F0F0F0F0F0F0FEC
:1084A0000F0F0F0F0F0F0F0F0F0F0F0F0F0F0F0FDC
:1084B0000F0F0F0F0F0F0F0F0F0F0F0F0F0F0F0FCC
:1084C0000F0F0F0F0F0F0F0F0F0F0F0F0F0F0F0FBC
:1084D0000F0F0F0F0F0F0F0F0E0E0E0E0E0E0E0EB4
:1084E0000E0E0E0E0E0E0E0E0E0E0E0E0E0E0E0EAC
:1084F0000E0E0E0E0E0E0E0E0E0E0E0E0E0E0E0E9C
:108500000E0E0E0E0E0E0E0E0E0E0E0E0E0E0E0E8B
:108510000E0E0E0E0E0E0E0E0E0E0E0E0E0E0E0E7B
:108520000E0E0E0E0E0E0E0E0E0E0E0E0E0E0E0E6B
:108530000E0E0E0E0E0E0E0E0E0E0E0E0E0E0E0E5B
:108540000E0E0E0E0E0E0E0E0E0E0E0E0E0E0E0E4B
:108550000E0E0E0E0E0E0E0E0E0E0E0E0E0E0E0E3B
:108560000E0E0E0E0E0E0E0E0E0E0E0E0E0E0E0E2B
:108570000E0E0E0E0E0E0E0E0E0E0E0E0E0E0E0E1B
:108580000E0E0E0E0E0E0E0E0E0E0E0E0E0E0E0E0B
:108590000E0E0E0E0E0E0E0E0E0E0E0E0E0E0E0EFB
:1085A0000E0E0E0E0E0E0E0E0E0E0E0E0E0E0E0EEB
:1085B0000E0E0E0E0E0E0E0E0E0E0E0E0E0E0E0EDB
:1085C0000E0E0E0E0E0E0E0E0E0E0E0E0E0E0E0ECB
:1085D0000E0E0E0E0E0E0E0E0E0E0E0E0E0E0E0EBB
:1085E0000E0E0E0E0E0E0E0E0E0E0E0E0E0E0E0EAB
:1085F0000E0E0E0E0E0E0E0E0E0E0E0E0E0E0E0E9B
:108600000E0E0E0E0E0E0E0E0E0E0E0E0E0E0E0E8A
:108610000E0E0E0E0E0E0E0E0D0D0D0D0D0D0D0D82
:108620000D0D0D0D0D0D0D0D0D0D0D0D0D0D0D0D7A
:108630000D0D0D0D0D0D0D0D0D0D0D0D0D0D0D0D6A
:108640000D0D0D0D0D0D0D0D0D0D0D0D0D0D0D0D5A
:108650000D0D0D0D0D0D0D0D0D0D0D0D0D0D0D0D4A
:108660000D0D0D0D0D0D0D0D0D0D0D0D0D0D0D0D3A
:108670000D0D0D0D0D0D0D0D0D0D0D0D0D0D0D0D2A
:108680000D0D0D0D0D0D0D0D0D0D0D0D0D0D0D0D1A
:108690000D0D0D0D0D0D0D0D0D0D0D0D0D0D0D0D0A
:1086A0000D0D0D0D0D0D0D0D0D0D0D0D0D0D0D0DFA
:1086B0000D0D0D0D0D0D0D0D0C0C0C0C0C0C0C0CF2
:1086C0000C0C0C0C0C0C0C0C0C0C0C0C0C0C0C0CEA
:1086D0000C0C0C0C0C0C0C0C0C0C0C0C0C0C0C0CDA
:1086E0000C0C0C0C0C0C0C0C0C0C0C0C0C0C0C0CCA
:1086F0000C0C0C0C0C0C0C0C0C0C0C0C0C0C0C0CBA
:108700000C0C0C0C0C0C0C0C0C0C0C0C0C0C0C0CA9
:108710000C0C0C0C0C0C0C0C0C0C0C0C0C0C0C0C99
:108720000C0C0C0C0C0C0C0C0C0C0C0C0C0C0C0C89
:108730000C0C0C0C0C0C0C0C0C0C0C0C0C0C0C0C79
:108740000C0C0C0C0C0C0C0C0C0C0C0C0C0C0C0C69
:108750000C0C0C0C0C0C0C0C0C0C0C0C0C0C0C0C59
:108760000C0C0C0C0C0C0C0C0C0C0C0C0C0C0C0C49
:108770000C0C0C0C0C0C0C0C0C0C0C0C0C0C0C0C39
:108780000C0C0C0C0C0C0C0C0C0C0C0C0C0C0C0C29
:108790000C0C0C0C0C0C0C0C0C0C0C0C0C0C0C0C19
:1087A0000C0C0C0C0C0C0C0C0C0C0C0C0C0C0C0C09
:1087B0000C0C0C0C0C0C0C0C0C0C0C0C0C0C0C0CF9
:1087C0000C0C0C0C0C0C0C0C0C0C0C0C0C0C0C0CE9
:1087D0000C0C0C0C0C0C0C0C0C0C0C0C0C0C0C0CD9
:1087E0000C0C0C0C0C0C0C0C0C0C0C0C0C0C0C0CC9
:1087F0000C0C0C0C0C0C0C0C0B0B0B0B0B0B0B0BC1
:108800000B0B0B0B0B0B0B0B0B0B0B0B0B0B0B0BB8
:108810000B0B0B0B0B0B0B0B0B0B0B0B0B0B0B0BA8
:108820000B0B0B0B0B0B0B0B0B0B0B0B0B0B0B0B98
:108830000B0B0B0B0B0B0B0B0B0B0B0B0B0B0B0B88
:108840000B0B0B0B0B0B0B0B0B0B0B0B0B0B0B0B78
:108850000B0B0B0B0B0B0B0B0B0B0B0B0B0B0B0B68
:108860000B0B0B0B0B0B0B0B0B0B0B0B0B0B0B0B58
:108870000B0B0B0B0B0B0B0B0B0B0B0B0B0B0B0B48
:108880000B0B0B0B0B0B0B0B0B0B0B0B0B0B0B0B38
:108890000B0B0B0B0B0B0B0B0B0B0B0B0B0B0B0B28
:1088A0000B0B0B0B0B0B0B0B0B0B0B0B0B0B0B0B18
:1088B0000B0B0B0B0B0B0B0B0B0B0B0B0B0B0B0B08
:1088C0000B0B0B0B0B0B0B0B0B0B0B0B0B0B0B0BF8
:1088D0000B0B0B0B0B0B0B0B0B0B0B0B0B0B0B0BE8
:1088E0000B0B0B0B0B0B0B0B0B0B0B0B0B0B0B0BD8
:1088F0000B0B0B0B0B0B0B0B0B0B0B0B0B0B0B0BC8
:108900000B0B0B0B0B0B0B0B0B0B0B0B0B0B0B0BB7
:108910000B0B0B0B0B0B0B0B0B0B0B0B0B0B0B0BA7
:108920000B0B0B0B0B0B0B0B0B0B0B0B0B0B0B0B97
:108930000B0B0B0B0B0B0B0B0A0A0A0A0A0A0A0A8F
:108940000A0A0A0A0A0A0A0A0A0A0A0A0A0A0A0A87
:108950000A0A0A0A0A0A0A0A0A0A0A0A0A0A0A0A77
:108960000A0A0A0A0A0A0A0A0A0A0A0A0A0A0A0A67
:108970000A0A0A0A0A0A0A0A0A0A0A0A0A0A0A0A57
:108980000A0A0A0A0A0A0A0A0A0A0A0A0A0A0A0A47
:108990000A0A0A0A0A0A0A0A0A0A0A0A0A0A0A0A37
:1089A0000A0A0A0A0A0A0A0A0A0A0A0A0A0A0A0A27
:1089B0000A0A0A0A0A0A0A0A0A0A0A0A0A0A0A0A17
:1089C0000A0A0A0A0A0A0A0A0A0A0A0A0A0A0A0A07
:1089D0000A0A0A0A0A0A0A0A0909090909090909FF
:1089E00009090909090909090909090909090909F7
:1089F00009090909090909090909090909090909E7
:108A000009090909090909090909090909090909D6
:108A100009090909090909090909090909090909C6
:108A200009090909090909090909090909090909B6
:108A300009090909090909090909090909090909A6
:108A40000909090909090909090909090909090996
:108A50000909090909090909090909090909090986
:108A60000909090909090909090909090909090976
:108A70000909090909090909090909090909090966
:108A80000909090909090909090909090909090956
:108A90000909090909090909090909090909090946
:108AA0000909090909090909090909090909090936
:108AB0000909090909090909090909090909090926
:108AC0000909090909090909090909090909090916
:108AD0000909090909090909090909090909090906
:108AE00009090909090909090909090909090909F6
:108AF00009090909090909090909090909090909E6
:108B000009090909090909090909090909090909D5
:108B100009090909090909090808080808080808CD
:108B200008080808080808080808080808080808C5
:108B300008080808080808080808080808080808B5
:108B400008080808080808080808080808080808A5
:108B50000808080808080808080808080808080895
:108B60000808080808080808080808080808080885
:108B70000808080808080808080808080808080875
:108B80000808080808080808080808080808080865
:108B90000808080808080808080808080808080855
:108BA0000808080808080808080808080808080845
:108BB0000808080808080808080808080808080835
:108BC0000808080808080808080808080808080825
:108BD0000808080808080808080808080808080815
:108BE0000808080808080808080808080808080805
:108BF00008080808080808080808080808080808F5
:108C000008080808080808080808080808080808E4
:108C100008080808080808080808080808080808D4
:108C200008080808080808080808080808080808C4
:108C300008080808080808080808080808080808B4
:108C400008080808080808080808080808080808A4
:108C5000080808080808080807070707070707079C
:108C60000707070707070707070707070707070794
:108C70000707070707070707070707070707070784
:108C80000707070707070707070707070707070774
:108C90000707070707070707070707070707070764
:108CA0000707070707070707070707070707070754
:108CB0000707070707070707070707070707070744
:108CC0000707070707070707070707070707070734
:108CD0000707070707070707070707070707070724
:108CE0000707070707070707070707070707070714
:108CF0000707070707070707070707070707070704
:108D000007070707070707070707070707070707F3
:108D100007070707070707070707070707070707E3
:108D200007070707070707070707070707070707D3
:108D300007070707070707070707070707070707C3
:108D400007070707070707070707070707070707B3
:108D500007070707070707070707070707070707A3
:108D60000707070707070707070707070707070793
:108D70000707070707070707070707070707070783
:108D80000707070707070707070707070707070773
:108D9000070707070707070706060606060606066B
:108DA0000606060606060606060606060606060663
:108DB0000606060606060606060606060606060653
:108DC0000606060606060606060606060606060643
:108DD0000606060606060606060606060606060633
:108DE0000606060606060606060606060606060623
:108DF0000606060606060606060606060606060613
:108E00000606060606060606060606060606060602
:108E100006060606060606060606060606060606F2
:108E200006060606060606060606060606060606E2
:108E300006060606060606060606060606060606D2
:108E400006060606060606060606060606060606C2
:108E500006060606060606060606060606060606B2
:108E600006060606060606060606060606060606A2
:108E70000606060606060606060606060606060692
:108E80000606060606060606060606060606060682
:108E90000606060606060606060606060606060672
:108EA0000606060606060606060606060606060662
:108EB0000606060606060606060606060606060652
:108EC0000606060606060606060606060606060642
:108ED000060606060606060605050505050505053A
:108EE0000505050505050505050505050505050532
:108EF0000505050505050505050505050505050522
:108F00000505050505050505050505050505050511
:108F10000505050505050505050505050505050501
:108F200005050505050505050505050505050505F1
:108F300005050505050505050505050505050505E1
:108F400005050505050505050505050505050505D1
:108F500005050505050505050505050505050505C1
:108F600005050505050505050505050505050505B1
:108F700005050505050505050505050505050505A1
:108F80000505050505050505050505050505050591
:108F90000505050505050505050505050505050581
:108FA0000505050505050505050505050505050571
:108FB0000505050505050505050505050505050561
:108FC0000505050505050505050505050505050551
:108FD0000505050505050505050505050505050541
:108FE0000505050505050505050505050505050531
:108FF0000505050505050505050505050505050521
:109000000505050505050505050505050505050510
:109010000505050505050505040404040404040408
:109020000404040404040404040404040404040400
:1090300004040404040404040404040404040404F0
:1090400004040404040404040404040404040404E0
:1090500004040404040404040404040404040404D0
:1090600004040404040404040404040404040404C0
:1090700004040404040404040404040404040404B0
:1090800004040404040404040404040404040404A0
:109090000404040404040404040404040404040490
:1090A0000404040404040404040404040404040480
:1090B0000404040404040404040404040404040470
:1090C0000404040404040404040404040404040460
:1090D0000404040404040404040404040404040450
:1090E0000404040404040404040404040404040440
:1090F0000404040404040404040404040404040430
:10910000040404040404040404040404040404041F
:10911000040404040404040404040404040404040F
:1091200004040404040404040404040404040404FF
:1091300004040404040404040404040404040404EF
:1091400004040404040404040404040404040404DF
:1091500004040404040404040404040404040404CF
:1091600004040404040404040404040404040404BF
:1091700004040404040404040404040404040404AF
:10918000040404040404040404040404040404049F
:10919000040404040404040404040404040404048F
:1091A000040404040404040404040404040404047F
:1091B000040404040404040404040404040404046F
:1091C000040404040404040404040404040404045F
:1091D000040404040404040404040404040404044F
:1091E000040404040404040404040404040404043F
:1091F0000404040404040404030303030303030337
:10920000030303030303030303030303030303032E
:10921000030303030303030303030303030303031E
:10922000030303030303030303030303030303030E
:1092300003030303030303030303030303030303FE
:1092400003030303030303030303030303030303EE
:1092500003030303030303030303030303030303DE
:1092600003030303030303030303030303030303CE
:1092700003030303030303030303030303030303BE
:1092800003030303030303030303030303030303AE
:10929000030303030303030303030303030303039E
:1092A000030303030303030303030303030303038E
:1092B000030303030303030303030303030303037E
:1092C000030303030303030303030303030303036E
:1092D000030303030303030303030303030303035E
:1092E000030303030303030303030303030303034E
:1092F000030303030303030303030303030303033E
:10930000030303030303030303030303030303032D
:10931000030303030303030303030303030303031D
:10932000030303030303030303030303030303030D
:109330000303030303030303020202020202020205
:1093400002020202020202020202020202020202FD
:1093500002020202020202020202020202020202ED
:1093600002020202020202020202020202020202DD
:1093700002020202020202020202020202020202CD
:1093800002020202020202020202020202020202BD
:1093900002020202020202020202020202020202AD
:1093A000020202020202020202020202020202029D
:1093B000020202020202020202020202020202028D
:1093C000020202020202020202020202020202027D
:1093D000020202020202020202020202020202026D
:1093E000020202020202020202020202020202025D
:1093F000020202020202020202020202020202024D
:10940000020202020202020202020202020202023C
:10941000020202020202020202020202020202022C
:10942000020202020202020202020202020202021C
:10943000020202020202020202020202020202020C
:1094400002020202020202020202020202020202FC
:1094500002020202020202020202020202020202EC
:1094600002020202020202020202020202020202DC
:1094700002020202020202020202020202020202CC
:1094800002020202020202020202020202020202BC
:1094900002020202020202020202020202020202AC
:1094A000020202020202020202020202020202029C
:1094B000020202020202020202020202020202028C
:1094C000020202020202020202020202020202027C
:1094D000020202020202020202020202020202026C
:1094E000020202020202020202020202020202025C
:1094F000020202020202020202020202020202024C
:10950000020202020202020202020202020202023B
:109510000202020202020202010101010101010133
:10952000010101010101010101010101010101012B
:10953000010101010101010101010101010101011B
:10954000010101010101010101010101010101010B
:1095500001010101010101010101010101010101FB
:1095600001010101010101010101010101010101EB
:1095700001010101010101010101010101010101DB
:1095800001010101010101010101010101010101CB
:1095900001010101010101010101010101010101BB
:1095A00001010101010101010101010101010101AB
:1095B000010101010101010101010101010101019B
:1095C000010101010101010101010101010101018B
:1095D000010101010101010101010101010101017B
:1095E000010101010101010101010101010101016B
:1095F000010101010101010101010101010101015B
:10960000010101010101010101010101010101014A
:10961000010101010101010101010101010101013A
:10962000010101010101010101010101010101012A
:10963000010101010101010101010101010101011A
:10964000010101010101010101010101010101010A
:109650000101010101010101000000000000000002
:1096600000000000000000000000000000000000FA
:1096700000000000000000000000000000000000EA
:1096800000000000000000000000000000000000DA
:1096900000000000000000000000000000000000CA
:109A1000000000000000000010B500200400E4B2C7
:109A2000082C08DA0022012114F14000C0B201F034
:109A300009FE641CF3E700220121492001F002FE27
:109A4000012201214A2001F0FDFD012201214B20CC
:109A500001F0F8FD002201214C2001F0F3FD00226D
:109A600001214D2001F0EEFD4FF4A071492001F0DD
:109A70008BFE4FF4A0714A2001F086FE4FF4A071D6
:109A80004B2001F081FE4FF4A0714C2001F07CFED0
:109A90000020DFF8241D08600120DFF81C1D08608D
:109AA0004FF4FA7001F0E9FE0120DFF8101D0860A4
:109AB0000020DFF80C1D08600020DFF8081D08609A
:109AC0001120DFF8041D08700020DFF8001D086079
:109AD0000120DFF8F81C08600120DFF8E81C0860AE
:109AE000782001F0CAFE0120DFF8D01C08600020B9
:109AF000DFF8CC1C08600020DFF8C81C0860B1202B
:109B0000DFF8C41C08700020DFF8C01C08600120CA
:109B1000DFF8B81C08600120DFF8A81C08600120ED
:109B2000DFF8981C08600120DFF8941C0860002012
:109B3000DFF8901C08600520DFF88C1C08700020FE
:109B4000DFF8881C08600120DFF8801C0860012015
:109B5000DFF8701C08600120DFF8601C086001203D
:109B6000DFF85C1C08600020DFF8581C08603A2011
:109B7000DFF8541C08700020DFF8501C086001203A
:109B8000DFF8481C08600120DFF8381C086001205D
:109B9000DFF8281C08600120DFF8241C0860002082
:109BA000DFF8201C08603A20DFF81C1C0870002039
:109BB000DFF8181C08600120DFF8101C0860012085
:109BC000DFF8001C08600120DFF8F01B08600020AF
:109BD000DFF8EC1B08600020DFF8E81B0860B2200B
:109BE000DFF8E41B08700020DFF8E01B08600120AC
:109BF000DFF8D81B08600120DFF8C81B08600120CF
:109C0000DFF8B81B08600120DFF8B41B08600020F3
:109C1000DFF8B01B08600520DFF8AC1B08700020DF
:109C2000DFF8A81B08600120DFF8A01B08600120F6
:109C3000DFF8901B08600120DFF8801B086001201E
:109C4000DFF87C1B08600020DFF8781B08603A20F2
:109C5000DFF8741B08700020DFF8701B086001201B
:109C6000DFF8681B08600120DFF8581B086001203E
:109C7000DFF8481B08600120DFF8441B0860002063
:109C8000DFF8401B08603A20DFF83C1B087000201A
:109C9000DFF8381B08600120DFF8301B0860012066
:109CA000DFF8201B08600120DFF8101B086000208F
:109CB000DFF80C1B08600020DFF8081B0860B320E9
:109CC000DFF8041B08700020DFF8001B086001208B
:109CD000DFF8F81A08600120DFF8E81A08600120B0
:109CE000DFF8D81A08600120DFF8D41A08600020D5
:109CF000DFF8D01A08600520DFF8CC1A08700020C1
:109D0000DFF8C81A08600120DFF8C01A08600120D7
:109D1000DFF8B01A08600120DFF8A01A08600120FF
:109D2000DFF89C1A08600020DFF8981A08603A20D3
:109D3000DFF8941A08700020DFF8901A08600120FC
:109D4000DFF8881A08600120DFF8781A086001201F
:109D5000DFF8681A08600120DFF8641A0860002044
:109D6000DFF8601A08603A20DFF85C1A08700020FB
:109D7000DFF8581A08600120DFF8501A0860012047
:109D8000DFF8401A08600120DFF8301A086001206F
:109D9000DFF82C1A08600020DFF8281A0860052078
:109DA000DFF8241A08700020DFF8201A086001206C
:109DB000DFF8181A08600120DFF8081A086001208F
:109DC000DFF8F81908600120DFF8F41908600020B6
:109DD000DFF8F01908603A20DFF8EC19087000206D
:109DE000DFF8E81908600120DFF8E01908600120B9
:109DF000DFF8D01908600120DFF8C01908600120E1
:109E0000DFF8BC1908600020DFF8B81908603A20B4
:109E1000DFF8B41908700020DFF8B01908600120DD
:109E2000DFF8A81908600120DFF898190860012000
:109E3000DFF8881908600020DFF884190860002026
:109E4000DFF880190860B420DFF87C190870002062
:109E5000DFF8781908600120DFF870190860012028
:109E6000DFF8601908600120DFF850190860012050
:109E7000DFF84C1908600020DFF848190860072057
:109E8000DFF8441908700020DFF84019086001204D
:109E9000DFF8381908600120DFF828190860012070
:109EA000DFF8181908600020DFF814190860002096
:109EB000DFF810190860C020DFF80C1908700020C6
:109EC000DFF8081908600120DFF800190860012098
:109ED000DFF8F01808600120DFF8E01808600120C2
:109EE000DFF8DC1808600020DFF8D81808602820A8
:109EF000DFF8D41808700020DFF8D01808600120BF
:109F0000DFF8C81808600120DFF8B81808600120E1
:109F1000DFF8A81808600120DFF8A4180860002006
:109F2000DFF8A01808600820DFF89C1808700020EF
:109F3000DFF8981808600120DFF890180860012009
:109F4000DFF8801808600120DFF870180860012031
:109F5000DFF86C1808600020DFF8681808608420BB
:109F6000DFF8641808700020DFF86018086001202E
:109F7000DFF8581808600120DFF848180860012051
:109F8000DFF8381808600020DFF834180860002077
:109F9000DFF830180860C120DFF82C1808700020A6
:109FA000DFF8281808600120DFF820180860012079
:109FB000DFF8101808600120DFF8001808600120A1
:109FC000DFF8FC1708600020DFF8F8170860C020F1
:109FD000DFF8F41708700020DFF8F01708600120A0
:109FE000DFF8E81708600120DFF8D81708600120C3
:109FF000DFF8C81708600020DFF8C41708600020E9
:10A00000DFF8C0170860C220DFF8BC170870002016
:10A01000DFF8B81708600120DFF8B01708600120EA
:10A02000DFF8A01708600120DFF890170860012012
:10A03000DFF88C1708600020DFF8881708600C2014
:10A04000DFF8841708700020DFF88017086001200F
:10A05000DFF8781708600120DFF868170860012032
:10A06000DFF8581708600120DFF854170860002057
:10A07000DFF8501708600020DFF84C170870002048
:10A08000DFF8481708600120DFF84017086001205A
:10A09000DFF8301708600120DFF820170860002083
:10A0A000DFF81C1708600020DFF818170860C320CD
:10A0B000DFF8141708700020DFF81017086001207F
:10A0C000DFF8081708600120DFF8F81608600120A3
:10A0D000DFF8E81608600120DFF8E41608600020C9
:10A0E000DFF8E01608608C20DFF8DC16087000202E
:10A0F000DFF8D81608600120DFF8D01608600120CC
:10A10000DFF8C01608600120DFF8B01608600120F3
:10A11000DFF8AC1608600020DFF8A81608602A20D7
:10A12000DFF8A41608700020DFF8A01608600120F0
:10A13000DFF8981608600120DFF888160860012013
:10A14000DFF8781608600020DFF874160860002039
:10A15000DFF870160860C420DFF86C160870002065
:10A16000DFF8681608600120DFF86016086001203B
:10A17000DFF8501608600120DFF840160860012063
:10A18000DFF83C1608600020DFF8381608608A20E7
:10A19000DFF8341608700020DFF830160860012060
:10A1A000DFF8281608600120DFF818160860012083
:10A1B000DFF8081608600120DFF8041608600020A8
:10A1C000DFF800160860EE20DFF8FC1508700020AC
:10A1D000DFF8F81508600120DFF8F01508600120AD
:10A1E000DFF8E01508600120DFF8D01508600020D6
:10A1F000DFF8CC1508600020DFF8C8150860C5201E
:10A20000DFF8C41508700020DFF8C01508600120D1
:10A21000DFF8B81508600120DFF8A81508600120F4
:10A22000DFF8981508600120DFF894150860002019
:10A23000DFF8901508600C20DFF88C1508700020FE
:10A24000DFF8881508600120DFF88015086001201C
:10A25000DFF8701508600120DFF860150860002045
:10A26000DFF85C1508600020DFF858150860E02072
:10A27000DFF8541508700020DFF850150860012041
:10A28000DFF8481508600120DFF838150860012064
:10A29000DFF8281508600120DFF824150860002089
:10A2A000DFF8201508600520DFF81C150870002075
:10A2B000DFF8181508600120DFF81015086001208C
:10A2C000DFF8001508600120DFF8F01408600120B5
:10A2D000DFF8EC1408600020DFF8E81408601A20AA
:10A2E000DFF8E41408700020DFF8E01408600120B3
:10A2F000DFF8D81408600120DFF8C81408600120D6
:10A30000DFF8B81408600120DFF8B41408600020FA
:10A31000DFF8B01408600C20DFF8AC1408700020DF
:10A32000DFF8A81408600120DFF8A01408600120FD
:10A33000DFF8901408600120DFF880140860012025
:10A34000DFF87C1408600020DFF8781408600E2025
:10A35000DFF8741408700020DFF870140860012022
:10A36000DFF8681408600120DFF858140860012045
:10A37000DFF8481408600120DFF84414086000206A
:10A38000DFF8401408603A20DFF83C140870002021
:10A39000DFF8381408600120DFF83014086001206D
:10A3A000DFF8201408600120DFF810140860012095
:10A3B000DFF80C1408600020DFF80814086034206F
:10A3C000DFF8041408700020DFF800140860012092
:10A3D000DFF8F81308600120DFF8E81308600120B7
:10A3E000DFF8D81308600120DFF8D41308600020DC
:10A3F000DFF8D01308602D20DFF8CC1308700020A0
:10A40000DFF8C81308600120DFF8C01308600120DE
:10A41000DFF8B01308600120DFF8A0130860012006
:10A42000DFF89C1308600020DFF8981308602F20E5
:10A43000DFF8941308700020DFF890130860012003
:10A44000DFF8881308600120DFF878130860012026
:10A45000DFF8681308600120DFF86413086000204B
:10A46000DFF8601308602D20DFF85C13087000200F
:10A47000DFF8581308600120DFF85013086001204E
:10A48000DFF8401308600120DFF830130860012076
:10A49000DFF82C1308600020DFF8281308602A205A
:10A4A000DFF8241308700020DFF820130860012073
:10A4B000DFF8181308600120DFF808130860012096
:10A4C000DFF8F81208600120DFF8F41208600020BD
:10A4D000DFF8F01208602F20BB4908700020BB494C
:10A4E00008600120B94908600120B64908600120D0
:10A4F000B24908600120B24908600020B1490860F3
:10A500003C20B14908700020B04908600120AF49E3
:10A5100008600120AB4908600120A84908600120BB
:10A52000A74908600020A74908600020A6490870D4
:10A530000020A64908600120A44908600120A14923
:10A54000086001209D49086001209D4908600020A5
:10A550009C49086001209C49087000209B490860C4
:10A5600001209A490860012096490860012093491A
:10A57000086001209249086000209249086002208A
:10A580009149087000209149086001208F490860B6
:10A5900001208C4908600120884908600120884911
:10A5A0000860002087490860102087490870002053
:10A5B00086490860012085490860012081490860BA
:10A5C00001207E49086000207D49086000207D4907
:10A5D0000860E1207C49087000207C490860012067
:10A5E0007A490860012077490860012073490860B2
:10A5F00001207349086000207249086004207249F4
:10A60000087000207149086001207049086001202D
:10A610006C490860012069490860012068490860A8
:10A620000020684908601B206749087000206749BE
:10A630000860012065490860012062490860012026
:10A640005E49086001205E49086000205D4908609D
:10A650000D205D49087000205C49086001205B49BD
:10A660000860012057490860012054490860012012
:10A67000534908600020534908600E205249087071
:10A6800000205249086001205049086001204D49CE
:10A6900008600120494908600120494908600020FC
:10A6A000484908602D204849087000204749086043
:10A6B00001204649086001204249086001203F49C5
:10A6C000086001203E49086000203E4908602920BA
:10A6D0003D49087000203D49086001203B49086061
:10A6E00001203849086001203449086001203449BC
:10A6F0000860002033490860242033490870002096
:10A700003249086001203149086001202D49086064
:10A7100001202A49086001202949086000202949B0
:10A720000860292028490870002028490860012075
:10A730002649086001202349086001201F4908605C
:10A7400001201F49086000201E49086028201E497A
:10A75000087000201D49086001201C490860012084
:10A760001849086001201549086001201449086053
:10A77000002014490860262013490870002013495E
:10A78000086001201149086001200E49086001207D
:10A790000A49086001200A49086000200949086048
:10A7A0003120094908700020084908600120074944
:10A7B0000860012003490BE03410FE432810FE43DB
:10A7C0003010FE432C10FE4380F00F402410FE4357
:10A7D00008600120DFF80C1C08600120DFF8081C6D
:10A7E00008600020DFF8041C08603B20DFF8001C34
:10A7F00008700020DFF8FC1B08600120DFF8F41B64
:10A8000008600120DFF8E41B08600120DFF8D41B9A
:10A8100008600120DFF8D01B08600020DFF8CC1BA7
:10A8200008600020DFF8C81B08700020DFF8C41B98
:10A8300008600120DFF8BC1B08600120DFF8AC1BBA
:10A8400008600120DFF89C1B08600120DFF8981BDE
:10A8500008600020DFF8941B08600020DFF8901BE0
:10A8600008700020DFF88C1B08600120DFF8841BD3
:10A8700008600120DFF8741B08600120DFF8641B0A
:10A8800008600120DFF8601B08600020DFF85C1B17
:10A8900008600320DFF8581B08700020DFF8541B05
:10A8A00008600120DFF84C1B08600120DFF83C1B2A
:10A8B00008600120DFF82C1B08600120DFF8281B4E
:10A8C00008600020DFF8241B08601220DFF8201B3E
:10A8D00008700020DFF81C1B08600120DFF8141B43
:10A8E00008600120DFF8041B08600120DFF8F41A7B
:10A8F00008600020DFF8F01A08600020DFF8EC1A8A
:10A9000008603A20DFF8E81A08700020DFF8E41A3F
:10A9100008600120DFF8DC1A08600120DFF8CC1A9B
:10A9200008600120DFF8BC1A08600120DFF8B81ABF
:10A9300008600020DFF8B41A08600520DFF8B01ABC
:10A9400008700020DFF8AC1A08600120DFF8A41AB4
:10A9500008600120DFF8941A08600120DFF8841AEB
:10A9600008600020DFF8801A08600020DFF87C1AF9
:10A9700008602920DFF8781A08700020DFF8741AC0
:10A9800008600120DFF86C1A08600120DFF85C1A0B
:10A9900008600120DFF84C1A08600020DFF8481A30
:10A9A00008600020DFF8441A08602C20DFF8401A05
:10A9B00008700020DFF83C1A08600120DFF8341A24
:10A9C00008600120DFF8241A0860DFF8540C0078D2
:10A9D00000F001F810BD10B50400E4B2042C04DB53
:10A9E000C821DFF8400C00F074FFDFF8340C04706D
:10A9F000E4B2002C09D0022C00F0B982C0F05E81D4
:10AA0000032C00F0EA8300F0EBBC0120DFF8D4193E
:10AA100008600020DFF8D01908600020DFF8CC19AA
:10AA200008603620DFF8C81908700020DFF8C41964
:10AA300008600120DFF8BC1908600120DFF8AC19BC
:10AA400008600120DFF89C1908600120DFF89819E0
:10AA500008600020DFF894190860C820DFF890191A
:10AA600008700020DFF88C1908600120DFF88419D5
:10AA700008600120DFF8741908600120DFF864190C
:10AA800008600020DFF8601908600020DFF85C191A
:10AA900008602A20DFF8581908700020DFF85419E0
:10AAA00008600120DFF84C1908600120DFF83C192C
:10AAB00008600120DFF82C1908600120DFF8281950
:10AAC00008600020DFF8241908600020DFF8201952
:10AAD00008700020DFF81C1908600120DFF8141945
:10AAE00008600120DFF8041908600120DFF8F4187D
:10AAF00008600120DFF8F01808600020DFF8EC188B
:10AB000008600220DFF8E81808700020DFF8E41879
:10AB100008600120DFF8DC1808600120DFF8CC189D
:10AB200008600120DFF8BC1808600120DFF8B818C1
:10AB300008600020DFF8B41808600020DFF8B018C3
:10AB400008700020DFF8AC1808600120DFF8A418B6
:10AB500008600120DFF8941808600120DFF88418ED
:10AB600008600120DFF8801808600020DFF87C18FA
:10AB700008608120DFF8781808700020DFF874186A
:10AB800008600120DFF86C1808600120DFF85C180D
:10AB900008600120DFF84C1808600020DFF8481832
:10ABA00008600020DFF8441808602B20DFF8401808
:10ABB00008700020DFF83C1808600120DFF8341826
:10ABC00008600120DFF8241808600120DFF814185D
:10ABD00008600120DFF8101808600020DFF80C186A
:10ABE00008600020DFF8081808700020DFF804185B
:10ABF00008600120DFF8FC1708600120DFF8EC177F
:10AC000008600120DFF8DC1708600120DFF8D817A2
:10AC100008600020DFF8D41708600320DFF8D017A1
:10AC200008700020DFF8CC1708600120DFF8C41797
:10AC300008600120DFF8B41708600120DFF8A417CE
:10AC400008600120DFF8A01708600020DFF89C17DB
:10AC500008600020DFF8981708700020DFF89417CC
:10AC600008600120DFF88C1708600120DFF87C17EE
:10AC700008600120DFF86C1708600120DFF8681712
:10AC800008600020DFF8641708608220DFF8601792
:10AC900008700020DFF85C1708600120DFF8541707
:10ACA00008600120DFF8441708608020DFF8781979
:10ACB00008808020DFF87419088091E30120DFF814
:10ACC000241708600020DFF8201708600020DFF854
:10ACD0001C1708603620DFF8181708700020DFF80E
:10ACE000141708600120DFF80C1708600120DFF856
:10ACF000FC1608600120DFF8EC1608600120DFF880
:10AD0000E81608600020DFF8E4160860A820DFF8E5
:10AD1000E01608700020DFF8DC1608600120DFF87C
:10AD2000D41608600120DFF8C41608600120DFF89F
:10AD3000B41608600020DFF8B01608600020DFF8C5
:10AD4000AC1608602A20DFF8A81608700020DFF88B
:10AD5000A41608600120DFF89C1608600120DFF8C7
:10AD60008C1608600120DFF87C1608600120DFF8EF
:10AD7000781608600020DFF8741608600020DFF8FD
:10AD8000701608700020DFF86C1608600120DFF8EC
:10AD9000641608600120DFF8541608600120DFF80F
:10ADA000441608600120DFF8401608600020DFF834
:10ADB0003C1608600320DFF8381608700020DFF822
:10ADC000341608600120DFF82C1608600120DFF837
:10ADD0001C1608600120DFF80C1608600120DFF85F
:10ADE000081608600020DFF8041608600020DFF86D
:10ADF000001608700020DFF8FC1508600120DFF85D
:10AE0000F41508600120DFF8E41508600120DFF880
:10AE1000D41508600120DFF8D01508600020DFF8A5
:10AE2000CC1508608220DFF8C81508700020DFF814
:10AE3000C41508600120DFF8BC1508600120DFF8A8
:10AE4000AC1508600120DFF89C1508600020DFF8D1
:10AE5000981508600020DFF8941508602B20DFF8B3
:10AE6000901508700020DFF88C1508600120DFF8CD
:10AE7000841508600120DFF8741508600120DFF8F0
:10AE8000641508600120DFF8601508600020DFF815
:10AE90005C1508600020DFF8581508700020DFF806
:10AEA000541508600120DFF84C1508600120DFF818
:10AEB0003C1508600120DFF82C1508600120DFF840
:10AEC000281508600020DFF8241508600220DFF84C
:10AED000201508700020DFF81C1508600120DFF83D
:10AEE000141508600120DFF8041508600120DFF860
:10AEF000F41408600120DFF8F01408600020DFF887
:10AF0000EC1408600020DFF8E81408700020DFF877
:10AF1000E41408600120DFF8DC1408600120DFF889
:10AF2000CC1408600120DFF8BC1408600120DFF8B1
:10AF3000B81408600020DFF8B41408608120DFF83E
:10AF4000B01408700020DFF8AC1408600120DFF8AE
:10AF5000A41408600120DFF8941408608020DFF852
:10AF6000C81608808020DFF8C416088038E2012067
:10AF7000DFF8701408600020DFF86C14086000200F
:10AF8000DFF8681408603620DFF8641408700020C9
:10AF9000DFF8601408600120DFF858140860012011
:10AFA000DFF8481408600120DFF838140860012039
:10AFB000DFF8341408600020DFF83014086008203F
:10AFC000DFF82C1408700020DFF828140860012036
:10AFD000DFF8201408600120DFF810140860012059
:10AFE000DFF8001408600020DFF8FC130860002080
:10AFF000DFF8F81308602A20DFF8F4130870002047
:10B00000DFF8F01308600120DFF8E8130860012082
:10B01000DFF8D81308600120DFF8C81308600120AA
:10B02000DFF8C41308600020DFF8C01308600020B8
:10B03000DFF8BC1308700020DFF8B81308600120A7
:10B04000DFF8B01308600120DFF8A01308600120CA
:10B05000DFF8901308600120DFF88C1308600020EF
:10B06000DFF8881308600220DFF8841308700020DE
:10B07000DFF8801308600120DFF8781308600120F2
:10B08000DFF8681308600120DFF85813086001201A
:10B09000DFF8541308600020DFF850130860002028
:10B0A000DFF84C1308700020DFF848130860012017
:10B0B000DFF8401308600120DFF83013086001203A
:10B0C000DFF8201308600120DFF81C13086000205F
:10B0D000DFF8181308608120DFF8141308700020CF
:10B0E000DFF8101308600120DFF808130860012062
:10B0F000DFF8F81208600120BA4908600020BA4958
:10B1000008600020B94908602B20B9490870002068
:10B11000B84908600120B74908600120B3490860B8
:10B120000120B04908600120AF4908600020AF4904
:10B1300008600020AE4908700020AE490860012078
:10B14000AC4908600120A94908600120A5490860B0
:10B150000120A54908600020A44908600320A449F3
:10B1600008700020A34908600120A249086001205E
:10B170009E49086001209B49086001209A490860A7
:10B1800000209A49086000209949087000209949D8
:10B190000860012097490860012094490860012057
:10B1A0009049086001209049086000208F4908609C
:10B1B00082208F49087000208E49086001208D4947
:10B1C00008600120894908608020DFF85C1408804D
:10B1D0008020DFF85814088002E1012081490860CE
:10B1E000002081490860002080490860362080499D
:10B1F000087000207F49086001207E490860012016
:10B200007A49086001207749086001207649086082
:10B21000002076490860682075490870002075494B
:10B22000086001207349086001207049086001200E
:10B230006C49086000206C49086000206B49086078
:10B240002A206B49087000206A490860012069497A
:10B2500008600120654908600120624908600120FA
:10B260006149086000206149086000206049087059
:10B2700000206049086001205E49086001205B49A8
:10B2800008600120574908600120574908600020E4
:10B290005649086003205649087000205549086047
:10B2A00001205449086001205049086001204D499F
:10B2B000086001204C49086000204C4908600020CB
:10B2C0004B49087000204B4908600120494908603B
:10B2D0000120464908600120424908600120424996
:10B2E0000860002041490860822041490870002020
:10B2F0004049086001203F49086001203B4908603F
:10B30000012038490860002037490860002037498B
:10B3100008602B203649087000203649086001205B
:10B320003449086001203149086001202D49086036
:10B3300001202D49086000202C49086000202C497C
:10B34000087000202B49086001202A49086001206C
:10B35000264908600120234908600120224908602D
:10B36000002022490860022021490870002021495C
:10B37000086001201F49086001201C490860012065
:10B380001849086001201849086000201749086022
:10B39000002017490870002016490860012015494F
:10B3A000086001201149086001200E490860012051
:10B3B0000D49086000200D49086081200C49087083
:10B3C00000200C49086001200A4908600120074953
:10B3D0000860802094490880802094490880FFE715
:10B3E00010BD00002810FE433010FE432C10FE4319
:10B3F00080F00F402410FE4303B489480078C00752
:10B400000AD5BDF80000C01CADF80000BDF8020070
:10B41000801CADF8020009E0BDF80000801CADF80A
:10B420000000BDF80200C01CADF8020001208049F8
:10B43000086000207F49086000207F4908602A20BA
:10B440007E49087000207E49086001207C49086020
:10B45000012079490860012075490860012075497B
:10B460000860002074490860BDF8000080B2000A3E
:10B470007249087000207249086001207049086014
:10B4800001206D490860012069490860012069496F
:10B490000860002068490860BDF80000674908702E
:10B4A0000020674908600120654908600120624961
:10B4B000086001205E49086001205E4908600020A4
:10B4C0005D490860BDF80000BDF8041011FA80F075
:10B4D000401E001259490870002059490860012097
:10B4E000574908600120544908600120504908600C
:10B4F00001205049086000204F490860BDF8001045
:10B50000BDF804004118481E4C49087000204C4901
:10B51000086001204A49086001204749086001206D
:10B520004349086000204349086000204249086000
:10B530002B20424908700020414908600120404901
:10B54000086001203C490860012039490860012059
:10B5500038490860002038490860BDF8020080B210
:10B56000000A364908700020354908600120344936
:10B57000086001203049086001202D490860012041
:10B580002C49086000202C490860BDF802002B49B6
:10B59000087000202A49086001202949086001201C
:10B5A00025490860012022490860012021490860DE
:10B5B000002021490860BDF80200BDF8061011FA0C
:10B5C00080F0401E00121D49087000201C490860D0
:10B5D00001201B4908600120174908600120144917
:10B5E0000860012013490860002013490860BDF875
:10B5F0000210BDF806004118481E104908700020CE
:10B600000F49086001200E49086001200A490860BE
:10B6100002B07047044800887047044800887047AB
:10B62000C90A00201C340100420DFF1F440DFF1FFA
:10B630002810FE433010FE432C10FE4380F00F40D4
:10B640002410FE4370B506000C0015004FF4807105
:10B650003000C0B200F098F864B2002C13D1484812
:10B66000F6B23100491150F821104548F6B23200C7
:10B67000521150F822004269012316F01F00834046
:10B680009A434A613CE03E48F6B23100491150F815
:10B6900021103B48F6B23200521150F822004269A4
:10B6A000012316F01F0083401A434A61EDB2002DBA
:10B6B00013D13348F6B23100491150F82100016826
:10B6C000012216F01F00824091432D48F6B232004D
:10B6D000521150F82200016012E02948F6B2310000
:10B6E000491150F821000168012216F01F00824024
:10B6F00011432348F6B23200521150F82200016083
:10B7000070BD10B504001E48E4B22100491150F884
:10B710002100406914F01F01C840C00703D47B21F9
:10B72000184800F0D6F81648E4B22100491150F844
:10B730002110012214F01F008240CA6010BD10B514
:10B7400004000F48E4B22100491150F8210040697B
:10B7500014F01F01C840C00703D58C21094800F030
:10B76000B8F80748E4B22100491150F821000069F7
:10B7700014F01F04E04010F0010010BD00000000B4
:10B78000280BFF1F3036010010B42C4A13684FF409
:10B7900000740200D2B2520994402343274A136036
:10B7A000274AC0B203005B1152F82330012410F085
:10B7B0001F029440C3F8A040214AC0B203005B11AD
:10B7C00052F82320C0B210F01F0342F8231010BC1F
:10B7D000704710B4194A13684FF400740200D2B2D3
:10B7E000520994402343154A1360154AC0B203001E
:10B7F0005B1152F82330012410F01F029440C3F86B
:10B80000A04031F4E0610E4AC0B203005B1152F86F
:10B810002320C0B210F01F0352F8232012F4E0627C
:10B820001143074AC0B203005B1152F82320C0B293
:10B8300010F01F0342F8231010BC704738800440FA
:10B84000980BFF1F10B50400002C15D0B4F1807FB9
:10B8500003D329210F4800F03CF800200E4908606E
:10B860000E48046000200E49086005200A4908605F
:10B8700009480068C003FBD510BD10B504002000C6
:10B88000441E002804D007480068FFF7DBFFF6E7F6
:10B8900010BD00008C34010010E000E014E000E076
:10B8A00018E000E0280A0020DFF800F0790DFF1F03
:10B8B000DFF800F09D0DFF1FBFF34F8F4748016871
:10B8C00011F4E0614648014344480160BFF34F8FE3
:10B8D000FEE738B504000D00002000F08FF82A00C4
:10B8E0002100404800F0C2F8002000F0A4F84FF416
:10B8F0007A70FFF7C2FFF2E738B504000D002100AF
:10B9000049B2032000F013FA200032BD10B5002424
:10B91000042000F049FA042000F07CFA002841D10C
:10B92000002000F06BF8042000F074FA012801D127
:10B9300001200400002000F07EF82B4800F096F86B
:10B940004FF4FA70FFF799FFE4B2012CEBD1042019
:10B9500000F060FA0028E6D1042000F05BFA00282D
:10B9600006D1002000F067F86420FFF786FFF3E7B8
:10B97000042000F04FFA012806D1002000F05BF807
:10B980003220FFF77AFFF3E7184800F06FF8FFF76F
:10B990008BFF6420FFF771FF0020FFF789FFFFF79F
:10B9A0008BFFC0E710BD10B511480468012000F0FE
:10B9B00025F8012000F03FF80E48E4B20F2101FB0A
:10B9C00004F100EB0102E4B221000B4800F04EF854
:10B9D0004FF47A70FFF751FFEBE700000CED00E049
:10B9E0000400FA05D83801003C3A0100783901001A
:10B9F00004ED00E01004FF1F7438010010B50400CE
:10BA000064B2042C07DA01220121174864B2005DF8
:10BA1000FFF718FE0EE0042004002000441E40B290
:10BA2000002807D0012201210F4864B2005DFFF712
:10BA300009FEF2E710BD10B5040064B2042C05DA6B
:10BA4000094864B2005DFFF75CFE0CE004200400CE
:10BA50002000441E40B2002805D0034864B2005DB7
:10BA6000FFF74FFEF4E710BD500CFF1F0EB4C0B53A
:10BA7000024603A800210190009101AB0121044876
:10BA800078440C3000F070FA06BC5DF810FB00BF83
:10BA9000897F00002DE9F84304000D0064B2002CFA
:10BAA00008D0022C2CD018D3042C4FD03BD3052C1B
:10BAB0005FD071E0DFF8D802006850F48060DFF8F2
:10BAC000D01208604FF440716620FFF75DFE4FF41E
:10BAD00040716720FFF758FE5EE0DFF8B4020068AF
:10BAE00050F40060DFF8A81208604FF44071812024
:10BAF000FFF74AFE4FF440718020FFF745FE4BE010
:10BB0000DFF88C02006850F48050DFF8841208607F
:10BB10004FF440716320FFF737FE4FF4407162200D
:10BB2000FFF732FE38E0DFF86802006850F400509A
:10BB3000DFF85C1208604FF440715020FFF724FEDC
:10BB40004FF440715120FFF71FFE25E0DFF844025B
:10BB5000006850F48060DFF83C1208604FF44071D8
:10BB60004E20FFF711FE4FF440714F20FFF70CFEFF
:10BB700012E0DFF82002006850F40060DFF81412D1
:10BB800008604FF440718920FFF7FEFD4FF44071CB
:10BB90008820FFF7F9FDFFE7DFF8FC0164B250F8F9
:10BBA0002400C07810F0F300DFF8EC1164B251F813
:10BBB0002410C870DFF8E00164B250F824008078E7
:10BBC000DFF8D41164B251F82410887064B2002CEC
:10BBD00002D064B2012C07D1DFF8C00101684FF434
:10BBE0007A704143894606E0DFF8B40101684FF4FA
:10BBF0007A70414389462801B9FBF0F00600B6B2DD
:10BC0000B6F5005F02DB41F6FF700600B9FBF5F008
:10BC1000B6B2B0EB06100700BFB2202F03DBDC2169
:10BC20006048FFF756FE5C4864B250F82400007884
:10BC300010F0E0008046C6F3042050EA08005649A0
:10BC400064B251F824100870534864B250F82400CC
:10BC50004670514864B250F82400807A10F0E00039
:10BC6000804617F01F0050EA08004B4964B251F8B3
:10BC700024108872484864B250F82400007C50F0C8
:10BC80008800454964B251F824100874424864B2EF
:10BC900050F82400C07850F00C003F4964B251F8CD
:10BCA0002410C870BDE8F18302003B4852B250F83E
:10BCB0002200807D002808D0374852B250F8220078
:10BCC00090F907000870012002E0002008700020B1
:10BCD00070472DE9F04104000D0016005FF00008E8
:10BCE0000020070042F2107087421AD205EB0801CB
:10BCF000200040B2FFF7D8FF002810D00020070036
:10BD000015F90800002801D140460EE018F101089D
:10BD1000B045EBD3002005F80800404605E07F1C45
:10BD2000E0E7002005F808004046BDE8F0811A4A27
:10BD300040B252F8202012791206F8D5164A40B2C5
:10BD400052F82020D171704770B504000D00160024
:10BD50003000461E002809D095F90000010049B2C4
:10BD6000200040B2FFF7E3FF6D1CF1E770BD38B56E
:10BD700004000D002878002809D095F90000010082
:10BD800049B2200040B2FFF7D2FF6D1CF2E731BD8F
:10BD90003480044028800440AC0BFF1F280A002098
:10BDA000300A00200037010010B5040064B2082CEE
:10BDB0000DDA00220021664864B2005DFFF742FC04
:10BDC0000321634864B2005DFFF703FD14E008201F
:10BDD00004002000441E40B200280DD000220021A3
:10BDE0005B4864B2005DFFF72DFC0321584864B244
:10BDF000005DFFF7EEFCECE710BD10B50400544801
:10BE000064B2005DFFF79BFC002801D1002000E038
:10BE1000012010BD10B50400200040B2FFF7EDFF77
:10BE200000280AD10A20FFF728FD200040B2FFF7C2
:10BE3000E4FF002801D1002000E0012010BD01B482
:10BE40004449097802292AD09DF80010424A434B00
:10BE50001B7802F813109DF801103F4A3F4B1B78E6
:10BE600002EB430251703D490978491C3B4A11706D
:10BE70003A490978142902DB0021384A1170374900
:10BE8000097808000100364A1278C9B2914203D1FC
:10BE90000221304A117002E001212E4A117001B0D6
:10BEA000704710B582B00020040064B2082C4EDA4E
:10BEB000200040B2FFF7A1FF002835D1294864B225
:10BEC000005D401C274964B20855264864B2005DF5
:10BED00002283ADB234864B2005D022808D18DF8BD
:10BEE000004000208DF801000098FFF7A8FF2CE02B
:10BEF0001C4864B2005D332827DB1A4864B2005D39
:10BF000033280CD18DF8004002208DF801000098F4
:10BF1000FFF795FF0220134964B2085515E002208F
:10BF2000104964B2085510E00E4864B2005D022862
:10BF300007DB8DF8004001208DF801000098FFF725
:10BF40007EFF0020074964B20855641CADE713BDAD
:10BF5000480CFF1FC80A0020340A0020C70A00202E
:10BF6000C60A00205C0A00202DE9F0439FB08146FC
:10BF70002698DFF804898DF83B00174600201E46FE
:10BF800002910B900FF680344FF0FF350AE017F85E
:10BF9000011B0298C8470028029000F09A800B9875
:10BFA000401C0B90387850B12528F0D1002000219A
:10BFB000059006910790089109900A9103E00B986B
:10BFC0009AE041F0010117F8010F2028F9D0232849
:10BFD0000DD02B2804D02D2806D030280AD07AE0A6
:10BFE00041F0020189B2EEE741F00401FAE741F0C5
:10BFF0000801F7E741F01001F4E700200D9009E097
:10C000000D98404505DA00EB800302EB4302303A1D
:10C010000D927F1C3A78A2F130000A28F0D33A78CA
:10C020002E2A18BF0C9523D117F8010F2A2807D103
:10C03000306830607F1C50F8042B30600C9217E0A1
:10C040002D280CBF17F8010B002000220C920AE0EB
:10C0500040B90C9A424505DA02EB820203EB420337
:10C06000303B0C937F1C3B78A3F130020A2AEFD3BC
:10C07000ADF838102046397800F07AFD08B117F88D
:10C08000010B8DF83A009DF83A00682804BF397812
:10C09000682903D162208DF83A0007E06C2804BFBC
:10C0A00038786C2803D171218DF83A107F1C10A8C4
:10C0B0000490324617F8013B6946484600F05CF8A8
:10C0C00038B910AA6946484600F084F900287FF57F
:10C0D00069AF284610E02A288FD13068306050F8C8
:10C0E000042B3060002A0D9204D5524241F0040125
:10C0F0000D9289B27F1C92E71FB0BDE8F0836228E1
:10C1000020D0682811D06A2803D06C2827D0712845
:10C1100025D10868C01D20F007000860D0E9002381
:10C1200008300860194610467047002A0A680A60FD
:10C13000106803D0121D0A6000B217E0121D0A60D9
:10C1400080B217E0002A0A680A60106803D0121D46
:10C150000A6040B20AE0121D0A60C0B20AE0002A7A
:10C160000A680A60106803D0121D0A60C117704780
:10C17000121D0A600021704770B51C460D46B4F1CF
:10C1800025002E69114600F013812038022865D958
:10C19000133841D00B3816D0401E1ED0401E022846
:10C1A0005CD9001F19D0401F00F08380401E33D09F
:10C1B000401E00F0CD80C01E00F0D880801E2BD025
:10C1C000C01E29D0FAE06869421C6A610A680A60E8
:10C1D00052F8043B0A603354FAE095F83A00012221
:10C1E000FFF78DFFC5E900010023994204DA686971
:10C1F000411C69612D210DE0288F810704D56869F4
:10C20000411C69612B2105E0C00722D56869411CEA
:10C210006961202131541CE095F83A000022FFF7B3
:10C220006EFFC5E9000195F83800010711D5D5E981
:10C2300000230020834208BF82420AD044F020003D
:10C24000782806D1686930213154401C411C69614D
:10C250003454214668693044E86083E00868C01DB2
:10C2600020F007000860D0E9002308300860C5E925
:10C270000023D5E90001C80F04D06869411C696139
:10C280002D210DE0288F810704D56869411C696163
:10C290002B2105E0C00704D56869411C6961202194
:10C2A000315468693044E8602146284600F0C1F9FD
:10C2B0008EE005F13A02507820B14FF0FF340FF6CE
:10C2C00050005EE01078622808D0682824D06A28E0
:10C2D00012D06C282ED071280ED02BE00A680A608C
:10C2E00052F8040B0A6020B94FF0FF340FF6380003
:10C2F00047E0E96A01706BE00A680A6052F8040BD3
:10C300000A6020B94FF0FF340FF61C0039E0EA6AEA
:10C31000D317C0E900235BE00A680A6052F8040BF7
:10C320000A6020B94FF0FF340FF2FC7029E0E96A8F
:10C3300001804DE00A680A6052F8040B0A6020B9D7
:10C340004FF0FF340FF2E0701BE0E96A01603FE05C
:10C350000A680A6052F8040B0A600021C5E900016E
:10C36000EE607821284600F0BCF831E008680860EB
:10C3700050F8044B0860EC603CB94FF0FF340FF20A
:10C38000C07000F001FC201A70BD2E6B002E04D589
:10C39000204600F01BFC044608E0324600212046FF
:10C3A00000F030FC002814BF041B3446AC610FE0E1
:10C3B0006869411C69612521315409E06869411CA3
:10C3C000696125223254200002D0481C68617454EF
:10C3D000002070BD2DE9F0410F4682B00646796B12
:10C3E0007869BC6A091A386A091AB869091A786A38
:10C3F000091AF869091A97F838000C1B410790468A
:10C400000FD42021002C8DF800100ADD25460123D1
:10C410006A463946304600F05FFB00285DD16D1E4C
:10C42000F5D17B6942463946304600F055FB00287D
:10C4300053D130208DF800003D6A002D09DD012325
:10C440006A463946304600F047FB002845D16D1E4C
:10C45000F5D1BB69FA683946304600F03DFB00284B
:10C460003BD130208DF800007D6A002D08DD0123CE
:10C470006A463946304600F02FFB70BB6D1EF6D180
:10C48000F868B969FB6942183946304600F024FB68
:10C4900018BB30208DF80000BD6A002D08DD012397
:10C4A0006A463946304600F017FBB0B96D1EF6D12A
:10C4B00097F8380041070DD52021002C8DF8001089
:10C4C00008DD01236A463946304600F005FB20B9F5
:10C4D000641EF6D10020BDE8F6814FF0FF30BDE8C4
:10C4E000F6812DE9F04704468A462569BAF16F0FB7
:10C4F00008BF082705D04AF02000782814BF0A2773
:10C5000010273C26D4E90001BAF1640F18BFBAF134
:10C51000690F8046894607D10B4600218B4203DA1A
:10C52000D8F1000869EB49090020814508BF804522
:10C530001FD1206BE8B9082F47D194F838000107C4
:10C5400043D530203B2685F83B003EE000280ED541
:10C5500094F8380000F01400102808D1626B60696C
:10C56000121A206A121A561A002EC8BF2662BDE897
:10C57000F087404649463A46FB1700F06FFB3032E1
:10C58000761ED2B23A2AA4BFAAF151008218AA5547
:10C59000404649463A46FB1700F060FB8046894614
:10C5A0000020814508BF804503D0E068A919884272
:10C5B000DFD3082F09D194F83800010705D5A95D0C
:10C5C000302902D0761E3020A855A819E060C6F1A7
:10C5D0003C01206BA1618142B8DA411A21624FF619
:10C5E000EF70218F01402187BDE8F0872DE9D0430E
:10C5F00006460F4614464FF00008DFF8809212E01E
:10C60000E00707D542464B463046394600F09EFBD0
:10C6100006460F464046494642464B4600F096FBCA
:10C62000641080468946002CEAD130463946BDE880
:10C63000D0832DE9F04F04468FB0206BD4E9009AE7
:10C640000028884604AD48BF062005D404BF48F042
:10C650002000672801D101202063D4E9002358007D
:10C660004015401C0DD119030BD0A8F16101032026
:10C670001A29A06102D20FF2E44110E00FF2E0416A
:10C680000DE058004015401C0ED119030CD1A8F143
:10C69000610103201A29A06116D30FF2CC41E06892
:10C6A000032200F01DFCE3E0CDE9022323F000416A
:10C6B000B1F5801F11D20026B14208BFB2420196E7
:10C6C00005D1DDE9020118E00FF29841E7E7DDE965
:10C6D000020101AA00F058FC08E0694E06EB115671
:10C6E000684901960B40684910461943019F674A03
:10C6F00047F29756774397FBF2F6C4E900010246EA
:10C7000021F000430020834204BF8242002300F056
:10C71000A780484651460022002300F06DFC38BF38
:10C720008AF0004A3246D2F10702019603DD5146F3
:10C73000FFF75CFF0AE0524200205549FFF756FF21
:10C7400002460B464846514600F06EFC814648F0D2
:10C75000200BBBF1660F206B06BF019E0A36062632
:10C760003618142EC8BF142630208A468DF81000C3
:10C770000DF11107002E33DD4846514600F078FDDB
:10C7800001460A4607F1080304200A27B2FBF7F71F
:10C7900007EB8705A2EB4502303203F8012C0A2291
:10C7A000B7FBF2F202EB8205A7EB45073037401EDC
:10C7B00003F8027DE9D1083E002E03F10807D9DD18
:10C7C000084600F069FD02460B464846514600F017
:10C7D00071FD00222F4B00F0B9FA81468A46CBE763
:10C7E0000DF111003F1A0DF1110504E00198401EF2
:10C7F0007F1E01906D1C28783028F7D0BBF1660FA2
:10C8000002D10198401C04E0BBF1650F0CBF012070
:10C810000020236BC3189F42B8BF7B1E002B1ED481
:10C82000BB4204DAE85C3528A8BF392000DA3020A2
:10C8300019466A1E02EB010900E05B1E19F801A906
:10C84000491E8245F9D0392802D1685C401C6854E1
:10C85000002904D50198401C15465B1C01900198E5
:10C8600000B200901BB22A464146204600F014F860
:10C870000FB0BDE8F08F0000CBCCCC0C0000244002
:10C8800002FCFFFFFFFF0F800000E03FA0860100D9
:10C890000000F03F84D797412DE9F04784B005466A
:10C8A000894692461F4600F077FD002F406A2E6BA6
:10C8B00090F8008002DC01270FF2B02ABDF9304069
:10C8C00049F02000662808BF641C13D0672840F098
:10C8D000898014F1040F74DBB44272DA95F83800E1
:10C8E000641C010702D4B742B8BF3E4624B2361BCF
:10C8F00048BF002624B2E868A969002C22DC4A1C43
:10C9000030234354002E03DC95F83800010703D58B
:10C91000E86800F80280521CE642B8BF744224B2B4
:10C92000A6196042BE42B8BF3746AA6168623FB2EC
:10C93000EF61E868AB693A465146184400F0D0FA16
:10C94000F61B18E022469742084416DA3A4651464A
:10C9500000F0C6FAA9697918E01B002EA961686287
:10C9600003DC95F83800020705D5E86800F8018077
:10C97000E869401CE861AE6297E0514600F0B0FA09
:10C98000A86920183F1B002E03DC95F838100A0711
:10C9900003D5E96801F80080401CA8613FB2BE429F
:10C9A000B8BF3746E868AB693FB23A460AEB0401C4
:10C9B000184400F095FAA8693818A861F61B6E6251
:10C9C00073E0B74204DA95F838100A0758BF3E46BC
:10C9D000761E48BF0026B9F1670F0CBF4FF06509FE
:10C9E0004FF04509A969EB68481CA861002E1AF8A8
:10C9F000012B5A5403DC95F838100A0717D5E9685B
:10CA0000431CAB6101F80080002E10DD7F1E3FB299
:10CA1000BE42B8BF3746E8683FB23A46514618446E
:10CA200000F05EFAA8693818A861F61B6E62E86823
:10CA3000A9690844002C80F8009004D42B2141708F
:10CA400000F1020A04E02D21417000F1020A644263
:10CA500000206A460AE021460A2391FBF3F404EB26
:10CA60008403A1EB430102F8011B401C24B2002CFB
:10CA7000F1DC012806DC49F02001652904BF3021E2
:10CA80000AF8011B48B930200AF8010B07E0401EE4
:10CA90001DF8001030310AF8011B0028F7DCE868A7
:10CAA000A9690844AAEB0000E86195F8380000F095
:10CAB000140010280DD16969A8694118686A4118E5
:10CAC000E8694118A86A4118686B8142BCBF411AE5
:10CAD000296204B0BDE8F087F8B505460E46174652
:10CAE0001C46002074B117F8011BB068A847B0605D
:10CAF00030B1F06A401CF0620020641EF3D1F2BD38
:10CB00004FF0FF30F2BD0000686A6C747A4C000090
:10CB10007072696E74665F733A20256E2064697363
:10CB2000616C6C6F776564007072696E74663A2030
:10CB300062616420256E20617267756D656E740098
:10CB40007072696E74665F733A2062616420257347
:10CB500020617267756D656E740000006E616E0015
:10CB60004E414E00696E6600494E46003000217EFF
:10CB70000278C9B28A421AB11CBF10F8012FF9E736
:10CB800018BF0020704701FE80B508B90FF21C00E5
:10CB900005490B681BB122220021984701E000F0F3
:10CBA00001FC222002BD0000680A0020636F6E7342
:10CBB000747261696E742068616E646C65723A208B
:10CBC000626164206D6573736167650000F1010344
:10CBD000810704D010F8011B89B18107FAD10268DE
:10CBE000B2F10131914311F0803F04BF50F8042F9E
:10CBF000F6E710F8011B11B110F8011BFBE7C01A92
:10CC00007047FE01C9B2830706D0521E22D310F826
:10CC1000013B9942F7D11FE0083A13D302F1040215
:10CC200041EA012141EA014150F8043B121F21BFB2
:10CC30004B40A3F1013C2CEA030C1CF0803FF3D0E5
:10CC4000C9B2001F083210F8013B521E28BF91EAFA
:10CC5000030FF8D818BF0120401E70471B4213D1A4
:10CC6000094236D12AB18446B0FBF2F002FB10C271
:10CC7000704700F09BBBFCD30022002370470B00E1
:10CC80000200002100207047904271EB030CF6D3A4
:10CC900070B5B1FA81F4B3FA83F52C1BA340C4F14B
:10CCA000200532FA05F63343A2405FF00046E64025
:10CCB00002E05B085FEA3202841A71EB030524BFCD
:10CCC000204629467641F4D302000B0030000021B3
:10CCD00070BD012ACFD970B5140C20D0B1FA81F4FF
:10CCE000B2FA82F5C4F120046419B4F12006D6D357
:10CCF000B2405FF00044F440002502E052085FEAD1
:10CD00003303C61A71EB020E24BF304671466441EC
:10CD10006D41F3D302000B002000290070BD0C46CA
:10CD2000B1FBF2F102FB11452D0445EA1045B5FBBC
:10CD3000F2F402FB145580B240EA0545B5FBF2F06F
:10CD400002FB105240EA044070BD0000B0B581EA19
:10CD5000030C0CF0004C40F2FF7515EA11541DBF96
:10CD600015EA1357AC42AF4231E0E41923EA4553C8
:10CD700043F48013C90241F0004141EA505EC7020A
:10CD8000A7FB02100029A2FB0E21E3FB6720E3FBB7
:10CD90006E0118BF42F00102A4F580640F0302D2B5
:10CDA00052004041494154F101046CDD470872F1E1
:10CDB000004250F1000051EB0451A1F580115CBF1D
:10CDC00041EA0C01B0BD4CEA05510020B0BD05EAB6
:10CDD0001357AC4214BFAF4241E050EA410E1CBFB2
:10CDE00052EA430E02E061460020B0BD24423C44BA
:10CDF0001BD15FEA070EF6D0090302BF01460020EF
:10CE0000AEF1140EB1FA81F7AEEB070401FA07FE9A
:10CE10000C37C7F1200100FA07F7C8404EEA000EB0
:10CE200023EA455343F48013AAE733F00043B3FAEF
:10CE300083F704BFB2FA82FE77440B3FE41BB7F1DD
:10CE4000200E2FBF02FA0EF3BB40C7F1200E22FACC
:10CE50000EFE38BF43EA0E03BA40641C8AE750EA6C
:10CE6000410E14BF52EA430E6FF000014FF4001759
:10CE700017EB430F8ABF194617EB410FB5E74CEA92
:10CE800005510020B0BDD4F10104B4F120070FDA40
:10CE9000C4F12007520828BF42F0010210FA07F53A
:10CEA00001FA07F7E1BF2A43E0403843E1400FE0D1
:10CEB000352C98DCC7F1200452EA400220FA07F230
:10CEC00018BF42F0010231FA07F0A1400A430021E5
:10CED00072F1004250F1000051EB0C01B0BD0000B6
:10CEE00062B38B0708D0521E11F8013B00F8013BDA
:10CEF00000F024808B07F6D1830740F0208000BF2C
:10CF0000103A07D330B4B1E83810103AA0E838101E
:10CF1000F9D230BC530724BFB1E80810A0E80810CC
:10CF200044BF51F8043B40F8043BD20724BF31F81A
:10CF3000022B20F8022B44BF0B7803707047121F9E
:10CF400017D35B0009D151F8043B20F8023B1B0CBE
:10CF5000121F20F8023BF6D20BE051F8043B00F818
:10CF6000013B1B0A20F8023B1B0C121F00F8013B7F
:10CF7000F3D238BF121D521E24BF11F8013B00F836
:10CF8000013BF8D87047000010B5144600F002F8D5
:10CF9000226010BDC1F30A5343B14A0012F5001FCD
:10CFA00028D2A3F2FE32A1EB0251704750EA410CA5
:10CFB00020D001F0004C31EA0C01B1FA81F204BF3B
:10CFC000B0FA80F3D2180B3AB2F120032CBF00FA6A
:10CFD00003F1914041EA0C013EBFC2F1200C20FA5E
:10CFE0000CF319439040524240F2FD33D21A01EB48
:10CFF00003517047002270474FF4001C1CEB410F97
:10D0000094BF1CEB430F09E041EA030C50EA4C0CBF
:10D0100052EA0C0C03D2994208BF9042704714BFE9
:10D020008B42824270470000F0B540F2FF7581EA02
:10D03000030C0CF0004C15EA11541DBF15EA1357F0
:10D04000AC42AF42E5E0BC41C1F31301C3F31303AB
:10D05000801A994143F4801304D2641E4000494170
:10D0600080185941C90241EA5051B1FBF3F603FB64
:10D070001611A2FB0675D7EBC020A94102D2761E7D
:10D0800080185941C90241EA5051B1FBF3FE03FB3C
:10D090001E11A2FB0E75D7EBC020A94103D2AEF141
:10D0A000010E80185941890241EA9051760546EAFD
:10D0B0008E2EB1FBF3F603FB1611A2FB0675D7EB20
:10D0C0008020A94102D2761E80185941C90241EA46
:10D0D00050514EEA060EB1FBF3F603FB1611A2FB0C
:10D0E0000675D7EBC020A94102D2761E801859419F
:10D0F000C90241EA5051B1FBF3F703FB1711A2FB40
:10D100000735D3EBC020A94167F100070CBF0042EF
:10D1100047F0010766F3D5274FEA1E31B80814F52A
:10D12000806412DDBD0775F1004250EB0E5051EBEB
:10D13000045111F5801F5CBF41EA0C01F0BD4CF0B9
:10D140007F6141F0E0410020F0BDBD076D0840EA7D
:10D150000E5041F48011D4F10104B4F120060ADA32
:10D16000C4F120060200E04001FA06F3E140184352
:10D17000B24015430EE0342C13DCC6F1200445EA1E
:10D1800040056D0820FA06F2154321FA06F0A14089
:10D190000D43002175F1004250F1000051EB0C01EC
:10D1A000F0BD00205FEA0C01F0BDCFB992185B41E1
:10D1B000B3FA83F704BFB2FA82F6BF190B3FB7F197
:10D1C00020062FBF02FA06F3BB40C7F1200622FA61
:10D1D00006F638BF3343BA401CB1E419641E33E786
:10D1E0007F4231F00041B1FA81F404BFB0FA80F619
:10D1F000A4190B3CB4F120062FBF00FA06F1A140A0
:10D20000C4F1200620FA06F638BF3143A0403C1B8B
:10D210001AE7AC421ABF05EA1357AF4212E050EAD0
:10D2200041061CBF52EA4306BFE750EA41073046B9
:10D2300061461CBF41EA0551F0BD52EA430C08BFEC
:10D24000C143F0BD00204FF4001616EB410F98BF0C
:10D2500016EB430F08BF16EB410F24BFC14305E097
:10D2600016EB430F0CBF61464CEA0551F0BD0000C0
:10D27000400D491840EA81200CD2490DA1F580618A
:10D28000491C40F0004005DBD1F11F0154BFC840EC
:10D29000C017704700207047014648B1B0FA80F1CE
:10D2A0008840C91CC1F58461090501EBD021400506
:10D2B0007047000070B44FF0004591EA030F40F151
:10D2C0007F806B40841A71EB030603D2001BB141CF
:10D2D000121973414FF4001C1CEB410F34BF7CEB5F
:10D2E000430442E00C0DA4EB1356352E4FDC45EA07
:10D2F000C323DB0A45EAC121C912B6F120050DDDC1
:10D3000063FA05F6EB4086EA0305124218BF45F0C2
:10D310000105C01851F100010CD213E062FA06F5C4
:10D32000F2405540F3415A40B340F3405A40801810
:10D33000594107D349085FEA30005FEA350528BF45
:10D3400045F0010501F58011420875F1004250F1E8
:10D35000000041EB04514E0016F5001F70BC38BFB1
:10D3600070470020090D090570471CEB410F10D2D2
:10D3700052EA43060BD0BCEB410F05D80C0DAB4372
:10D38000661E342EB6DD02E0AB438018594170BCF6
:10D39000704770BC704700000148704700000000F3
:10D3A000B80CFF1F012000F0BFB80000704700005C
:10D3B00070B44FF0004591EA030F7FF583AF6B40E7
:10D3C000841A71EB030604D26E40001BB14112199E
:10D3D00073414FF4001C1CEB410F34BF7CEB430640
:10D3E00082E00C0DA4EB1356362E7BDC012E45EAB1
:10D3F000C32341DC43EA525312BFD20292025B08BC
:10D40000240545EAC12141EA5051D2EBC02099419F
:10D4100025D407D1B0FA80F610FA06F162D00020C8
:10D42000203608E0B1FA81F6B140C6F1200220FAB8
:10D4300002F21143B0404FEAF474B4EB465434F0B6
:10D4400001064FEA74040AD8D6F50016760D04F0EA
:10D450000044F04061FA06F25040F1404840C00AF2
:10D4600040EA415021F0004128BF5FEA500550F1E9
:10D47000000044EBD12135E0DB0A45EAC121C90AAD
:10D48000B6F120050EDD42EA0242120CC5F120067B
:10D4900003FA06F6EB4042EA06056D42984161F157
:10D4A00000010DE062FA06F5F240554063FA06FC11
:10D4B00082EA0C02F3405A406D42904161EB030155
:10D4C00011F4801F05D1641E620502D06D00404139
:10D4D000494121F48011430875F1004350F10000E7
:10D4E00041EB045170BC70471CEB410F15D223F087
:10D4F000004352EA43060BD04FEA4C0CBCEB410F01
:10D5000004D80C0D661E342EB7DDEBE7801A994166
:10D5100050EA410608BF0021E4E708BF1CEB430FB7
:10D5200028BF6FF00001DDE7202109032631182014
:10D53000ABBEF9E7F0B40020002100250022502303
:10D54000502477263100752921DB4F26052E0CDB70
:10D55000DFF82C7B5FF0A00C0CFB01FC6744BF5D87
:10D560007E2F00D16D1C361FF0E79B26512E0CDB61
:10D57000DFF80C7B5FF0A00C0CFB01FC6744BF5D87
:10D580007E2F00D1521C361FF0E7491EDBE7954283
:10D5900003DA34263400230004E0AA4202DA6C26BF
:10D5A00034002300772631007529C0F2C1802000A5
:10D5B000DFF8D06A3668B04249DADFF8C46AA027DB
:10D5C00007FB01F73E44064436797E2E3DD1DFF855
:10D5D000B06AA02707FB01F73E440644B6787E2ECA
:10D5E00033D1DFF89C6AA02707FB01F73E44365C85
:10D5F000212E2AD1DFF8886AA02707FB01F73E44D5
:10D60000064416F8026C212E1FD1DFF8746AA02799
:10D6100007FB01F73E44064416F8046C212E14D192
:10D62000DFF85C6AA02707FB01F73E44064416F8C2
:10D63000066C212E09D10600761EDFF8FC7A7E5496
:10D640000026DFF8F87A7E5401E0401CB0E71800AD
:10D65000DFF8EC6A3668864247DADFF8246AA027EA
:10D6600007FB01F73E44064416F8026C7E2E3AD1C1
:10D67000DFF80C6AA02707FB01F73E44064416F8C2
:10D68000016C7E2E2FD1DFF8F869A02707FB01F788
:10D690003E44365C212E26D1DFF8E469A02707FB43
:10D6A00001F73E4406447678212E1CD1DFF8D0697C
:10D6B000A02707FB01F73E440644B678212E12D17D
:10D6C000DFF8BC69A02707FB01F73E440644F67863
:10D6D000212E08D1461CDFF86C7A7E540026DFF834
:10D6E000687A7E5401E0401EB2E7DFF84C6A765C4F
:10D6F000DFF8587AD1F1000C674487F87760DFF8DB
:10D70000446A765CDFF84C7AD1F1000C674487F804
:10D710007760DFF8246A765CDFF8287A7F5CBE19D0
:10D72000022796FBF7F6DFF8307A7E54491E3BE776
:10D73000DFF8206A3678DFF81C7A7F78BE19DFF8C8
:10D74000147ABF78F619032796FBF7F6DFF8107AFC
:10D750003E60DFF8F8693678DFF8F0797F78BE1937
:10D76000DFF8E879BF78F619032796FBF7F6DFF8BC
:10D77000F8793E60F0BC70472DE9F04700240025A1
:10D780000A26DFF8BC09D0F80090DFF8F808D0F8D6
:10D7900000A074200500DFF8CC0900688542C0F2C3
:10D7A0001181DFF89C090068DFF8B4190968891B4A
:10D7B000884204DADFF8A8090068801B8146DFF898
:10D7C000A00900683018DFF8BC180968884205DA3B
:10D7D000DFF88C0900683018070003E0DFF8A408C0
:10D7E00000680700DFF858090068DFF85819485545
:10D7F000FFB23C005FFA89F9A1453DDADFF8800805
:10D80000A02101FB05F10844005D7E2832D1DFF83C
:10D810007008A02101FB05F10844204410F8010C18
:10D820007E2827D1DFF85808A02101FB05F1084424
:10D83000204410F8020C7E281CD1DFF84408A021F7
:10D8400001FB05F1084420444078212812D1DFF87B
:10D850003008A02101FB05F10844204480782128EC
:10D8600008D1A01CDFF8DC1848550020DFF8D818D4
:10D87000485501E0641EBDE7DFF8C808405DDFF8E9
:10D88000E0180860DFF8BC08405DDFF8B4180968EC
:10D8900088420AD12800C0B200F071F9DFF8A4185C
:10D8A0004855C0B2DFF8B8180860DFF8BC08006857
:10D8B0003018DFF8D0170968884205DADFF8A808C1
:10D8C00000683018824603E0DFF8B8070068824637
:10D8D000DFF86C080068DFF890180968891B884237
:10D8E00005DADFF884080068801B804603E0DFF873
:10D8F000500800688046DFF88C070068DFF83818A9
:10D9000048555FFA88F844465FFA8AFA54453EDA89
:10D91000DFF86C07A02101FB05F10844005D7E28BB
:10D9200033D1DFF85C07A02101FB05F10844204456
:10D9300040787E2829D1DFF84807A02101FB05F1B6
:10D940000844204480787E281FD1DFF83407A021C6
:10D9500001FB05F10844204410F8010C212814D1E2
:10D96000DFF81C07A02101FB05F10844204410F852
:10D97000020C212809D12000801EDFF8BC17485571
:10D980000020DFF8B817485501E0641CBCE7DFF859
:10D99000A807405DDFF8D0170860DFF89C07405DFE
:10D9A000DFF8E016096888420AD12800C0B200F00A
:10D9B000F3F9DFF884174855C0B2DFF8AC170860F8
:10D9C0006D1EE8E6BDE8F087F0B4002100220023D8
:10D9D00000244F2574260A2EC0F2CF80DFF8680796
:10D9E000805D002810D1DFF85407805D00280BD13E
:10D9F000DFF85007805DDFF84077BF5D38180227F9
:10DA000090FBF7F00500A1E0DFF83C07805D0028FF
:10DA100038D0DFF82807805D002833D0DFF82807EA
:10DA2000805D012819D1DFF81407805D012814D129
:10DA3000DFF8240730444078DFF81C773744BF789C
:10DA400057FA80F0DFF810773744FF7850FA87F004
:10DA5000032790FBF7F0050078E0DFF8FC06304480
:10DA6000C078DFF8F4763744BF7857FA80F0DFF8F3
:10DA7000E87637447F7850FA87F0032790FBF7F079
:10DA8000050063E0DFF8C006805D00282DD1DFF8D7
:10DA9000AC06805D002828D0DFF8D8060078401C4E
:10DAA000DFF8D0763870DFF89406304440780128EB
:10DAB0000BD1DFF8940630444078012805D1DFF817
:10DAC000980630444078050040E0DFF88C0630448A
:10DAD0004078DFF87076BF5D57FA80F7DFF86406AC
:10DAE000304440783F1A3D0030E0DFF85C06805D4E
:10DAF00000282BD0DFF84406805D002826D1DFF80F
:10DB000070080078401CDFF868783870DFF82C0661
:10DB10003044407801280BD1DFF82C06304440789F
:10DB2000012805D1DFF830063044407805000DE0CB
:10DB3000DFF8240630444778DFF8FC0530444078AD
:10DB40003F1ADFF8F405805D38180500DFF834056A
:10DB50000068A84203DADFF82C0500680500DFF84A
:10DB6000E0050068854203DADFF8D40500680500A7
:10DB7000DFF8E4058555761E2DE7F0BC7047F0B45C
:10DB80000100DFF8BC050468DFF8F8040568162614
:10DB9000DFF8AC050068DFF8AC75C9B20F447F78D8
:10DBA000BF1BB84206DADFF89C05C9B208444078CA
:10DBB000801B0400DFF88C05C9B20844407856FA8F
:10DBC00080F0DFF8C0743F68B84207DADFF8740508
:10DBD000C9B2084440783018030003E0DFF8A40419
:10DBE00000680300DBB21A00E4B2944242DADFF8C4
:10DBF0009004C9B2A02707FB01F73844805C7E2857
:10DC000036D1DFF87C04C9B2A02707FB01F73844FE
:10DC1000104410F8010C7E282AD1DFF86404C9B240
:10DC2000A02707FB01F73844104410F8010C7E28A8
:10DC30001ED1DFF84C04C9B2A02707FB01F7384416
:10DC400010444078212813D1DFF83404C9B2A0274A
:10DC500007FB01F7384410448078212808D10020C0
:10DC6000DFF8E474C9B27854921C1000C0B291E09D
:10DC7000521EB9E7DFF8CC04C9B2084440784E28F8
:10DC80005BDADFF8B404C9B208444078532854DBA7
:10DC900050200200DFF8A804006890424DDADFF857
:10DCA000E003C9B2A02707FB01F73844805C7E2857
:10DCB00041D1DFF8CC03C9B2A02707FB01F73844F4
:10DCC000104410F8010C7E2835D1DFF8B403C9B236
:10DCD000A02707FB01F73844104410F8020C7E28F7
:10DCE00029D1DFF89C03C9B2A02707FB01F738440C
:10DCF0001044407821281ED1DFF88403C9B2A02740
:10DD000007FB01F7384410448078212813D1DFF84D
:10DD10007003C9B2A02707FB01F738441044C0784C
:10DD2000212808D10020DFF82074C9B27854921C51
:10DD30001000C0B22EE0521EACE7DFF84403C9B2B7
:10DD4000A02707FB01F73844DFF8F873C9B20F4486
:10DD50007F78C05D212804D10120DFF8EC73C9B2BF
:10DD60007854DFF81C03C9B2A02707FB01F7384439
:10DD7000DFF8D073C9B20F447F78C05D7E2804D12C
:10DD80000220DFF8C473C9B27854DFF8B803C9B20F
:10DD900008444078F0BC7047F0B40100B94803680B
:10DDA0001625DFF89403C9B20844407855FA80F08C
:10DDB000B44E3668B04208DADFF87C03C9B20844D2
:10DDC000407855FA80F0030002E0AE480068030096
:10DDD000DFF86C030068DFF86063C9B20E44767840
:10DDE000761BB04207DADFF85003C9B20844407826
:10DDF000401B020003E0DFF8480300680200100047
:10DE00000400E4B29C4240DA9D48C9B2A02606FB59
:10DE100001F63044E4B2005D7E2834D19848C9B29E
:10DE2000A02606FB01F63044E4B2204440787E2868
:10DE300029D19348C9B2A02606FB01F63044E4B2CA
:10DE4000204480787E281ED18D48C9B2A02606FBCA
:10DE500001F63044E4B2204410F8010C212812D11C
:10DE60008748C9B2A02606FB01F63044E4B220443C
:10DE700010F8020C212806D10020B04EC9B270540F
:10DE8000A01EC0B27FE0641CBBE7AE48C9B2084424
:10DE900040784E2851DAA848C9B20844407853283F
:10DEA0004BDB5020774E3668B04246DA744EC9B22A
:10DEB000A02707FB01F73E44365C7E2E3BD1704E17
:10DEC000C9B2A02707FB01F73E44064476787E2EB0
:10DED00031D16B4EC9B2A02707FB01F73E4406447F
:10DEE000B6787E2E27D1664EC9B2A02707FB01F770
:10DEF0003E44064416F8016C212E1CD1604EC9B276
:10DF0000A02707FB01F73E44064416F8026C212EB9
:10DF100011D15B4EC9B2A02707FB01F73E4406446E
:10DF200016F8036C212E06D10026844FC9B27E5408
:10DF3000801EC0B227E0401CB4E75148C9B2A026F9
:10DF400006FB01F630447C4EC9B20E447678805D03
:10DF5000212803D10120794EC9B270544848C9B272
:10DF6000A02606FB01F63044734EC9B20E44767803
:10DF7000805D7E2803D10220704EC9B270546E4875
:10DF8000C9B208444078F0BC704750207549096810
:10DF900088422CDB6C49095C022910D16A49014492
:10DFA00011F8011C02290AD16749014411F8021C29
:10DFB000022904D1401CDFF85014086017E05028F3
:10DFC00013DA6049095C97290FDB5E4901444978FF
:10DFD0008D290ADB5B49014449785A4A125C914217
:10DFE00003D2DFF82414086001E0401ECEE7502081
:10DFF0005C49096888422CDB5049095C022910D130
:10E000004E49014411F8011C02290AD14B4901442F
:10E0100011F8021C022904D1401CDFF8F01308603B
:10E0200017E0502813DA4449095C0A290FDA4249FB
:10E030000144497814290ADA3F49095C3E4A0244FE
:10E040005278914203D2DFF8C413086001E0401E09
:10E05000CEE7DFF8B8030068DFF8AC130968884240
:10E0600006DADFF8A8030068DFF8A413086005E00B
:10E07000DFF894030068DFF8981308607047000029
:10E080002CBCFF1F080CFF1F10B50024DFF8840311
:10E090000068012812D1DFF8800390ED000ADFED5F
:10E0A0002C0AB4EE600AF1EE10FA24DBDFF86C0300
:10E0B000006800281FD100F0BFF91CE0DFF854030E
:10E0C0000068002817D1DFF8500390ED000ADFED5B
:10E0D000230AB4EE600AF1EE10FA07D5DFF83C032C
:10E0E0000068002807D100F0A7F904E04FF416609B
:10E0F000DFF82C13088000F03DF9DFF81C0390EDE9
:10E10000000ADFED1A0AB4EE600AF1EE10FA02D549
:10E1100000F032F80CE0DFF8000390ED000ADFEDCC
:10E12000140AB4EE600AF1EE10FA01DB00F0F8FC1C
:10E1300000F066FC10BD00004008002040090020EF
:10E14000040CFF1F50070020C8080020C40800204E
:10E1500001C04145C0080020C80700200000FA4364
:10E16000B8080020180CFF1FBC0800200000164350
:10E1700001004845C10A00202DE9F0410024002596
:10E1800000260027DFF89C0290F84800DFF898127C
:10E1900091F848108842C0F29080DFF89012014454
:10E1A00042F6FE42895C7E2920D1DFF880120144CC
:10E1B00042F6FF42895C7E2918D1DFF870120144D3
:10E1C00011F5345109787E2910D1DFF8601201442D
:10E1D00042F60152895C212908D1DFF8501201442E
:10E1E00042F60252895C212900D10400002C62D041
:10E1F000DFF83812014442F6FE42895C21295AD1E7
:10E20000DFF82812014442F6FF42895C212952D1ED
:10E21000DFF81812014411F5345109787E294AD1EA
:10E22000DFF80812014442F60152895C7E2942D18E
:10E23000DFF8F811014442F60252895C7E293AD196
:10E240000500611B0E00092E35DBDFF8E41191F8A3
:10E250004810A14214DADFF8D81191F84810A94209
:10E260000EDA0120DFF894170860DFF8AC0190EDBA
:10E27000000ABDEEC00ADFF8BC0180ED000A1CE018
:10E28000DFF8AC1191F848108C4214DADFF8A011D5
:10E2900091F848108D420EDA0220DFF8601708600E
:10E2A000DFF8740190ED000ABDEEC00ADFF88401CA
:10E2B00080ED000A01E0401E68E7DFF878010068A1
:10E2C000002836D0DFF834070068012816D15FF047
:10E2D0006408DFF83C01006880452ADB7FF0060215
:10E2E000DFF84C0110F80810404600F0FFFCDFF8A2
:10E2F000401101F80800B8F10108EAE7DFF8FC0670
:10E300000068022815D15FF06408DFF80401006896
:10E3100080450EDB0722DFF8180110F80810404690
:10E3200000F0E4FCDFF8081101F80800B8F101087A
:10E33000EBE7DFF8000190ED000AB8EEC00ADFF865
:10E34000D800D0ED000A30EEC00ADFED080AB4EEC6
:10E35000600AF1EE10FA07DB0020DFF8D810086041
:10E360000020DFF898160860BDE8F0810000C84280
:10E37000C00A00200A21C9B200EE101AB8EE400A05
:10E38000DFF8B806D0ED000AF4EE400AF1EE10FA1C
:10E3900028D5DFF87C000268DFF8A4060068121AAE
:10E3A000022A1FDA0B20DFF89C261070DFF898068F
:10E3B0000268DFF898060068121AB2F5A87F19DB28
:10E3C000DFF884060068DFF884261060DFF8800636
:10E3D0000068401CDFF8782610600020DFF8742603
:10E3E000106007E00020DFF85C2610700020DFF8E6
:10E3F00060261060DFF858060068002803D00B2064
:10E40000DFF8402610707047100CFF1F140CFF1F20
:10E410000C0CFF1FC40BFF1F440CFF1FD009002072
:10E420003C0DFF1F40080020500700202CBCFF1FA0
:10E43000C8070020D80900202DE9FC4F0023002048
:10E4400001900024002500260027002000215FF015
:10E45000000C5FF0000E00225FF000085FF06D0915
:10E46000DFF8F8A5DAF800A0D145C0F22082DFF885
:10E47000F0A5CA449AF802B0DFF8E8A5CA449AF8B1
:10E4800002A0BBEB0A0ACDF800A0DFF8D4A51AF869
:10E4900009A0DFF8D0B51BF809B0BAEB0B0BDDF81B
:10E4A00000A0DA4580F2AA80DFF8B4A51AF809B016
:10E4B000DFF8B0A51AF809A0BBEB0A0ACDF800A056
:10E4C000DFF89CA5CA441AF802ACDFF898B5CB4433
:10E4D0001BF802BCBAEB0B0BDDF800A0DA4580F2AA
:10E4E0008D80DFF87CA5CA441AF802BCDFF874A559
:10E4F000CA441AF802ACBBEB0A0ACDF800A0DFF858
:10E5000060A5CA441AF804ACDFF858B5CB441BF830
:10E5100004BCBAEB0B0BDDF800A0DA456EDADFF8CD
:10E5200040A5CA449AF802A0DFF834B51BF809B038
:10E53000DA4563D2DFF828A51AF809A0DFF820B57C
:10E54000CB441BF802BCDA4558D2DFF814A5CA4404
:10E550001AF802ACDFF808B5CB441BF804BCDA4566
:10E560004CD2DFF800A51AF809A0DFF8F8B4CB44C4
:10E570009BF802B0DA4518D2DFF8E8A4CA441AF8CA
:10E5800002ACDFF8E0B41BF809B0DA450DD2DFF8D1
:10E59000D4A4CA441AF804ACDFF8C8B4CB441BF8BE
:10E5A00002BCDA4501D25B1C02E05FF0000A534670
:10E5B000012B23DB5FF0080ADFF888B48BF800A09A
:10E5C0005FF0010ADFF8A0B4CBF800A019F105094B
:10E5D000DFF898A4CAF80090DFF89494D9F8009076
:10E5E000B9F1000F09D1DFF88C9499ED000ABDEE66
:10E5F000C00ADFF87C9489ED000A58E1002836D182
:10E60000DFF85CA4CA449AF802A0DFF854B4CB4403
:10E610009BF804B0DA452AD2DFF844A41AF809A01E
:10E62000DFF83CB4CB449BF802B0DA451FD2DFF8E8
:10E6300030A41AF809A0DFF828B4CB441BF802BCB8
:10E64000DA4514D2DFF818A4CA441AF802ACDFF88D
:10E6500010B4CB441BF804BCDA4508D2DFF800A4A0
:10E660001AF809A054464D465FF0010A50460029A9
:10E6700036D1DFF8F0A3CA449AF804A0DFF8E4B377
:10E68000CB449BF802B0DA452AD2DFF8D8A3CA44BB
:10E690009AF802A0DFF8CCB31BF809B0DA451FD214
:10E6A000DFF8C0A3CA441AF802ACDFF8B8B31BF80D
:10E6B00009B0DA4514D2DFF8ACA3CA441AF804ACA6
:10E6C000DFF8A0B3CB441BF802BCDA4508D2DFF870
:10E6D00094A31AF809A056464F465FF0010A514626
:10E6E00051EA000ABAF1000F00F0DE80002807D0DE
:10E6F000002905D1DFF880A31AF805A0D446AE465C
:10E70000002808D1002906D0DFF86CA31AF807A06A
:10E71000D446BE4615E0DFF860A31AF807A0DFF87C
:10E7200058B31BF805B01BEB0A0A5FF0020B9AFB0B
:10E73000FBFAD44615EB050A5FF0020B9AFBFBFAD5
:10E74000D646DFF8D8A35FF0A00B0BFB09FBDA4439
:10E75000E2449AF880A2BAF1210F37D1DFF8BCA3C6
:10E760005FF0A00B0BFB09FBDA44E2449AF840A1EE
:10E77000BAF1210F2AD1DFF8A4A35FF0A00B0BFBA5
:10E7800009FBDA441AF80CA0BAF17E0F1ED1DFF8AB
:10E790008CA35FF0A00B0BFB09FBDA44E244BAF553
:10E7A000A07A9AF800A0BAF17E0F0FD1DFF86CA31F
:10E7B0005FF0A00B0BFB09FBDA44E244BAF5207AC8
:10E7C0009AF800A0BAF17E0F00D14A46002A6BD019
:10E7D000DFF848A35FF0A00B0BFB09FBDA44E2442F
:10E7E0009AF880A2BAF17E0F5ED1DFF830A35FF015
:10E7F000A00B0BFB09FBDA44E2449AF840A1BAF102
:10E800007E0F51D1DFF814A35FF0A00B0BFB09FBC7
:10E81000DA441AF80CA0BAF1210F45D1DFF8FCA2B6
:10E820005FF0A00B0BFB09FBDA44E244BAF5A07AD7
:10E830009AF800A0BAF1210F36D1DFF8E0A25FF01C
:10E84000A00B0BFB09FBDA44E244BAF5207A9AF8F4
:10E8500000A0BAF1210F27D1C846B2EB080ABAF1DD
:10E86000030F21DB5FF00809DFF8D8A18AF80090D8
:10E870005FF00109DFF8F0A1CAF80090DFF8EC9131
:10E88000C9F800E0DFF8E891D9F80090B9F1000F7D
:10E8900009D1DFF8E09199ED000ABDEEC00ADFF87A
:10E8A000D09189ED000A02E0B9F10109D8E5DFF85D
:10E8B000F892D9F80090B9F1010F32D1DFF8A891A0
:10E8C000D9F80090B9F1010F65D1DFF8A491D9F81A
:10E8D0000090B9F1000F5ED0DFF89091D9F8009068
:10E8E000DFF878A1DAF800A0D14554DBDFF87CA18D
:10E8F000DAF800B0BBEB090B1BF1500BDFF878A185
:10E900000AF809B05FF0000BDFF8A4A20AF809B01A
:10E910005FF0000BDFF89CA20AF809B0B9F1010919
:10E92000DEE7DFF88492D9F80090B9F1000F32D118
:10E93000DFF83491D9F80090B9F1010F2BD1DFF84D
:10E940003091D9F80090B9F1000F24D0DFF81C9174
:10E95000D9F80090DFF804A1DAF800A0D1451ADB5D
:10E96000DFF808A1DAF800B0DBF1500B19EB0B0B64
:10E97000DFF804A10AF809B05FF0000BDFF830A25D
:10E980000AF809B05FF0000BDFF828A20AF809B016
:10E99000B9F10109DEE7DFF8D89099ED000AB8EE89
:10E9A000C00ADFF8D090D9ED000A30EEC00ADFEDE2
:10E9B0002A0AB4EE600AF1EE10FA1DDB5FF00009DE
:10E9C000DFF880A08AF800905FF00009DFF898A0D7
:10E9D000CAF800905FF00009DFF894A0CAF8009030
:10E9E0005FF00009DFF884A0CAF800905FF0010929
:10E9F000DFF8C4A1CAF80090BDE8F38FD409002065
:10EA0000DFF8B8010078012816D100200021C9B232
:10EA1000A0290BDADFF80421C9B20A4444F66023C6
:10EA2000D25C7E2A00D1401C491CF0E79D2803DB04
:10EA30000021DFF88821117070470000CC09002008
:10EA4000180CFF1FBF0A0020200A0020240A002003
:10EA5000C0090020C4090020000020420C0CFF1F48
:10EA60004008002050070020E4090020E0090020B1
:10EA7000DC090020440CFF1FC807002000209FED88
:10EA8000480ADFED470A00224E4B1A704E4A1268C0
:10EA90004B4B1B689A4203DA494A1268110002E0A4
:10EAA000494A126811005A22100088422ADB404A63
:10EAB000125C012A03D13F4A125C012A20D03C4A51
:10EAC000125C022A03D13B4A125C022A18D03F4A48
:10EAD000125C01EE102AB8EE411A0A2290FBF2F203
:10EAE0003B4B03EB8202D2ED001A9FED2E2A01EE82
:10EAF000612A72EE200A334A1278521C314B1A7086
:10EB0000401ED2E72F4A127801EE102AB8EE411AC1
:10EB100080EE811AB0EE410A704700002CBCFF1F46
:10EB2000002026490978012938D12A4991ED000AA7
:10EB3000DFED1E0AB4EE600AF1EE10FA2EDB0221C0
:10EB4000C9B29D292ADA244AC9B20A4443F681632C
:10EB5000D25C7E2A18D1204AC9B20A4412F57A52F0
:10EB600012787E2A10D11C4AC9B20A4443F67F6348
:10EB7000D25C212A08D1184AC9B20A4443F67E63FE
:10EB8000D25C212A00D1401C052805DB00210800A9
:10EB900000210A4A117001E0491CD1E770470000CA
:10EBA0000000000000009E42C40BFF1F010048430C
:10EBB000C808002040090020D0090020BE0A00201B
:10EBC0000C0CFF1FC20A0020240CFF1FC8070020E6
:10EBD000D40BFF1F440CFF1F2CBCFF1F30B5ADF53D
:10EBE000164D81B09FED700ADFED700A9FED701A2F
:10EBF000F2EE001A9FED6F2A0DF596406F494FF423
:10EC00009642FEF77DF968466D494FF49642FEF74D
:10EC100077F96C4800210160F0EE002AB0EE403A2E
:10EC200000EEE23A684880ED003AF0EE002AB0EEDD
:10EC3000403A01EEE23A6448D0ED002AC2EE832A5F
:10EC4000BFEE003A72EE832A6048C0ED002A5F48AA
:10EC5000D0ED002AB0EE613A01EEA23A73EE602ADE
:10EC60005B48C0ED002A5948D0ED002AB0EE423A88
:10EC700002EE223A73EE412A5648C0ED002A564869
:10EC8000C0ED000A554880ED001A00200500EDB2E5
:10EC9000782D27DA00200400E4B2A02C20DA5048B6
:10ECA000EDB2A02101FB05F10844E4B26946EDB2E2
:10ECB000A022E4B202FB0542895C01554948EDB24D
:10ECC000A02101FB05F10844E4B20DF59641EDB237
:10ECD000A022E4B202FB0542895C0155641CDBE71B
:10ECE0006D1CD4E70DF5164D01B030BD70B40400B5
:10ECF0003C4BA02505FB04F52B445B5C52FA83F5E5
:10ED0000374BA02606FB04F633445E5C5FF0FF330E
:10ED10005E43B5F1670300EE103AB8EEC00A2A4B25
:10ED2000D3ED000A20EE200ADFED230A80EE200A50
:10ED300016F1340300EE903AF8EEE00A244B93ED1E
:10ED4000001A60EE810A9FED1C1AC0EE810A30EEB7
:10ED5000200A214BD3ED000A30EE200A16F13403CD
:10ED600000EE903AF8EEE00A184B93ED001A60EED0
:10ED7000810A9FED111AC0EE810AB7EE001A70EEFB
:10ED8000810A80EE200ABDEEC00A10EE103A5B1C2C
:10ED90001800A02801DB9F231800002801D50023BC
:10EDA0001800C0B270BC704700001F4300003C4216
:10EDB000000054420000DE420000484218040000F7
:10EDC000184F00003C070020340700204C070020AB
:10EDD0003807002040070020440700204807002093
:10EDE0004C5AFF1F4C0FFF1F0000000000000000E6
:10EDF0000000000000000000000000000000000013
:10EE00000000000000004E6F6E4D61736B61626C1C
:10EE10006500000000486172644661756C74000012
:10EE2000000000004D656D4D616E6167656D656E3A
:10EE30007400004275734661756C74000000000038
:10EE4000000055736167654661756C7400000000D1
:10EE500000000000000000000000000000000000B2
:10EE600000000000000000000000000000000000A2
:10EE70000000000000000000000000000000000092
:10EE80000000000000000000000000000053564396
:10EE9000616C6C00000000000000000044656275B9
:10EEA000674D6F6E69746F72000000000000000013
:10EEB0000000000000000000000050656E64535622
:10EEC0000000000000000000005379735469636B78
:10EED0000000000000000000444D41300000000030
:10EEE00000000000000000444D413100000000001F
:10EEF000000000000000444D41320000000000000E
:10EF00000000000000444D413300000000000000FC
:10EF100000000000444D41340000000000000000EB
:10EF2000000000444D4135000000000000000000DA
:10EF30000000444D413600000000000000000000C9
:10EF400000444D41370000000000000000000000B8
:10EF5000444D413800000000000000000000004463
:10EF60004D41390000000000000000000000444D49
:10EF700041313000000000000000000000444D411D
:10EF8000313100000000000000000000444D41311C
:10EF90003200000000000000000000444D41313309
:10EFA00000000000000000000000444D413134002A
:10EFB000000000000000000000444D413135000019
:10EFC0000000000000000000444D415F4572726F78
:10EFD000720000000000004D434D000000000000E2
:10EFE0000000000000004654464C000000000000F5
:10EFF0000000000000526561645F436F6C6C6973D0
:10F00000696F6E004C56445F4C565700000000007C
:10F010000000004C4C570000000000000000000001
:10F0200000005761746368646F67000000000000AF
:10F0300000524E47000000000000000000000000E9
:10F040004932433000000000000000000000004989
:10F050003243310000000000000000000000535067
:10F06000493000000000000000000000005350493B
:10F070003100000000000000000000005350493241
:10F08000000000000000000000000043414E305F1F
:10F090004F525F4D425F6275660043414E305F42A2
:10F0A00075735F4F666600000043414E305F4572E6
:10F0B000726F72000000000043414E305F54785F71
:10F0C0005761726E696E6743414E305F52785F5789
:10F0D00061726E696E6743414E305F57616B655F69
:10F0E00055700000005265736572766564353100B5
:10F0F0000000000052657365727665643532000069
:10F1000000000043414E315F4F525F4D425F6275D8
:10F11000660043414E315F4275735F4F6666000083
:10F120000043414E315F4572726F72000000000073
:10F1300043414E315F54785F5761726E696E674329
:10F14000414E315F52785F5761726E696E6743411D
:10F150004E315F57616B655F5570000000526573FB
:10F16000657276656435390000000000526573658C
:10F17000727665643630000000000055415254300C
:10F180005F52585F54580000000055415254305FA0
:10F1900045525200000000000055415254315F5268
:10F1A000585F54580000000055415254315F455299
:10F1B0005200000000000055415254325F52585F27
:10F1C00054580000000055415254325F45525200DD
:10F1D000000000000055415254335F52585F5458AC
:10F1E0000000000055415254335F45525200000068
:10F1F00000000055415254345F52585F545800008B
:10F20000000055415254345F455252000000000046
:10F210000055415254355F52585F54580000000069
:10F2200055415254355F45525200000000000041E4
:10F230004443300000000000000000000000414492
:10F2400043310000000000000000000000434D506A
:10F25000300000000000000000000000434D50316D
:10F260000000000000000000000000434D5032008C
:10F270000000000000000000000046544D30000077
:10F2800000000000000000000046544D3100000066
:10F29000000000000000000046544D320000000055
:10F2A00000000000000000434D540000000000007A
:10F2B0000000000000005254430000000000000065
:10F2C0000000000000526573657276656438330093
:10F2D0000000000050495430000000000000000011
:10F2E0000000005049543100000000000000000000
:10F2F00000005049543200000000000000000000EF
:10F3000000504954330000000000000000000000DD
:10F310005044423000000000000000000000005592
:10F320005342300000000000000000000000555370
:10F3300042444344000000000000000000454E45E8
:10F34000545F313538385F54696D6572454E4554A8
:10F350005F5472616E736D69740000454E45545F71
:10F3600052656365697665000000454E45545F450A
:10F3700072726F72000000000049325330000000CA
:10F38000000000000000000053444843000000005B
:10F390000000000000000044414330000000000075
:10F3A0000000000000004441433100000000000064
:10F3B000000000000054534930000000000000002D
:10F3C000000000004D434700000000000000000066
:10F3D0000000004C5054696D657200000000000090
:10F3E000000052657365727665643130320000004A
:10F3F00000504F5254410000000000000000000087
:10F40000504F525442000000000000000000005025
:10F410004F52544300000000000000000000504F15
:10F4200052544400000000000000000000504F5201
:10F4300054450000000000000000000052657365A4
:10F440007276656431303800000000526573657271
:10F45000766564313039000000005265736572765C
:10F460006564313130000000005265736572766565
:10F470006431313100000000526573657276656455
:10F480003131320000000052657365727665643177
:10F490003133000000005265736572766564313166
:10F4A0003400000000526573657276656431313551
:10F4B0000000000052657365727665643131360074
:10F4C0000000005265736572766564313137000063
:10F4D0000000526573657276656431313800000052
:10F4E0000052657365727665643131390000000041
:10F4F000008003400090034000800B4000900B40D0
:10F5000000F00F4040F00F4080F00F40C0F00F407F
:10F5100000F10F4066000A1D320007016400071069
:10F520006E000406780004088200040A8C00040CB3
:10F530009600040EA0000410AA000412B4000414E3
:10F54000BE000416C8000418D200041ADC00041C13
:10F55000E100041DE600041EEB00041FF400031785
:10F56000FA000318130101062C0102140001090816
:10F570000090044000A0044000B0044000C00440DB
:10F5800000D0044000A0064000B0064000C0064085
:10F5900000D0064000A00E4000B00E400100000068
:10F5A000B3060000333333400000003F0000803FCB
:10F5B0000000803F0000803F0000803F0000803F4F
:10F5C0000000803F0000803F0000803F0000803F3F
:10F5D0000000803F0000803F0000803F05000000E9
:10F5E0009B00000018000000180000001800000038
:10F5F0001800000018000000180000001A000000A9
:10F60000000040400000003F295C8F3E282300009E
:10F61000E8030000E8030000E803000000000040E9
:10F620006A6E6B6C676D4E4F343536370DC1110203
:10F6300009030CD01240173F185019031A783200F2
:10F64000A00A63E0ACFF650C6600670029282C3C2B
:10F650002A007E0C7F16802A814E8261836F847B14
:10F660008586868E879788A489AF8AC58BD78CE8D4
:10F670008D204A00491347084B144C174605229920
:10F680002303A6049B009C30AB069E119F02000042
:10F69000BC3A0100BC3A0100BC3A0100BC3A01008E
:10F6A000BC3A0100BC3A0100BC3A0100FFFFFFFF79
:10F6B000FFFFFFFFBE3A0100BC3A0100BC3A010067
:10F6C000FFFFFFFFFFFF0000020401016C0A0020A2
:10F6D000BC0A00206C0A00206C0A00200000000018
:10F6E0006C0A002000000000340DFF1F200DFF1FDA
:10F6F000000000000000000000000000000000000A
:10F7000000000000000000000000000000000000F9
:10F710000100180060090807D0078000800001314F
:10F7200080B5002200219B20FBF78CFF03219B204A
:10F73000FCF74FF8002200219A20FBF783FF0321FA
:10F740009A20FCF746F8002200219920FBF77AFF67
:10F7500003219920FCF73DF8002200219820FBF7B7
:10F7600071FF03219820FCF734F801BD30B401206B
:10F77000012101220123DFF83C4724682000DFF843
:10F78000384724682100DFF8344724682200DFF876
:10F79000304724682300002804D10024DFF82457D0
:10F7A0002C6003E00124DFF81C572C60002917D1DE
:10F7B0000124DFF814572C7040F69804DFF80C573A
:10F7C0002C8040F69804DFF808572C80DFF80447B7
:10F7D000DFF804572560DFF80447DFF80457256099
:10F7E000002A17D10124DFF8E0562C704FF416647C
:10F7F000DFF8D8562C8040F69804DFF8D4562C80D9
:10F80000DFF8D046DFF8DC562560DFF8D046DFF8B9
:10F81000D0562560002B17D10124DFF8AC562C7090
:10F8200040F62824DFF8A4562C8040F62824DFF880
:10F83000A0562C80DFF89C46DFF8AC562560DFF838
:10F840009C46DFF8A856256030BC704730B587B0BD
:10F8500000240025DFF898060068012806D14FF43F
:10F860001661DFF89006006800F08EFB092203A9FC
:10F870000120FCF72EFA0400002C00F0B7829DF95D
:10F880000C0030283DD100200400DFF8500600684D
:10F8900000F09AFBDFF86026DFF86036FDF788FDA0
:10F8A00000F0B6FBDFF834160860DFF830060068B9
:10F8B00000F08AFB0022DFF84836FDF747FA00F037
:10F8C000DBFB05000A2095FBF0F030308DF80000DE
:10F8D0002E208DF801000A2095FBF0F100FB11505D
:10F8E00030308DF802000A208DF8030000208DF8DA
:10F8F0000400DFA10120FCF73AFA69460120FCF779
:10F9000036FA9DF90C0031283DD100200400DFF8C3
:10F91000CC05006800F058FBDFF8DC25DFF8E435A3
:10F92000FDF746FD00F074FBDFF8B0150860DFF866
:10F93000AC05006800F048FB0022DFF8C435FDF795
:10F9400005FA00F099FB05000A2095FBF0F0303035
:10F950008DF800002E208DF801000A2095FBF0F1B3
:10F9600000FB115030308DF802000A208DF80300A2
:10F9700000208DF80400BEA10120FCF7F8F96946CB
:10F980000120FCF7F4F99DF90C0032283ED100204B
:10F990000400DFF87405006800F016FBDFF8582556
:10F9A000DFF85835FDF704FD00F032FBDFF858159D
:10F9B0000860DFF85405006800F006FB0022DFF85D
:10F9C0004035FDF7C3F900F057FB05000A2095FB11
:10F9D000F0F030308DF800002E208DF801000A2064
:10F9E00095FBF0F100FB115030308DF802000A2039
:10F9F0008DF8030000208DF80400DFF810150120B9
:10FA0000FCF7B5F969460120FCF7B1F99DF90C0046
:10FA100033283ED100200400DFF8EC04006800F039
:10FA2000D3FADFF8D424DFF8DC34FDF7C1FC00F0B2
:10FA3000EFFADFF8D4140860DFF8CC04006800F0B7
:10FA4000C3FA0022DFF8B834FDF780F900F014FBA8
:10FA500005000A2095FBF0F030308DF800002E20D4
:10FA60008DF801000A2095FBF0F100FB11503030B9
:10FA70008DF802000A208DF8030000208DF80400A4
:10FA8000DFF88C140120FCF772F969460120FCF7BD
:10FA90006EF99DF90C00342849D100200400DFF8EC
:10FAA0002C040088C830DFF824140880DFF81C0418
:10FAB00000884FF47A7190FBF1F030308DF800003F
:10FAC000DFF8080400884FF47A7190FBF1F201FB33
:10FAD0001200642190FBF1F030308DF80100DFF866
:10FAE000EC030088642190FBF1F201FB12000A2173
:10FAF00090FBF1F030308DF80200DFF8D003008881
:10FB00000A2190FBF1F201FB120030308DF8030066
:10FB10000A208DF8040000208DF80500DFF8F413AA
:10FB20000120FCF724F969460120FCF720F99DF932
:10FB30000C00352847D100200400DFF8900300882E
:10FB4000C838DFF888130880DFF8800300884FF496
:10FB50007A7190FBF1F030308DF80000DFF86C0323
:10FB600000884FF47A7190FBF1F201FB12006421DE
:10FB700090FBF1F030308DF80100D448008864210A
:10FB800090FBF1F201FB12000A2190FBF1F0303002
:10FB90008DF80200CD4800880A2190FBF1F201FBAC
:10FBA000120030308DF803000A208DF80400002088
:10FBB0008DF80500DFF85C130120FCF7D8F86946E2
:10FBC0000120FCF7D4F89DF90C00362837D100202D
:10FBD0000400D148006800F0F7F9C74AC74BFDF7A9
:10FBE000E7FB00F015FACC490860CB48006800F04C
:10FBF000EBF90022C24BFDF7A9F800F03DFA050031
:10FC00000A2095FBF0F030308DF800002E208DF8A2
:10FC100001000A2095FBF0F100FB115030308DF807
:10FC200002000A208DF8030000208DF80400BB4973
:10FC30000120FCF79CF869460120FCF798F89DF933
:10FC40000C0037283AD100200400B348006800F0C7
:10FC5000BBF9A94AAB4BFDF7ABFB00F0D9F9AE49B4
:10FC60000860AD48006800F0AFF90022A44B01E045
:10FC700044503D00FDF76AF800F0FEF905000A2047
:10FC800095FBF0F030308DF800002E208DF801004B
:10FC90000A2095FBF0F100FB115030308DF8020086
:10FCA0000A208DF8030000208DF804009B490120F4
:10FCB000FCF75DF869460120FCF759F89DF90C0046
:10FCC00038283AD1002004008248006800F07CF90E
:10FCD000934A944BFDF76CFB00F09AF97D4908605C
:10FCE0007C48006800F070F900228F4BFDF72EF879
:10FCF00000F0C2F9050030208DF800002E208DF8AC
:10FD000001000A2095FBF0F030308DF802000A2047
:10FD100095FBF0F100FB115030308DF803000A2004
:10FD20008DF8040000208DF8050080490120FCF7C3
:10FD30001EF869460120FCF71AF89DF90C003928D5
:10FD40003AD1002004006348006800F03DF9744A8D
:10FD5000774BFDF72DFB00F05BF95E4908605D48CD
:10FD6000006800F031F900226F4BFCF7EFFF00F064
:10FD700083F9050030208DF800002E208DF8010059
:10FD80000A2095FBF0F030308DF802000A2095FB38
:10FD9000F0F100FB115030308DF803000A208DF88F
:10FDA000040000208DF8050060490120FBF7DFFF0B
:10FDB00069460120FBF7DBFF9DF90C00612808D1A3
:10FDC000002004000020404908705A490120FBF738
:10FDD000CEFF9DF90C00622808D10020040001200C
:10FDE0003949087032A10120FBF7C1FF07B030BDCF
:10FDF0002DE9FE4F782002904F48006801904F4C4B
:10FE0000019A0299200000F055F9782000905024C2
:10FE10004B4D22000099280000F04CF97825494804
:10FE20000668494F32002900380000F043F978276E
:10FE30005FF00008DFF8149142463900484600F0B0
:10FE400039F95FF078095FF0000ADFF804B1524633
:10FE50004946584600F02EF900203E4908703D48BA
:10FE600000783D4908703D4800683D4908603D48BC
:10FE700000683A4908603C4800683C4908603C48D2
:10FE800000683C4908602C4800683B4908602D48E0
:10FE900000683A4908600020394908700A4800782B
:10FEA000002802D1374800210160BDE8F78F00002B
:10FEB0006F6E0A006C22FE436822FE436422FE43FA
:10FEC0006022FE43C40BFF1FBE0A00203C0DFF1F33
:10FED000400DFF1F300CFF1F52B89E3ECC0BFF1F82
:10FEE000666626400AD7A33EC3F5A83E9A993940D4
:10FEF0004CA5FF1F2C0700209A9999999999B93F11
:10FF0000000024409999B9BFD00BFF1F983A010017
:10FF1000A03A0100743A01002C0CFF1F803A010046
:10FF20007B14AE47E17A843F00005940643A0100F7
:10FF3000E17A84BFA83A0100040CFF1F500700209B
:10FF4000C8070020080CFF1F40080020C808002038
:10FF500040090020C10A0020C00A00200C0CFF1F2D
:10FF6000B8090020180CFF1F1C0CFF1F100CFF1FEE
:10FF7000200CFF1F140CFF1FB8080020BC08002035
:10FF8000C20A00201C0A002038B504000D000C48ED
:10FF90000088ADF802000B480088ADF8000002228E
:10FFA0000DF102010320FBF7CFFE2A002100032000
:10FFB000FBF7CAFE022269460320FBF7C5FE31BDEE
:10FFC00086CB000002CC0000C0F3C75181B1FF29ED
:10FFD00006D0C110400721F0E04101F160517047A7
:10FFE00041020CBF40F4E0016FF000410020704777
:10FFF00000F0004100020AD0B0FA80FC00FA0CF0D8
:020000040001F9
:1000000001F16051A1EB0C5101EBD021400570478B
:1000100001F000428B1AA3F16051B1F5801F0ADB99
:10002000B1F17F6F1FD242EAC102C10071F10041FC
:1000300042EB507070470B15C3F10903212B10D20E
:10004000890241EA905180020128494141F0004172
:1000500021FA03F0C3F12003994071F100415041AE
:100060007047100070476FF0000013EB103F5CBF4B
:10007000000E42EAC0507047C1F30A5340F2FE320C
:100080009B1A14DDD3F120034FEAE17208DDC902A7
:1000900041EA505141F00040D8408018504070472C
:1000A00003F2E13010B1D24382F0004070470020EB
:1000B0007047000062F30F2262F31F42401810F0F5
:1000C000030308D0C91A1FD3DB0748BF00F8012D6E
:1000D00028BF20F8022D130030B4144615461039FD
:1000E00028BF20E93C00FAD8490728BF20E90C00C6
:1000F00048BF40F8042D890028BF20F8022D48BFD2
:1001000000F8012D30BC7047C91818BF00F8012D48
:10011000CB0728BF00F8012D70470000DFF8FC0670
:1001200090ED000AF1EE040AB4EE600AF1EE10FA66
:1001300008D5DFF8FC01008810F59670DFF8D816B6
:10014000088051E0DFF8D40690ED000ADFED720A76
:10015000B4EE600AF1EE10FA11DBDFF8C00690EDA4
:10016000000AF2EE0E0AB4EE600AF1EE10FA06D5BD
:10017000DFF8BC010088DFF8A016088034E0DFF863
:100180009C0690ED000ADFED650AB4EE600AF1EE20
:1001900010FA21DBDFF8840690ED000ADFED600A3B
:1001A000B4EE600AF1EE10FA16D5DFF8840100888B
:1001B00000EE100AB8EE400ADFF86006D0ED000A43
:1001C000B2EE041A00EEC10ABDEEC00A10EE100A2B
:1001D000DFF84416088007E0DFF854010088B0F526
:1001E000FA70DFF834160880DFF8400190F900005B
:1001F000082812D1DFF8E8050088DFF8241609681E
:10020000884204DA0020DFF81016088005E0DFF8E5
:10021000D0050088DFF800160880DFF808060068BF
:1002200001281CD1DFF8000690ED000ADFED3D0A41
:10023000B4EE600AF1EE10FA2CDBDFF8E40500689A
:1002400040F2E931884204DB0020DFF8CC15088059
:1002500020E040F69800DFF8C01508801AE0DFF8CB
:10026000C4050068002815D1DFF8BC0590ED000A30
:10027000DFED2D0AB4EE600AF1EE10FA05D54FF469
:100280007A70DFF89415088004E04FF41660DFF808
:10029000A0100880704780B5012000F0B8FDDFF89D
:1002A0008C150860DFF884050068002806D5DFF8A3
:1002B0007C0500684042DFF874150860012000F0FA
:1002C000BCFDDFF86805016828204143DFF85005D0
:1002D000016001BD80B5FFF7DEFF00F083FAFFF794
:1002E0001DFF00F027F8DFF8480502680221002012
:1002F00000F077FC00220321002000F072FC0022B5
:100300000421002000F06DFCDFF8280502680521BB
:10031000002000F066FC01BD0100A040010070411A
:100320000000204201A03E450000FA43BF0A002021
:100330003C0DFF1FF8B5DFF800050068DFF8FC147E
:100340000860DFF8FC040068DFF8EC140860DFF8F0
:10035000C8040188DFF8C8040068091ADFF8E0045F
:100360000160DFF8DC040168DFF8CC040068091ADA
:1003700000EE101AB8EEC00ADFF8C804D0ED000A8B
:1003800020EE200ADFF8C00480ED000ADFF8B00498
:1003900090ED000AB8EEC00ADFF8B004D0ED000A14
:1003A00020EE200ADFF8A80480ED000ADFF89004B0
:1003B0000168DFF884040068B1EB4001DFF87C04D9
:1003C0000068411800EE101AB8EEC00ADFF8A00469
:1003D000D0ED000A20EE200ADFF8980480ED000A34
:1003E000DFF870040168DFF8600490ED000ADFF8C0
:1003F0006004D0ED000A30EE200ADFF87804D0ED7A
:10040000000A30EE200ABDEEC00A10EE100A4118B4
:10041000DFF840040160DFF854040068DFF83414AA
:100420000968884205DADFF844040068DFF824141C
:100430000860DFF820040068DFF83C14096888428F
:1004400005DADFF834040068DFF808140860DFF824
:10045000CC0390ED000AF1EE040AB4EE600AF1EE6E
:1004600010FA10D5DFF8EC030068DFF8C413086059
:10047000DFF8E0030068DFF8BC1308600020DFF855
:10048000D813086055E0DFF8CC03006800F0F6FCF4
:1004900004000D00DFF8C40390ED000ADFF8C0038C
:1004A000D0ED000A20EE200A10EE100AFFF78CFDB6
:1004B0000022DFF8B033FCF7B7FD02000B0000208C
:1004C000DFF8A413FCF7F6FE22002B00FCF73EFC3D
:1004D000FFF7D2FDDFF858130860DFF878030068F3
:1004E00000F0CCFC04000D00DFF8700390ED000A72
:1004F000DFF86C03D0ED000A20EE200A10EE100A9F
:10050000FFF762FD0022DFF85C33FCF78DFD00226F
:10051000DFF85433FCF74CFF22002B00FCF716FCED
:10052000FFF7AAFDDFF80C1308600120DFF828139D
:100530000860DFF824030068012840F00081BC480F
:100540000068DFF828130968884246DBDFF81C03DF
:100550000068B7490860DFF81403006800F08EFCFB
:1005600004000D00BD4890ED000ABD48D0ED000A22
:1005700020EE200A10EE100AFFF726FD0022B94BEC
:10058000FCF752FD02000B000020B749FCF792FE79
:1005900002000B0020002900FCF746FD04000D00BE
:1005A000AE4890ED000AAE48D0ED000A20EE200AD9
:1005B00010EE100AFFF708FD0022AA4BFCF734FDED
:1005C0000022A94BFCF7F4FE22002B00FCF7BEFB37
:1005D000FFF752FD9749086000E196480068A3497B
:1005E0000968884244DBA148006800F047FC040029
:1005F0000D009A4890ED000A9948D0ED000A20EECF
:10060000200A10EE100AFFF7DFFC0022954BFCF7E2
:100610000BFD0022944BFCF7CBFE02000B002000E8
:100620002900FCF701FD04000D008C4890ED000A44
:100630008B48D0ED000A20EE200A10EE100AFFF7DA
:10064000C3FC0022874BFCF7EFFC02000B000020EC
:100650008549FCF72FFE22002B00FCF777FBFFF704
:100660000BFD734908608148006872490860B5E075
:10067000814800686E49096888422CDB7E48006822
:100680006B4908607C48006800F0F8FB06000F002A
:100690007648006800F0F2FB04000D006F4890ED12
:1006A000000A6F48D0ED000A20EE200A10EE100A72
:1006B000FFF78AFC00226B4BFCF7B6FC22002B00F4
:1006C000FCF744FB32003B00FCF772FEFFF7D4FC62
:1006D0005849086082E068480068564909688842BD
:1006E0007CDB6548006800F0C9FB06000F005F482E
:1006F000006800F0C3FB04000D00584890ED000AAC
:100700005748D0ED000A20EE200A10EE100AFFF73D
:100710005BFC0022534BFCF787FC22002B00FCF70C
:1007200015FB02000B0030003900FCF7C3FDFFF79A
:10073000A3FC3F49086000203E4908604EE046485F
:10074000006800284AD13A48006848490968884248
:1007500004DB464800683649086003E03448006816
:10076000334908603348006840490968884204DB1F
:100770003E4800682F49086003E02E4800682D4974
:1007800008603D4800682A490968884204DB3A4805
:1007900000682749086003E025480068244908608C
:1007A0003548006823490968884204DB32480068FC
:1007B0002049086003E01F4800681E4908601D4882
:1007C00000681B490968884204DA19480068194919
:1007D000086003E01748006815490860F1BD000093
:1007E0003E0DFF1F80B5254801681048006841187C
:1007F00022480160214890ED000AB8EEC00A10EED0
:10080000100AFFF7E1FB00221D4BFCF70DFCFFF780
:10081000FFFB0549086001BD400DFF1FCC0900200A
:10082000F8090020C40BFF1F440CFF1FFC09002027
:100830003C0CFF1F400CFF1F040A0020080A002088
:10084000000A0020280CFF1FE80900202C0CFF1FC5
:10085000EC0900200C0A0020100A0020300CFF1FB9
:1008600050A5FF1F00E065400000F03F340CFF1F63
:10087000F4090020F0090020380CFF1F200A002096
:100880000000494038B504000D0064B2002C06D0C9
:10089000022C69D04CD3032C00F08280C7E0DFF833
:1008A000C405006850F08070DFF8B81508606DB2BC
:1008B000002D0BD0022D15D00ED3042D1ED017D332
:1008C000062D27D020D3072D2AD02FE04FF48061AA
:1008D0004120FAF759FF2AE04FF440710420FAF75B
:1008E00053FF24E04FF440710520FAF74DFF1EE05E
:1008F0004FF440710620FAF747FF18E04FF44071BB
:100900000720FAF741FF12E04FF480616520FAF703
:100910003BFF0CE04FF480616620FAF735FF06E0FC
:100920004FF480616720FAF72FFF00E07FE07EE060
:10093000DFF83005006850F00070DFF82815086017
:100940006DB2002D02D0012D06D00BE04FF44071A6
:100950000C20FAF719FF06E04FF440710D20FAF76A
:1009600013FF00E063E062E0DFF8FC04006850F091
:100970008070DFF8F41408606DB2002D02D0012DF4
:1009800006D00BE04FF440710A20FAF7FDFE06E0B6
:100990004FF440710B20FAF7F7FE00E047E046E025
:1009A000DFF8C404006850F00070DFF8BC14086081
:1009B0006DB2002D0BD0022D15D00ED3042D1ED0FC
:1009C00017D3062D27D020D3072D2AD02EE04FF4A1
:1009D000C0618520FAF7D8FE28E04FF4C061862078
:1009E000FAF7D2FE22E04FF4C0618720FAF7CCFE7E
:1009F0001CE04FF4C0618820FAF7C6FE16E04FF401
:100A0000C0618920FAF7C0FE10E04FF4C0618A206F
:100A1000FAF7BAFE0AE04FF4C0618B20FAF7B4FE91
:100A200004E04FF4C0618C20FAF7AEFEFFE731BD61
:100A30002DE9F84F04000D0016001F0064B2002CD1
:100A400011D064B2012C02D064B2022C02D16DB27A
:100A5000022D08DB64B2032C05D040F28511DFF8CB
:100A60000C04FAF736FF290049B2200040B2FFF724
:100A700009FFDFF8FC0301684FF47A7041438846B0
:100A80004046000CB0FBF6F08146002082461FFA7B
:100A900089F9484650FA0AF0012802DB1AF1010AE6
:100AA000F5E75FFA8AFABAF1080F05DB4FF4D07167
:100AB000DFF8B803FAF70DFF404630FA0AF0B0FB52
:100AC000F6F081461FFA89F9DFF8A80364B240F80E
:100AD000249064B2002C05D0022C1BD00ED3032C22
:100AE00024D02FE01FFA89F919F1010000FB07F06B
:100AF00042F21071B0FBF1F0834623E01FFA89F94E
:100B000019F1010000FB07F042F21071B0FBF1F0A7
:100B1000834617E01FFA89F919F1010000FB07F07D
:100B200042F21071B0FBF1F083460BE01FFA89F935
:100B300019F1010000FB07F042F21071B0FBF1F077
:100B40008346FFE7DFF8300364B250F824006DB24B
:100B500000EBC500DFF8201364B251F824106DB229
:100B600001EBC501C96831F00401C160DFF8080379
:100B700064B250F824006DB200EBC5002821C160BA
:100B80005FFA8AFA1AF0070050F00800DFF8E8125E
:100B900064B251F8241008601FFA89F9DFF8D8020E
:100BA00064B250F82400C0F808900020DFF8C812A2
:100BB00064B251F82410C864DFF8BC0264B250F883
:100BC00024006DB200EBC5001FFA8BFBC0F810B01B
:100BD0000020DFF8A41264B251F824104860BDE888
:100BE000F18F2DE9F04104000D0016005FF00008C0
:100BF00064B2002C11D064B2012C02D064B2022C79
:100C000002D16DB2022D08DB64B2032C05D04FF483
:100C1000F371DFF85802FAF75CFE64B2002C05D0DD
:100C2000022C19D00DD3032C21D02BE042F21170ED
:100C3000864205D34FF4F671DFF83002FAF749FE29
:100C400020E042F21170864205D34FF4F871DFF8CC
:100C50001C02FAF73EFE15E042F21170864205D3FF
:100C60004FF4FA71DFF80402FAF733FE0AE042F2B9
:100C70001170864205D340F2F911DFF8F001FAF75E
:100C800028FEFFE7DFF8EC0164B250F8240080464C
:100C900064B2002C05D0022C17D00CD3032C1ED02C
:100CA00027E018F1010000FB06F042F21071B0FBE2
:100CB000F1F007001DE018F1010000FB06F042F220
:100CC0001071B0FBF1F0070013E018F1010000FB18
:100CD00006F042F21071B0FBF1F0070009E018F1E4
:100CE000010000FB06F042F21071B0FBF1F00700CA
:100CF000FFE7DFF8840164B250F824006DB200EB26
:100D0000C5000761BDE8F08110B5040064B2012C94
:100D100007D064B2022C04D040F2DB215348FAF72A
:100D2000D8FD64B22000012802D0022811D021E0B1
:100D30004C48006850F000704A4908604FF4E06188
:100D40000C20FAF721FD4FF4E0610D20FAF71CFDAD
:100D500015E04548006850F08070434908604FF442
:100D6000C0610A20FAF710FD4FF4C0610B20FAF7BA
:100D70000BFD04E040F213313C48FAF7AAFD3E486F
:100D800064B250F82400406D50F004003A4964B257
:100D900051F824104865384864B250F82400D0F85F
:100DA000800050F00800344964B251F82410C1F8B2
:100DB00080000020304964B251F82410C8644FF616
:100DC000FF702D4964B251F8241088602A4864B23B
:100DD00050F82400D0F8800050F00100264964B299
:100DE00051F82410C1F88000234864B250F8240060
:100DF000406D50F00100204964B251F8241048655C
:100E000000201D4964B251F82410486010BD38B567
:100E1000040064B2012C07D064B2022C04D04FF459
:100E20004C711248FAF755FD134864B250F824008B
:100E300040680500280000B232BD10B5040064B25D
:100E4000012C07D064B2022C04D040F23E31074896
:100E5000FAF73FFD0020084964B251F824104860B9
:100E600010BD00003C80044030800440C8350100C3
:100E7000300A00203C0FFF1F180BFF1FC11768B17D
:100E80004840401AB0FA80F29040D21CC907C2F51F
:100E9000846241EA025202EBD02140057047000013
:100EA0000000000000000000000000000000000042
:100EB0000000183C3C3C18181800181800000000EE
:100EC00000666666240000000000000000000000CC
:100ED0000000006C6CFE6C6C6CFE6C6C0000000022
:100EE00018187CC6C2C07C0686C67C181800000094
:100EF00000000000C2C60C183060C686000000006A
:100F00000000386C6C3876DCCCCCCC76000000006D
:100F100000303030600000000000000000000000E1
:100F200000000C18303030303030180C0000000059
:100F3000000030180C0C0C0C0C0C183000000000D9
:100F40000000000000663CFF3C660000000000005E
:100F5000000000000018187E1818000000000000B3
:100F60000000000000000000001818183000000009
:100F700000000000000000FE000000000000000073
:100F80000000000000000000000018180000000031
:100F90000000000002060C183060C0800000000055
:100FA00000007CC6C6CED6D6E6C6C67C00000000D1
:100FB00000001838781818181818187E000000005B
:100FC00000007CC6060C183060C0C6FE00000000A1
:100FD00000007CC606063C060606C67C0000000033
:100FE00000000C1C3C6CCCFE0C0C0C1E0000000025
:100FF0000000FEC0C0C0FC0E0606C67C000000005B
:1010000000003860C0C0FCC6C6C6C67C0000000038
:101010000000FEC606060C1830303030000000001C
:1010200000007CC6C6C67CC6C6C6C67C00000000E2
:1010300000007CC6C6C67E0606060C7800000000CE
:101040000000000018180000001818000000000040
:101050000000000018180000001818300000000000
:10106000000000060C18306030180C06000000006C
:10107000000000000000FE0000FE00000000000074
:101080000000006030180C060C18306000000000F2
:1010900000007CC6C60C18181800181800000000C4
:1010A0000000007CC6C6DEDEDEDCC07C0000000086
:1010B000000010386CC6C6FEC6C6C6C600000000DA
:1010C0000000FC6666667C66666666FC00000000E2
:1010D00000003C66C2C0C0C0C0C2663C0000000048
:1010E0000000F86C6666666666666CF800000000D4
:1010F0000000FE6662687868606266FE00000000BC
:101100000000FE6662687868606060F000000000C1
:1011100000003C66C2C0C0DEC6C6663A00000000E1
:101120000000C6C6C6C6FEC6C6C6C6C600000000CB
:1011300000003C18181818181818183C0000000077
:1011400000001E0C0C0C0C0CCCCCCC780000000069
:101150000000E6666C6C78786C6666E6000000005D
:101160000000F06060606060606266FE0000000089
:101170000000C6EEFEFED6C6C6C6C6C6000000000B
:101180000000C6E6F6FEDECEC6C6C6C600000000FB
:101190000000386CC6C6C6C6C6C66C380000000063
:1011A0000000FC6666667C60606060F00000000025
:1011B00000007CC6C6C6C6C6C6D6DE7C0C0E0000C5
:1011C0000000FC6666667C6C666666E600000000F1
:1011D00000007CC6C660380C06C6C67C0000000055
:1011E00000007E7E5A1818181818183C00000000DD
:1011F0000000C6C6C6C6C6C6C6C6C67C000000007D
:101200000000C6C6C6C6C6C6C66C381000000000C0
:101210000000C6C6C6C6C6D6D6FE6C6C000000006E
:101220000000C6C66C6C38386C6CC6C60000000086
:101230000000666666663C181818183C000000003E
:101240000000FEC6860C183060C2C6FE000000001A
:1012500000003C30303030303030303C0000000096
:1012600000000080C0E070381C0E06020000000084
:1012700000003C0C0C0C0C0C0C0C0C3C0000000096
:1012800010386CC6000000000000000000000000E4
:1012900000000000000000000000000000FF00004F
:1012A00030301800000000000000000000000000C6
:1012B0000000000000780C7CCCCCCC760000000054
:1012C0000000E06060786C66666666DC0000000026
:1012D00000000000007CC6C0C0C0C67C000000004A
:1012E00000001C0C0C3C6CCCCCCCCC76000000007C
:1012F00000000000007CC6FEC0C0C67C00000000EC
:101300000000386C6460F060606060F00000000015
:10131000000000000076CCCCCCCCCC7C0CCC78008F
:101320000000E060606C7666666666E600000000BD
:1013300000001818003818181818183C0000000091
:1013400000000606000E06060606060666663C0057
:101350000000E06060666C78786C66E60000000073
:1013600000003818181818181818183C0000000049
:101370000000000000ECFED6D6D6D6D60000000055
:101380000000000000DC666666666666000000001D
:1013900000000000007CC6C6C6C6C67C0000000077
:1013A0000000000000DC66666666667C6060F00037
:1013B000000000000076CCCCCCCCCC7C0C0C1E0009
:1013C0000000000000DC7662606060F00000000059
:1013D00000000000007CC660380CC67C00000000E5
:1013E0000000103030FC30303030361C000000007F
:1013F0000000000000CCCCCCCCCCCC7600000000AF
:10140000000000000066666666663C18000000008A
:101410000000000000C6C6C6D6D6FE6C0000000064
:101420000000000000C66C3838386CC600000000B0
:101430000000000000C6C6C6C6C6C67E060CF80080
:101440000000000000FECC183060C6FE0000000066
:1014500000000E18181870181818180E0000000058
:1014600000001818181800181818181800000000A4
:101470000000701818180E181818187000000000D6
:10148000000076DC0000000000000000000000000A
:101490000000000010386CC6C6C6FE000000000048
:1014A0001CB59624DFF8BC04B0F90000002840F019
:1014B000C5800020ADF80600BDF80600ADF80400B8
:1014C00000F00FFA00F0BBF84020ADF80400302027
:1014D000ADF806004FF478421821019800F003FBA4
:1014E0006020ADF806000020ADF80400DFF87804B5
:1014F00090ED000AB5EE400AF1EE10FA07DB4FF46A
:1015000078431F222B21019800F06DFB06E04FF479
:1015100078431F222D21019800F065FB0820ADF8CB
:1015200004004FF4784000901F230422DFF83C04AD
:1015300090ED000AF2EE040A20EE200ABDEEC00A89
:1015400010EE101A019800F020FC6020ADF80600A3
:101550002820ADF80400DFF818040068DFF8141440
:101560000968884207DB4FF478431F222B2101983A
:1015700000F039FB06E04FF478431F222D2101983B
:1015800000F031FB3020ADF80400DFF8E80301681B
:10159000DFF8DC03006800F090FC4FF47841009124
:1015A0001F2304220100019800F0EFFB5020ADF84A
:1015B00004004FF4784000901F230622DFF8B803A0
:1015C00090ED000ABDEEC00A10EE101A019800F06E
:1015D000DCFB7020ADF806000020ADF804004FF4ED
:1015E000784000901F230522DFF8900390F8481000
:1015F000019800F0CAFB7020ADF806002820ADF875
:1016000004004FF4784000901F230522DFF8700398
:101610000168019800F0B9FB7020ADF80600502079
:10162000ADF804004FF4784000901F230622DFF845
:10163000540390F84810019800F0A7FB13BD30B593
:1016400083B00020ADF80200BDF80200ADF8000044
:101650008020ADF804006020ADF8060001990098E4
:10166000F9F7CAFE0120DFF8201308600020DFF838
:101670001C1308600020DFF8181308602C20DFF826
:10168000141308700020DFF8101308600120DFF841
:10169000081308600120DFF8F8120860DFF8FC0288
:1016A00000880500EDB2BD48B0F900006030854209
:1016B00080F21681BA480088C0B200010400E4B28A
:1016C000B748B0F9000000018030844280F2068102
:1016D000B448EDB2A02101FB05F10844E4B2005D7D
:1016E000212829D10120A84908600120A7490860C4
:1016F0000020A7490860FF20A64908700020A649DD
:1017000008600120A44908600120A1490860012067
:101710009D49086001209D49086000209C4908609F
:10172000FF209C49087000209B49086001209A49CD
:1017300008600120964908609A48EDB2A02101FB9B
:1017400005F10844E4B2005D7E2829D101208E49CC
:10175000086001208D49086000208D490860002044
:101760008C49087000208C49086001208A49086073
:1017700001208749086001208349086001208349CE
:10178000086000208249086000208249087000201B
:101790008149086001208049086001207C49086077
:1017A0008048EDB2A02101FB05F10844E4B2005DE0
:1017B000022829D10120744908600120734908607A
:1017C00000207349086007207249087000207249A0
:1017D000086001207049086001206D4908600120FF
:1017E000694908600120694908600020684908606B
:1017F000E0206849087000206749086001206649B8
:1018000008600120624908606648EDB2A02101FB32
:1018100005F10844E4B2005D032829D101205A49AA
:1018200008600120594908600020594908600020DB
:10183000584908700020584908600120564908603E
:1018400001205349086001204F49086001204F4999
:10185000086000204E4908601F204E490870002093
:101860004D49086001204C49086001204849086042
:101870004C48EDB2A02101FB05F10844E4B2005D43
:10188000042829D101204049086001203F4908600F
:1018900000203F490860F8203E49087000203E497A
:1018A000086001203C490860012039490860012096
:1018B0003549086001203549086000203449086036
:1018C0000020344908700020334908600120324963
:1018D000086001202E490860641CF0E66D1CE1E6FA
:1018E00037BD77203049096888420ADB2D49A0229C
:1018F00002FB00F21144214A125C03238B54401E68
:10190000F0E777202949096888420ADB2549A022A7
:1019100002FB00F211441B4A125C04238B54401E4C
:10192000F0E777202249096888421ADB2149095CDF
:10193000012903D12049095C012910D01D49095C06
:10194000022903D11C49095C022908D01549A022AB
:1019500002FB00F21144194A125C02238B54401E10
:10196000E0E77047BC0A0020C8090020CC0900202D
:1019700054A5FF1FC80BFF1F440CFF1F500700207A
:10198000140A0020400800202810FE433010FE43B7
:101990002C10FE4380F00F402410FE433A0DFF1F31
:1019A000380DFF1F2CBCFF1F100CFF1F140CFF1F56
:1019B0000C0CFF1FC808002040090020C8070020A9
:1019C00010B582B0DFF8B8040468F8F725F8F9F725
:1019D00024FEADF80000F9F71DFEADF802004FF44B
:1019E00078420099200000F001F813BDF2B5040020
:1019F000150000992000F9F7FFFCBDF80010BDF8B4
:101A0000020041430F000120DFF878140860002035
:101A1000DFF8741408600020DFF8701408602C20D0
:101A2000DFF86C1408700020DFF8681408600120EB
:101A3000DFF8601408600120DFF85014086000200F
:101A40000600BE423AD20120DFF8381408600120B7
:101A5000DFF8341408600020DFF830140860280034
:101A600080B2000ADFF8281408700020DFF8241480
:101A700008600120DFF81C1408600120DFF80C1456
:101A800008600120DFF8FC1308600120DFF8F8137C
:101A900008600020DFF8F4130860DFF8F403057035
:101AA0000020DFF8F01308600120DFF8E813086079
:101AB0000120DFF8D8130860761CC2E7F1BD38B505
:101AC0000400DFF8D4030568F9F7A4FDADF80200BF
:101AD000F9F7A3FDADF80000220092B200992800AA
:101AE000FFF784FF31BD2DE9F14382B00C001500F2
:101AF000F9F793FD8046F9F78DFD8146F9F78DFDE5
:101B0000BDF80810814205D2F9F784FDBDF80A102E
:101B1000814204D35721DFF88403F9F7DAFEBDF8D8
:101B20000810A4B2022094FBF0F0091A0E0036B29D
:101B3000002E01D500200600BDF80810A4B2022036
:101B400094FBF0F041180F003FB21FFA88F84745A8
:101B500002DBB8F101000700300080B2ADF80400EC
:101B6000BDF80A00ADF80600B81B401CADF8000037
:101B70000120ADF802002A0092B200990198FFF707
:101B800035FFBDF90A10A4B2022094FBF0F0091A47
:101B90000E0036B2002E01D500200600BDF90A1055
:101BA000A4B2022094FBF0F041180F003FB21FFADC
:101BB00089F94F4502DBB9F101000700BDF80800C3
:101BC000ADF80400ADF806600120ADF80000B81BC8
:101BD000401CADF802002A0092B200990198FFF76C
:101BE00005FFBDE8F7832DE9F14781B00C00150032
:101BF0001E00DFF8AC02D0F800A0F9F70EFD08389F
:101C0000BDF80410884206DBF9F704FD1038BDF872
:101C10000610884200DAB6E051460198F9F7ECFB6D
:101C20000120DFF8601208600020DFF85C12086015
:101C30000020DFF8581208602C20DFF854120870DA
:101C40000020DFF8501208600120DFF84812086019
:101C50000120DFF838120860002081465FFA89F918
:101C6000B9F1100F80F28F80DFF83802E4B25FFA2A
:101C700089F919EB04110844B0F5007000780700E9
:101C8000002080465FFA88F8B8F1080F78DA380645
:101C900039D50120DFF8EC1108600120DFF8E811E8
:101CA00008600020DFF8E4110860280080B2000A14
:101CB000DFF8DC1108700020DFF8D811086001207F
:101CC000DFF8D01108600120DFF8C01108600120A2
:101CD000DFF8B01108600120DFF8AC1108600020C7
:101CE000DFF8A8110860DFF8A80105700020DFF810
:101CF000A41108600120DFF89C1108600120DFF8C2
:101D00008C11086038E00120DFF8781108600120AC
:101D1000DFF8741108600020DFF8701108603000EF
:101D200080B2000ADFF8681108700020DFF8641143
:101D300008600120DFF85C1108600120DFF84C1119
:101D400008600120DFF83C1108600120DFF838113D
:101D500008600020DFF834110860DFF834010670F5
:101D60000020DFF8301108600120DFF8281108603A
:101D70000120DFF8181108607F0018F1010881E7E1
:101D800019F101096AE7BDE8F3872DE9F14382B053
:101D90000E00904699460A9F34000025BDF80A00BF
:101DA000ADF80600002E1ED13B009BB24A4692B20F
:101DB00030210298FFF717FFBDF808000830ADF892
:101DC00008001020ADF802005FFA88F8B8F10100B1
:101DD00080B2C000ADF800003A0092B200990298BB
:101DE000FFF704FE4AE0002C04D00A20B4FBF0F414
:101DF0006D1CF8E728004146C0B2C9B2884200D342
:101E00004546EDB22C00EDB2002D1BD0BDF8080008
:101E1000EDB2ADB210EBC5000838ADF804006D1E90
:101E20000A213B009BB24A4692B2B6FBF1F001FB9D
:101E300010613031C9B20198FFF7D5FE0A20B6FB18
:101E4000F0F6E0E75FFA88F8444517D05FFA88F8C3
:101E5000B8EB040080B2C000ADF80000BDF8080087
:101E6000E10011FA80F0ADF808001020ADF8020092
:101E70003A0092B200990298FFF7B8FDBDE8F783E7
:101E8000B03A01002810FE433010FE432C10FE43F0
:101E900080F00F402410FE43B43A0100683701007F
:101EA000B83A0100A00E0100B5EE400AF1EE10FABA
:101EB00002D5B1EE400AFFE770470200914202D21C
:101EC000531A180001E08B1A18007047DFF800F071
:101ED000ED0EFF1FDFF8E01340B231F8201040B2E2
:101EE0000128C0F28F8140B2162880F28B81002237
:101EF000DFF8C8331A7089B2652904DA0022DFF8E6
:101F0000BC335A708BE089B2C92904DA0122DFF8A8
:101F1000AC335A7083E089B240F22D12914204DA58
:101F20000222DFF898335A7079E089B240F29112B8
:101F3000914204DA0322DFF884335A706FE089B2E9
:101F400040F2F512914204DA0422DFF870335A703D
:101F500065E089B240F25922914204DA0522DFF8A5
:101F60005C335A705BE089B240F2BD22914204DAE0
:101F70000622DFF848335A7051E089B240F221322C
:101F8000914204DA0722DFF834335A7047E089B20D
:101F900040F28532914204DA0822DFF820335A7089
:101FA0003DE089B240F2E932914204DA0922DFF8D9
:101FB0000C335A7033E089B240F24D42914204DA58
:101FC0000A22DFF8F8325A7029E089B240F2B142B1
:101FD000914204DA0B22DFF8E4325A701FE089B232
:101FE00040F21552914204DA0C22DFF8D0325A70D6
:101FF00015E089B240F27952914204DA0D22DFF8FD
:10200000BC325A700BE089B240F2DD52914203DAE1
:102010000E22AA4B5A7002E00F22A84B5A7089B2C6
:10202000332903DA0022A54B9A7078E089B265293A
:1020300003DA0122A14B9A7071E089B2972903DA81
:1020400002229E4B9A706AE089B2C92903DA032200
:102050009A4B9A7063E089B2FB2903DA0422974B0A
:102060009A705CE089B240F22D12914203DA0522A7
:10207000924B9A7053E089B240F25F12914203DAB8
:1020800006228E4B9A704AE089B240F29112914238
:1020900003DA0722894B9A7041E089B240F2C312F9
:1020A000914203DA0822854B9A7038E089B240F2F7
:1020B000F512914203DA0922804B9A702FE089B21F
:1020C00040F22722914203DA0A227C4B9A7026E0E2
:1020D00089B240F25922914203DA0B22774B9A706F
:1020E0001DE089B240F28B22914203DA0C22734B3D
:1020F0009A7014E089B240F2BD22914203DA0D22B7
:102100006E4B9A700BE089B240F2EF22914203DAF3
:102110000E226A4B9A7002E00F22684B9A7089B2C5
:102120001A2903DA0022654BDA706BE089B2332991
:1021300003DA0122614BDA7064E089B24C2903DAD8
:1021400002225E4BDA705DE089B2652903DA032270
:102150005A4BDA7056E089B27E2903DA0422574BD3
:10216000DA704FE089B2972903DA0522534BDA700F
:1021700048E089B2B02903DA0622504BDA7041E018
:1021800089B2C92903DA07224C4BDA703AE089B2E6
:10219000E22903DA0822494BDA7033E089B2FB29DD
:1021A00003DA0922454BDA702CE089B2B1F58A7F57
:1021B00003DA0A22414BDA7024E089B240F22D1290
:1021C000914203DA0B223D4BDA701BE089B2B1F584
:1021D000A37F03DA0C22394BDA7013E089B240F2A4
:1021E0005F12914203DA0D22344BDA700AE089B2B1
:1021F000B1F5BC7F03DA0E22304BDA7002E00F2219
:102200002E4BDA70704710B50400200040B2FFF783
:1022100061FE2B48007810F0FD002949087028481D
:10222000007850F0100026490870B8202549087041
:1022300025480078C006FBD423480078C0B2C0F31C
:1022400081000228F8D11D48C3781C4882781B48B9
:1022500041781A480078FFF739FE174864B200EB5E
:102260008400807810F0070018490870124864B2A2
:1022700000EB8400C07810F01F0050F040001449BB
:102280000870114800788006FBD50F48007840069A
:10229000FBD50C48007810F03F000A4908700A4846
:1022A0000078C0B2C0F381000328F8D1024864B2BC
:1022B00030F82400C0B210BD3C0BFF1F940BFF1F71
:1022C00001400640004006400640064004400640EB
:1022D0000540064001B4BDF80000002805D0BDF857
:1022E0000000401EADF80000F5E701B0704780B572
:1022F000012201211A20F9F7A5F901220121192053
:10230000F9F7A0F923211A20F9F763FA23211920FC
:10231000F9F75FFA01BD80B501207A490860012014
:10232000794908604FF4C870FFF7D4FF002077495F
:10233000086077480068002804D1012073490860CC
:10234000002016E001207149086000206D490860F6
:102350004FF4C870FFF7BEFF00206B4908606C485F
:102360000068002804D0012068490860002000E0CF
:10237000012002BD80B5002063490860002061494A
:1023800008604FF4C870FFF7A5FF01205E490860A0
:102390004FF4C870FFF79EFF01205A4908604FF4C0
:1023A000C870FFF797FF01BD80B50020564908604F
:1023B0004FF4C870FFF78EFF0020524908604FF4B9
:1023C000C870FFF787FF01204F4908604FF4C870BD
:1023D000FFF780FF00204C4908604FF4C870FFF7FA
:1023E00079FF01BD80B50020474908604FF4C870EF
:1023F000FFF770FF0120434908604FF4C870FFF7F2
:1024000069FF0120404908604FF4C870FFF762FF80
:1024100000203D4908604FF4C870FFF75BFF01BD25
:1024200080B50020384908600020384908604FF422
:10243000C870FFF74FFF0120334908604FF4C870A0
:10244000FFF748FF32480068002807D001202F49D5
:10245000086000202C490860002006E001202B497C
:102460000860002028490860012002BD38B5050039
:1024700008242000441EC0B2002818D0280603D526
:1024800001202049086002E000201E4908606D001C
:102490004FF4C870FFF71EFF01201B4908604FF47E
:1024A000C870FFF717FF002017490860E1E731BD4A
:1024B00038B5082400250020144908602000441E77
:1024C000C0B2002815D06D0000200F4908604FF4FD
:1024D000C870FFF7FFFE01200B4908604FF4C87079
:1024E000FFF7F8FE0A4800680028E7D055F001051C
:1024F000E4E7012005490860002003490860EDB2C7
:10250000280032BD6400FE436800FE43E402FE433F
:102510006402FE4370B504000D0000262900C9B214
:10252000200080B200F00AF8002805D1761CF6B22F
:10253000142EF3D1002000E0012070BD38B5040056
:102540000D00FFF7E8FE002801D1002019E042202D
:10255000FFF78CFFFFF764FF002803D1FFF70AFFA6
:1025600000200EE02000C0B2FFF780FFFFF758FF09
:102570002800C0B2FFF77AFFFFF752FFFFF7FAFE1D
:10258000012032BDF8B504000D001600002732000E
:10259000D2B2290089B2200000F00AF8002805D143
:1025A0007F1CFFB21E2FF2D1002000E00120F2BDFF
:1025B00070B505000C001600FFF7ADFE002801D134
:1025C000002037E04220FFF751FFFFF729FF0028E6
:1025D00003D1FFF7CFFE00202CE03000C0B2FFF7A0
:1025E00045FFFFF71DFFFFF7C5FEFFF794FE00282C
:1025F00001D100201EE04320FFF738FFFFF710FF56
:10260000002803D1FFF7B6FE002013E0A4B2002C8F
:102610000DD0FFF74DFF2870A4B2012C02D1FFF7B7
:10262000E1FE01E0FFF7C0FE6D1C641EEEE7FFF760
:10263000A1FE012070BD0000012210F01F018A40A0
:10264000884940B203005B0941F82320704701220A
:1026500010F01F018A40844940B203005B0941F831
:102660002320704710B504008048046080488149E9
:10267000086081488149086000F09AF80028FBD082
:1026800000F002F8002010BDE0B5012002904FF4E8
:1026900016600190002000901B237448026878495E
:1026A000002000F040F97748006840084000754974
:1026B00008605720FFF7CBFF7348006850F0010017
:1026C000714908600020FFF7B7FF70491B20F9F738
:1026D0005BF86F491D20F9F757F807BD10B56D4835
:1026E00090F90000042828D103206A490870572077
:1026F000FFF7ADFF5FF00060674908606148006860
:1027000050F001005F4908605FF0006062490860B6
:102710005A480068040057480068584908605548FE
:10272000046001205D4908705FF000605A4908604C
:10273000524800685A49086005E05720FFF787FFB4
:1027400002205449087010BD0120524908704E48BB
:10275000006850F001004C490860704780B50420C3
:102760004C4908705FF0FF304B4908605720FFF775
:1027700063FF4A4800780128FBD1002047490870D0
:1027800000F0CCF9434890F9000001280FD04148EF
:1027900090F900000228F5D104203E4908705FF04E
:1027A000FF303D4908605720FFF746FFEAE701BDCB
:1027B00010B582B0002400208DF80000FFF797FDCF
:1027C00080211220FFF7A6FE002804D13548F9F732
:1027D0004DF9002044E03220F9F74FF80B22012197
:1027E0006846FFF7CFFE002804D12F48F9F73EF9DD
:1027F000002035E09DF800102C48F9F737F92C48F7
:1028000001782C48F9F732F99DF80000212826D1EB
:102810000020040020002649097880B289B288424D
:1028200018D22548A4B200EB440041782248A4B253
:1028300010F8140080B2FFF76DFE002808D11E4882
:10284000A4B210F814101D48F9F710F9002007E0A1
:10285000641CDFE71A48F9F709F9012000E00020BD
:1028600016BD000000E100E080E100E0640A002005
:102870005CA5FF1F30070020C4B0FF1F2C070020FD
:1028800050F00F400C800040248000400201020004
:1028900012010900460DFF1FA0900440CA0A002043
:1028A00010900040E8390100503A0100FC38010066
:1028B000470DFF1F98390100540CFF1F003A01001B
:1028C000203901002DE9F84304000D0020008009A3
:1028D00010F00700C0B25FEA40192000103810F075
:1028E0003F00C0B2C000060016EB09008046EDB202
:1028F00018EBC500401E070038004146C0B2C9B2FF
:1029000088420ED3002200214046C0B2F8F79AFE5A
:102910004FF481714046C0B2F8F736FF18F1010854
:10292000EAE7BDE8F1832DE9F84F05000E00170036
:1029300098469DF92840DDF82C90DDF830A064B26F
:10294000002C02D15FF0010B0DE064B2012C02D12A
:102950005FF0020B07E064B2022C02D15FF0040BBF
:1029600001E05FF0100B64B2002C05D15A4886429A
:1029700002D35A48B0421DD264B2012C09D1564844
:10298000864206D35648B04203D316F0030003280C
:1029900010D164B2022C09D14F48864206D3514867
:1029A000B04203D316F00300002803D061214E4843
:1029B000F8F78FFFB9F5004F03D363214A48F8F7C2
:1029C00088FF4A48006850F00200484908604848BB
:1029D000006850F002004649086046486DB269013F
:1029E000465044486DB269010844076100204149DE
:1029F0006DB26A01114488805FFA8BFB3D486DB26D
:102A000069010844A0F814B064B2210211F4E06135
:102A100064B214F00700014336486DB26A011044F5
:102A2000C18048464004400C32496DB26A011144ED
:102A3000C88248464004400C2E496DB26A011144D8
:102A4000C8832D48006830F080002B4908605FFA89
:102A50008BFB28486DB269010844C0F808B000201B
:102A600024496DB26A011144C8605FEACA7002D499
:102A7000D9F1000000E000201E496DB26A01114446
:102A800088614CF20A001B496DB26A0111448883C7
:102A90004046C0B24009313050F0800017496DB255
:102AA000485517494046C0B2F8F76EFE5946C9B2BC
:102AB0003000FFF707FF134800680121A940884351
:102AC00010490860104800680121A94008430E49D8
:102AD0000860BDE8F18F000010F00F4013F10F40C7
:102AE00012F10F4010F10F40F83401004080044013
:102AF0003C800440009000400080004000100240F4
:102B0000000101000C8000402480004080B500F0EE
:102B100068F8FCF72BFEFFF721FEFCE780B54FF4C9
:102B2000166214480168144800F0D6F8FAF702FD5E
:102B3000FAF722FEFBF729FAFAF746FFFBF7A4FAA9
:102B4000FBF79CFF0D4880ED000A0C4890ED000A51
:102B5000FFF7AAF90A4880ED000A00F009F9FEF72C
:102B60009FFC0120F8F767FF06480068401C0549F4
:102B7000086001BD300700202CBCFF1FC8090020E1
:102B8000CC090020BC09002010F00703484909685F
:102B90000A004FF6FF010A40464951EA03210A4361
:102BA00043490A607047012210F01F018A404249E0
:102BB00040B203005B0941F82320704710B440B2D3
:102BC000002808D50A013D4B40B210F00F04234401
:102BD00003F8042C03E00A01394B40B21A5410BC2C
:102BE000704780B5002342F2107202210020FDF7E9
:102BF0001FFF002342F2107203210020FDF718FF8F
:102C0000002342F2107204210020FDF711FF00237F
:102C100042F2107205210020FDF70AFF40F2B36373
:102C2000642201210320FDF703FF0420F8F7E6FEEC
:102C3000FCF776FDFEF7C4FEFBF7D0FF21480168E4
:102C4000012000F03BF92049552000F086F945208D
:102C5000FFF7A9FF5FF4E1310320F8F71BFF4FF402
:102C600016510120F8F716FF0120FEF74DF817481E
:102C70000068FFF7F7FC1649672000F06EF9154968
:102C8000102000F06AF90420FFF77EFF0021572092
:102C9000FFF794FF01210020FFF790FF022145205C
:102CA000FFF78CFF0020FEF70AFFFDF7A1F801BD3A
:102CB0000CED00E00000FA0500E100E018ED00E096
:102CC00000E400E0300A0020F93201002C07002067
:102CD000C133010015340100F8B403002348008813
:102CE000ADF800001E000D001000421E00283BD071
:102CF000287804006D1C6846E4B22700FF11C05D0F
:102D00003070761C6846E4B2C4F38017C05D307042
:102D1000761C6846E4B2C4F34017C05D3070761C80
:102D20006846E4B2C4F30017C05D3070761C684694
:102D3000E4B2C4F3C007C05D3070761C6846E4B2EC
:102D4000C4F38007C05D3070761C6846E4B2C4F3FB
:102D50004007C05D3070761C6846E4B214F001078D
:102D6000C05D3070761CBFE7F1BC70476ECB0000D1
:102D7000F8B52DED068BB7EE008ADFED438A1E24F1
:102D8000322540F2627640F204679FED3F9ADFED14
:102D90003E9A9FED3DAA414890ED000AF0EE408A30
:102DA00040F2B3603E4908603E4890ED000A38EEBC
:102DB000C00AFFF779F8DFED350AB4EE600AF1EEEC
:102DC00010FA04DB374890ED000AF0EE408A3648EE
:102DD00090ED000A20EE280AF0EE409A314890ED7E
:102DE000000A38EEC00A3148D0ED000A20EE200A71
:102DF000B0EE40AA2B48C0ED008A39EE8A0AB0EE48
:102E0000409A2B4890ED000AB4EE408AF1EE10FA99
:102E100003DB9FED1D0AB0EE409A9FED1D0AB4EE54
:102E2000409AF1EE10FA03DB9FED1A0AB0EE409AD9
:102E30009FED190AB4EE409AF1EE10FA03D59FED1A
:102E4000160AB0EE409A1B4880ED009A1A480168B5
:102E5000BDEEC90A10EE100A411811480160104871
:102E60000068B04201DB0E4806600D4800688742EA
:102E700001DB0B4807600A48026801210320FDF7C7
:102E8000B0FEBDEC068BF1BD000000000100A042C9
:102E900001002F4300002F4300002FC3C80900206A
:102EA00054A5FF1F58A5FF1FCC0BFF1FD00BFF1F02
:102EB000CC09002050A5FF1FC80BFF1F38B5050027
:102EC0000C00002C03D122211748F8F702FD174807
:102ED000006850F40000154908600020144908609B
:102EE000601E14496DB22A01885012486DB2290142
:102EF0000844C06850F001000E496DB22A01114427
:102F0000C8600C486DB22901084480684008400040
