:10000000F8FF0020110400006F2800006F28000096
:100010006F2800006F2800006F2800006F28000084
:100020006F2800006F2800006F2800006F28000074
:100030006F2800006F2800006F2800006F28000064
:100040006F2800006F2800006F2800006F28000054
:10040000FFFFFFFFFFFFFFFFFFFFFFFFFEFFFFFFFD
:1004100062B603F05BF9FEE72DE9F0439FB0814639
:100420002698DFF804898DF83B00174600201E4609
:1004300002910B900FF680344FF0FF350AE017F869
:10044000011B0298C8470028029000F09A800B9880
:10045000401C0B90387850B12528F0D100200021A5
:10046000059006910790089109900A9103E00B9876
:100470009AE041F0010117F8010F2028F9D0232854
:100480000DD02B2804D02D2806D030280AD07AE0B1
:1004900041F0020189B2EEE741F00401FAE741F0D0
:1004A0000801F7E741F01001F4E700200D9009E0A2
:1004B0000D98404505DA00EB800302EB4302303A29
:1004C0000D927F1C3A78A2F130000A28F0D33A78D6
:1004D0002E2A18BF0C9523D117F8010F2A2807D10F
:1004E000306830607F1C50F8042B30600C9217E0AD
:1004F0002D280CBF17F8010B002000220C920AE0F7
:1005000040B90C9A424505DA02EB820203EB420342
:10051000303B0C937F1C3B78A3F130020A2AEFD3C7
:10052000ADF838102046397800F07AFD08B117F898
:10053000010B8DF83A009DF83A00682804BF39781D
:10054000682903D162208DF83A0007E06C2804BFC7
:1005500038786C2803D171218DF83A107F1C10A8CF
:100560000490324617F8013B6946484600F05CF8B3
:1005700038B910AA6946484600F084F900287FF58A
:1005800069AF284610E02A288FD13068306050F8D3
:10059000042B3060002A0D9204D5524241F0040130
:1005A0000D9289B27F1C92E71FB0BDE8F0836228EC
:1005B00020D0682811D06A2803D06C2827D0712851
:1005C00025D10868C01D20F007000860D0E900238D
:1005D00008300860194610467047002A0A680A6009
:1005E000106803D0121D0A6000B217E0121D0A60E5
:1005F00080B217E0002A0A680A60106803D0121D52
:100600000A6040B20AE0121D0A60C0B20AE0002A85
:100610000A680A60106803D0121D0A60C11770478B
:10062000121D0A600021704770B51C460D46B4F1DA
:1006300025002E69114600F013812038022865D963
:10064000133841D00B3816D0401E1ED0401E022851
:100650005CD9001F19D0401F00F08380401E33D0AA
:10066000401E00F0CD80C01E00F0D880801E2BD030
:10067000C01E29D0FAE06869421C6A610A680A60F3
:1006800052F8043B0A603354FAE095F83A0001222C
:10069000FFF78DFFC5E900010023994204DA68697C
:1006A000411C69612D210DE0288F810704D56869FF
:1006B000411C69612B2105E0C00722D56869411CF6
:1006C0006961202131541CE095F83A000022FFF7BF
:1006D0006EFFC5E9000195F83800010711D5D5E98D
:1006E00000230020834208BF82420AD044F0200049
:1006F000782806D1686930213154401C411C696159
:100700003454214668693044E86083E00868C01DBD
:1007100020F007000860D0E9002308300860C5E930
:100720000023D5E90001C80F04D06869411C696144
:100730002D210DE0288F810704D56869411C69616E
:100740002B2105E0C00704D56869411C696120219F
:10075000315468693044E8602146284600F0C1F908
:100760008EE005F13A02507820B14FF0FF340FF6D9
:1007700050005EE01078622808D0682824D06A28EB
:1007800012D06C282ED071280ED02BE00A680A6097
:1007900052F8040B0A6020B94FF0FF340FF638000E
:1007A00047E0E96A01706BE00A680A6052F8040BDE
:1007B0000A6020B94FF0FF340FF61C0039E0EA6AF6
:1007C000D317C0E900235BE00A680A6052F8040B03
:1007D0000A6020B94FF0FF340FF2FC7029E0E96A9B
:1007E00001804DE00A680A6052F8040B0A6020B9E3
:1007F0004FF0FF340FF2E0701BE0E96A01603FE068
:100800000A680A6052F8040B0A600021C5E9000179
:10081000EE607821284600F0BCF831E008680860F6
:1008200050F8044B0860EC603CB94FF0FF340FF215
:10083000C07000F001FC201A70BD2E6B002E04D594
:10084000204600F01BFC044608E03246002120460A
:1008500000F030FC002814BF041B3446AC610FE0EC
:100860006869411C69612521315409E06869411CAE
:10087000696125223254200002D0481C68617454FA
:10088000002070BD2DE9F0410F4682B00646796B1D
:100890007869BC6A091A386A091AB869091A786A43
:1008A000091AF869091A97F838000C1B4107904695
:1008B0000FD42021002C8DF800100ADD25460123DD
:1008C0006A463946304600F05FFB00285DD16D1E58
:1008D000F5D17B6942463946304600F055FB002889
:1008E00053D130208DF800003D6A002D09DD012331
:1008F0006A463946304600F047FB002845D16D1E58
:10090000F5D1BB69FA683946304600F03DFB002856
:100910003BD130208DF800007D6A002D08DD0123D9
:100920006A463946304600F02FFB70BB6D1EF6D18B
:10093000F868B969FB6942183946304600F024FB73
:1009400018BB30208DF80000BD6A002D08DD0123A2
:100950006A463946304600F017FBB0B96D1EF6D135
:1009600097F8380041070DD52021002C8DF8001094
:1009700008DD01236A463946304600F005FB20B900
:10098000641EF6D10020BDE8F6814FF0FF30BDE8CF
:10099000F6812DE9F04704468A462569BAF16F0FC2
:1009A00008BF082705D04AF02000782814BF0A277E
:1009B00010273C26D4E90001BAF1640F18BFBAF140
:1009C000690F8046894607D10B4600218B4203DA26
:1009D000D8F1000869EB49090020814508BF80452E
:1009E0001FD1206BE8B9082F47D194F838000107D0
:1009F00043D530203B2685F83B003EE000280ED54D
:100A000094F8380000F01400102808D1626B606977
:100A1000121A206A121A561A002EC8BF2662BDE8A2
:100A2000F087404649463A46FB1700F06FFB3032EC
:100A3000761ED2B23A2AA4BFAAF151008218AA5552
:100A4000404649463A46FB1700F060FB804689461F
:100A50000020814508BF804503D0E068A91988427D
:100A6000DFD3082F09D194F83800010705D5A95D17
:100A7000302902D0761E3020A855A819E060C6F1B2
:100A80003C01206BA1618142B8DA411A21624FF624
:100A9000EF70218F01402187BDE8F0872DE9D04319
:100AA00006460F4614464FF00008DFF8809212E029
:100AB000E00707D542464B463046394600F09EFBDC
:100AC00006460F464046494642464B4600F096FBD6
:100AD000641080468946002CEAD130463946BDE88C
:100AE000D0832DE9F04F04468FB0206BD4E9009AF3
:100AF0000028884604AD48BF062005D404BF48F04E
:100B00002000672801D101202063D4E90023580088
:100B10004015401C0DD119030BD0A8F16101032031
:100B20001A29A06102D20FF2E44110E00FF2E04175
:100B30000DE058004015401C0ED119030CD1A8F14E
:100B4000610103201A29A06116D30FF2CC41E0689D
:100B5000032200F01DFCE3E0CDE9022323F0004175
:100B6000B1F5801F11D20026B14208BFB2420196F2
:100B700005D1DDE9020118E00FF29841E7E7DDE970
:100B8000020101AA00F058FC08E0694E06EB11567C
:100B9000684901960B40684910461943019F674A0E
:100BA00047F29756774397FBF2F6C4E900010246F5
:100BB00021F000430020834204BF8242002300F062
:100BC000A780484651460022002300F06DFC38BF44
:100BD0008AF0004A3246D2F10702019603DD5146FF
:100BE000FFF75CFF0AE0524200205549FFF756FF2D
:100BF00002460B464846514600F06EFC814648F0DE
:100C0000200BBBF1660F206B06BF019E0A3606263D
:100C10003618142EC8BF142630208A468DF81000CE
:100C20000DF11107002E33DD4846514600F078FDE6
:100C300001460A4607F1080304200A27B2FBF7F72A
:100C400007EB8705A2EB4502303203F8012C0A229C
:100C5000B7FBF2F202EB8205A7EB45073037401EE7
:100C600003F8027DE9D1083E002E03F10807D9DD23
:100C7000084600F069FD02460B464846514600F022
:100C800071FD00222F4B00F0B9FA81468A46CBE76E
:100C90000DF111003F1A0DF1110504E00198401EFD
:100CA0007F1E01906D1C28783028F7D0BBF1660FAD
:100CB00002D10198401C04E0BBF1650F0CBF01207C
:100CC0000020236BC3189F42B8BF7B1E002B1ED48D
:100CD000BB4204DAE85C3528A8BF392000DA3020AE
:100CE00019466A1E02EB010900E05B1E19F801A912
:100CF000491E8245F9D0392802D1685C401C6854ED
:100D0000002904D50198401C15465B1C01900198F0
:100D100000B200901BB22A464146204600F014F86B
:100D20000FB0BDE8F08F0000CBCCCC0C000024400D
:100D300002FCFFFFFFFF0F800000E03FA0860100E4
:100D40000000F03F84D797412DE9F04784B0054675
:100D5000894692461F4600F077FD002F406A2E6BB1
:100D600090F8008002DC01270FF2B02ABDF9304074
:100D700049F02000662808BF641C13D0672840F0A3
:100D8000898014F1040F74DBB44272DA95F83800EC
:100D9000641C010702D4B742B8BF3E4624B2361BDA
:100DA00048BF002624B2E868A969002C22DC4A1C4E
:100DB00030234354002E03DC95F83800010703D597
:100DC000E86800F80280521CE642B8BF744224B2C0
:100DD000A6196042BE42B8BF3746AA6168623FB2F8
:100DE000EF61E868AB693A465146184400F0D0FA22
:100DF000F61B18E022469742084416DA3A46514656
:100E000000F0C6FAA9697918E01B002EA961686292
:100E100003DC95F83800020705D5E86800F8018082
:100E2000E869401CE861AE6297E0514600F0B0FA14
:100E3000A86920183F1B002E03DC95F838100A071C
:100E400003D5E96801F80080401CA8613FB2BE42AA
:100E5000B8BF3746E868AB693FB23A460AEB0401CF
:100E6000184400F095FAA8693818A861F61B6E625C
:100E700073E0B74204DA95F838100A0758BF3E46C7
:100E8000761E48BF0026B9F1670F0CBF4FF0650909
:100E90004FF04509A969EB68481CA861002E1AF8B3
:100EA000012B5A5403DC95F838100A0717D5E96866
:100EB000431CAB6101F80080002E10DD7F1E3FB2A5
:100EC000BE42B8BF3746E8683FB23A46514618447A
:100ED00000F05EFAA8693818A861F61B6E62E8682F
:100EE000A9690844002C80F8009004D42B2141709B
:100EF00000F1020A04E02D21417000F1020A64426F
:100F000000206A460AE021460A2391FBF3F404EB31
:100F10008403A1EB430102F8011B401C24B2002C06
:100F2000F1DC012806DC49F02001652904BF3021ED
:100F30000AF8011B48B930200AF8010B07E0401EEF
:100F40001DF8001030310AF8011B0028F7DCE868B2
:100F5000A9690844AAEB0000E86195F8380000F0A0
:100F6000140010280DD16969A8694118686A4118F0
:100F7000E8694118A86A4118686B8142BCBF411AF0
:100F8000296204B0BDE8F087F8B505460E4617465D
:100F90001C46002074B117F8011BB068A847B06068
:100FA00030B1F06A401CF0620020641EF3D1F2BD43
:100FB0004FF0FF30F2BD0000686A6C747A4C00009C
:100FC0007072696E74665F733A20256E206469736F
:100FD000616C6C6F776564007072696E74663A203C
:100FE00062616420256E20617267756D656E7400A4
:100FF0007072696E74665F733A2062616420257353
:1010000020617267756D656E740000006E616E0020
:101010004E414E00696E6600494E460030000000A9
:101020000278C9B28A421AB11CBF10F8012FF9E741
:1010300018BF00207047000080B508B90FF21C00EF
:1010400005490B681BB122220021984701E000F0FE
:1010500001FC222002BD0000640EFF1F636F6E734F
:10106000747261696E742068616E646C65723A2096
:10107000626164206D6573736167650000F101034F
:10108000810704D010F8011B89B18107FAD10268E9
:10109000B2F10131914311F0803F04BF50F8042FA9
:1010A000F6E710F8011B11B110F8011BFBE7C01A9D
:1010B00070470000C9B2830706D0521E22D310F831
:1010C000013B9942F7D11FE0083A13D302F1040221
:1010D00041EA012141EA014150F8043B121F21BFBE
:1010E0004B40A3F1013C2CEA030C1CF0803FF3D0F1
:1010F000C9B2001F083210F8013B521E28BF91EA06
:10110000030FF8D818BF0120401E70471B4213D1AF
:10111000094236D12AB18446B0FBF2F002FB10C27C
:10112000704700F09BBBFCD30022002370470B00EC
:101130000200002100207047904271EB030CF6D3AF
:1011400070B5B1FA81F4B3FA83F52C1BA340C4F156
:10115000200532FA05F63343A2405FF00046E64030
:1011600002E05B085FEA3202841A71EB030524BFD8
:10117000204629467641F4D302000B0030000021BE
:1011800070BD012ACFD970B5140C20D0B1FA81F40A
:10119000B2FA82F5C4F120046419B4F12006D6D362
:1011A000B2405FF00044F440002502E052085FEADC
:1011B0003303C61A71EB020E24BF304671466441F8
:1011C0006D41F3D302000B002000290070BD0C46D6
:1011D000B1FBF2F102FB11452D0445EA1045B5FBC8
:1011E000F2F402FB145580B240EA0545B5FBF2F07B
:1011F00002FB105240EA044070BD0000B0B581EA25
:10120000030C0CF0004C40F2FF7515EA11541DBFA1
:1012100015EA1357AC42AF4231E0E41923EA4553D3
:1012200043F48013C90241F0004141EA505EC70215
:10123000A7FB02100029A2FB0E21E3FB6720E3FBC2
:101240006E0118BF42F00102A4F580640F0302D2C0
:1012500052004041494154F101046CDD470872F1EC
:10126000004250F1000051EB0451A1F580115CBF28
:1012700041EA0C01B0BD4CEA05510020B0BD05EAC1
:101280001357AC4214BFAF4241E050EA410E1CBFBD
:1012900052EA430E02E061460020B0BD24423C44C5
:1012A0001BD15FEA070EF6D0090302BF01460020FA
:1012B000AEF1140EB1FA81F7AEEB070401FA07FEA6
:1012C0000C37C7F1200100FA07F7C8404EEA000EBC
:1012D00023EA455343F48013AAE733F00043B3FAFB
:1012E00083F704BFB2FA82FE77440B3FE41BB7F1E9
:1012F000200E2FBF02FA0EF3BB40C7F1200E22FAD8
:101300000EFE38BF43EA0E03BA40641C8AE750EA77
:10131000410E14BF52EA430E6FF000014FF4001764
:1013200017EB430F8ABF194617EB410FB5E74CEA9D
:1013300005510020B0BDD4F10104B4F120070FDA4B
:10134000C4F12007520828BF42F0010210FA07F545
:1013500001FA07F7E1BF2A43E0403843E1400FE0DC
:10136000352C98DCC7F1200452EA400220FA07F23B
:1013700018BF42F0010231FA07F0A1400A430021F0
:1013800072F1004250F1000051EB0C01B0BD0000C1
:1013900062B38B0708D0521E11F8013B00F8013BE5
:1013A00000F024808B07F6D1830740F0208000BF37
:1013B000103A07D330B4B1E83810103AA0E838102A
:1013C000F9D230BC530724BFB1E80810A0E80810D8
:1013D00044BF51F8043B40F8043BD20724BF31F826
:1013E000022B20F8022B44BF0B7803707047121FAA
:1013F00017D35B0009D151F8043B20F8023B1B0CCA
:10140000121F20F8023BF6D20BE051F8043B00F823
:10141000013B1B0A20F8023B1B0C121F00F8013B8A
:10142000F3D238BF121D521E24BF11F8013B00F841
:10143000013BF8D87047000010B5144600F002F8E0
:10144000226010BDC1F30A5343B14A0012F5001FD8
:1014500028D2A3F2FE32A1EB0251704750EA410CB0
:1014600020D001F0004C31EA0C01B1FA81F204BF46
:10147000B0FA80F3D2180B3AB2F120032CBF00FA75
:1014800003F1914041EA0C013EBFC2F1200C20FA69
:101490000CF319439040524240F2FD33D21A01EB53
:1014A00003517047002270474FF4001C1CEB410FA2
:1014B00094BF1CEB430F09E041EA030C50EA4C0CCB
:1014C00052EA0C0C03D2994208BF9042704714BFF5
:1014D0008B42824270470000F0B540F2FF7581EA0E
:1014E000030C0CF0004C15EA11541DBF15EA1357FC
:1014F000AC42AF42E5E0BC41C1F31301C3F31303B7
:10150000801A994143F4801304D2641E400049417B
:1015100080185941C90241EA5051B1FBF3F603FB6F
:101520001611A2FB0675D7EBC020A94102D2761E88
:1015300080185941C90241EA5051B1FBF3FE03FB47
:101540001E11A2FB0E75D7EBC020A94103D2AEF14C
:10155000010E80185941890241EA9051760546EA08
:101560008E2EB1FBF3F603FB1611A2FB0675D7EB2B
:101570008020A94102D2761E80185941C90241EA51
:1015800050514EEA060EB1FBF3F603FB1611A2FB17
:101590000675D7EBC020A94102D2761E80185941AA
:1015A000C90241EA5051B1FBF3F703FB1711A2FB4B
:1015B0000735D3EBC020A94167F100070CBF0042FB
:1015C00047F0010766F3D5274FEA1E31B80814F536
:1015D000806412DDBD0775F1004250EB0E5051EBF7
:1015E000045111F5801F5CBF41EA0C01F0BD4CF0C5
:1015F0007F6141F0E0410020F0BDBD076D0840EA89
:101600000E5041F48011D4F10104B4F120060ADA3D
:10161000C4F120060200E04001FA06F3E14018435D
:10162000B24015430EE0342C13DCC6F1200445EA29
:1016300040056D0820FA06F2154321FA06F0A14094
:101640000D43002175F1004250F1000051EB0C01F7
:10165000F0BD00205FEA0C01F0BDCFB992185B41EC
:10166000B3FA83F704BFB2FA82F6BF190B3FB7F1A2
:1016700020062FBF02FA06F3BB40C7F1200622FA6C
:1016800006F638BF3343BA401CB1E419641E33E791
:101690007F4231F00041B1FA81F404BFB0FA80F624
:1016A000A4190B3CB4F120062FBF00FA06F1A140AB
:1016B000C4F1200620FA06F638BF3143A0403C1B97
:1016C0001AE7AC421ABF05EA1357AF4212E050EADC
:1016D00041061CBF52EA4306BFE750EA41073046C5
:1016E00061461CBF41EA0551F0BD52EA430C08BFF8
:1016F000C143F0BD00204FF4001616EB410F98BF18
:1017000016EB430F08BF16EB410F24BFC14305E0A2
:1017100016EB430F0CBF61464CEA0551F0BD0000CB
:10172000400D491840EA81200CD2490DA1F5806195
:10173000491C40F0004005DBD1F11F0154BFC840F7
:10174000C017704700207047014648B1B0FA80F1D9
:101750008840C91CC1F58461090501EBD021400511
:101760007047000070B44FF0004591EA030F40F15C
:1017700077806B40841A71EB030603D2001BB141E2
:10178000121973414FF4001C1CEB410F34BF7CEB6A
:10179000430442E00C0DA4EB1356352E4FDC45EA12
:1017A000C323DB0A45EAC121C912B6F120050DDDCC
:1017B00063FA05F6EB4086EA0305124218BF45F0CE
:1017C0000105C01851F100010CD213E062FA06F5D0
:1017D000F2405540F3415A40B340F3405A4080181C
:1017E000594107D349085FEA30005FEA350528BF51
:1017F00045F0010501F58011420875F1004250F1F4
:10180000000041EB04514E0016F5001F70BC38BFBC
:1018100070470020090D090570471CEB410F10D2DD
:1018200052EA43060BD0BCEB410F05D80C0DAB437D
:10183000661E342EB6DD02E0AB438018594170BC01
:10184000704770BC704700000148704700000000FE
:10185000D00BFF1F012000F0B7B800007047000058
:10186000841A71EB030604D26E40001BB1411219B9
:1018700073414FF4001C1CEB410F34BF7CEB43065B
:1018800082E00C0DA4EB1356362E7BDC012E45EACC
:10189000C32341DC43EA525312BFD20292025B08D7
:1018A000240545EAC12141EA5051D2EBC0209941BB
:1018B00025D407D1B0FA80F610FA06F162D00020E4
:1018C000203608E0B1FA81F6B140C6F1200220FAD4
:1018D00002F21143B0404FEAF474B4EB465434F0D2
:1018E00001064FEA74040AD8D6F50016760D04F006
:1018F0000044F04061FA06F25040F1404840C00A0E
:1019000040EA415021F0004128BF5FEA500550F104
:10191000000044EBD12135E0DB0A45EAC121C90AC8
:10192000B6F120050EDD42EA0242120CC5F1200696
:1019300003FA06F6EB4042EA06056D42984161F172
:1019400000010DE062FA06F5F240554063FA06FC2C
:1019500082EA0C02F3405A406D42904161EB030170
:1019600011F4801F05D1641E620502D06D00404154
:10197000494121F48011430875F1004350F1000002
:1019800041EB045170BC70471CEB410F15D223F0A2
:10199000004352EA43060BD04FEA4C0CBCEB410F1C
:1019A00004D80C0D661E342EB7DDEBE7801A994182
:1019B00050EA410608BF0021E4E708BF1CEB430FD3
:1019C00028BF6FF00001DDE7202109032631182030
:1019D000ABBEF9E7000000000000000000000000BE
:1019E00000000000000000000000000000000000F7
:1019F00000004E6F6E4D61736B61626C650000009C
:101A000000486172644661756C740000000000005B
:101A10004D656D4D616E6167656D656E7400004268
:101A200075734661756C740000000000000055730A
:101A30006167654661756C7400000000000000007D
:101A40000000000000000000000000000000000096
:101A50000000000000000000000000000000000086
:101A60000000000000000000000000000000000076
:101A7000000000000000000000535643616C6C0041
:101A8000000000000000000044656275674D6F6E45
:101A900069746F7200000000000000000000000088
:101AA00000000000000050656E6453560000000006
:101AB00000000000005379735469636B000000005C
:101AC00000000000444D4130000000000000000014
:101AD000000000444D413100000000000000000003
:101AE0000000444D413200000000000000000000F2
:101AF00000444D41330000000000000000000000E1
:101B0000444D41340000000000000000000000448B
:101B10004D41350000000000000000000000444D71
:101B200041360000000000000000000000444D416C
:101B3000370000000000000000000000444D413864
:101B40000000000000000000000000444D4139008A
:101B500000000000000000000000444D4131300052
:101B6000000000000000000000444D413131000041
:101B70000000000000000000444D41313200000030
:101B800000000000000000444D413133000000001F
:101B9000000000000000444D41313400000000000E
:101BA0000000000000444D413135000000000000FD
:101BB00000000000444D415F4572726F72000000EA
:101BC0000000004D434D0000000000000000000038
:101BD00000004654464C00000000000000000000D9
:101BE00000526561645F436F6C6C6973696F6E006E
:101BF0004C56445F4C565700000000000000004C5B
:101C00004C57000000000000000000000000576179
:101C1000746368646F6700000000000000524E4764
:101C200000000000000000000000000049324330C6
:101C300000000000000000000000004932433100B5
:101C40000000000000000000000053504930000078
:101C50000000000000000000005350493100000067
:101C60000000000000000000535049320000000056
:101C70000000000000000043414E305F4F525F4DB6
:101C8000425F6275660043414E305F4275735F4F3D
:101C9000666600000043414E305F4572726F72000D
:101CA0000000000043414E305F54785F5761726E10
:101CB000696E6743414E305F52785F5761726E695B
:101CC0006E6743414E305F57616B655F5570000032
:101CD000005265736572766564353100000000005E
:101CE000526573657276656435320000000000430A
:101CF000414E315F4F525F4D425F62756600434116
:101D00004E315F4275735F4F666600000043414E7F
:101D1000315F4572726F72000000000043414E3126
:101D20005F54785F5761726E696E6743414E315FF1
:101D300052785F5761726E696E6743414E315F57EB
:101D4000616B655F55700000005265736572766562
:101D50006435390000000000526573657276656471
:101D60003630000000000055415254305F52585F39
:101D700054580000000055415254305F4552520003
:101D8000000000000055415254315F52585F5458D2
:101D90000000000055415254315F4552520000008E
:101DA00000000055415254325F52585F54580000B1
:101DB000000055415254325F45525200000000006D
:101DC0000055415254335F52585F54580000000090
:101DD00055415254335F45525200000000000055F7
:101DE000415254345F52585F54580000000055412E
:101DF0005254345F455252000000000000554152D9
:101E000054355F52585F54580000000055415254F9
:101E1000355F45525200000000000041444330004D
:101E200000000000000000000000414443310000B9
:101E3000000000000000000000434D503000000092
:101E40000000000000000000434D50310000000081
:101E500000000000000000434D5032000000000070
:101E600000000000000046544D300000000000005B
:101E7000000000000046544D31000000000000004A
:101E80000000000046544D32000000000000000039
:101E9000000000434D54000000000000000000005E
:101EA0000000525443000000000000000000000049
:101EB0000052657365727665643833000000000077
:101EC00050495430000000000000000000000050A5
:101ED000495431000000000000000000000050499B
:101EE000543200000000000000000000005049547F
:101EF00033000000000000000000000050444230A9
:101F000000000000000000000000005553423000B7
:101F1000000000000000000000005553424443440C
:101F2000000000000000000000454E45545F3135C0
:101F300038385F54696D6572454E45545F5472611F
:101F40006E736D69740000454E45545F526563655C
:101F5000697665000000454E45545F4572726F72A8
:101F60000000000000493253300000000000000073
:101F7000000000005344484300000000000000003F
:101F80000000004441433000000000000000000059
:101F90000000444143310000000000000000000048
:101FA0000054534930000000000000000000000011
:101FB0004D43470000000000000000000000004CFE
:101FC0005054696D65720000000000000000526509
:101FD00073657276656431303200000000504F52F4
:101FE000544100000000000000000000504F525417
:101FF0004200000000000000000000504F52544317
:1020000000000000000000000000504F5254440047
:10201000000000000000000000504F525445000036
:102020000000000000000000526573657276656470
:102030003130380000000052657365727665643196
:102040003039000000005265736572766564313185
:10205000300000000052657365727665643131317D
:10206000000000005265736572766564313132009C
:10207000000000526573657276656431313300008B
:10208000000052657365727665643131340000007A
:102090000052657365727665643131350000000069
:1020A0005265736572766564313136000000005206
:1020B00065736572766564313137000000005265E2
:1020C00073657276656431313800000000526573C3
:1020D000657276656431313900000000008003408C
:1020E0000090034000800B4000900B4000F00F4038
:1020F00040F00F4080F00F40C0F00F4000F10F4063
:1021000066000A1D32000701640007106E00040615
:10211000780004088200040A8C00040C9600040E67
:10212000A0000410AA000412B4000414BE00041697
:10213000C8000418D200041ADC00041CE100041DCD
:10214000E600041EEB00041FF4000317FA00031856
:10215000130101062C01021400010908009004403B
:1021600000A0044000B0044000C0044000D004407F
:1021700000A0064000B0064000C0064000D0064067
:1021800000A00E4000B00E406A6E6B6C676D4E4F43
:1021900034353637CC3B0000CC3B0000CC3B000054
:1021A000CC3B0000CC3B0000CC3B0000CC3B000013
:1021B000FFFFFFFFFFFFFFFFCE3B0000CC3B000017
:1021C000CC3B0000FFFFFFFFFFFF00000204010106
:1021D000680EFF1FB80EFF1F680EFF1F680EFF1F5F
:1021E00000000000680EFF1F000000004C0CFF1FE5
:1021F000380CFF1F0000000000000000000000007D
:1022000000000000000000000000000000000000CE
:10221000000000002506010038B504000D0064B27E
:10222000002C06D0022C69D04CD3032C00F0828005
:10223000C7E0DFF86804006850F08070DFF85C14D5
:1022400008606DB2002D0BD0022D15D00ED3042DD9
:102250001ED017D3062D27D020D3072D2AD02FE04C
:102260004FF48061412000F025FA2AE04FF48061AC
:10227000422000F01FFA24E04FF44071052000F0E6
:1022800019FA1EE04FF44071062000F013FA18E02E
:102290004FF44071072000F00DFA12E04FF4806116
:1022A000652000F007FA0CE04FF48061662000F032
:1022B00001FA06E04FF48061672000F0FBF900E0CE
:1022C0007FE07EE0DFF8D403006850F00070DFF8B4
:1022D000CC1308606DB2002D02D0012D06D00BE0AA
:1022E0004FF440710C2000F0E5F906E04FF4407126
:1022F0000D2000F0DFF900E063E062E0DFF8A0030A
:10230000006850F08070DFF8981308606DB2002DFF
:1023100002D0012D06D00BE04FF440710A2000F0EE
:10232000C9F906E04FF440710B2000F0C3F900E05A
:1023300047E046E0DFF86803006850F00070DFF81F
:10234000601308606DB2002D0BD0022D15D00ED396
:10235000042D1ED017D3062D27D020D3072D2AD029
:102360002EE04FF4C061852000F0A4F928E04FF47E
:10237000C061862000F09EF922E04FF4C061872002
:1023800000F098F91CE04FF4C061882000F092F949
:1023900016E04FF4C061892000F08CF910E04FF492
:1023A0004071492000F086F90AE04FF4C0618B20AB
:1023B00000F080F904E04FF4C0618C2000F07AF95D
:1023C000FFE731BD2DE9F84F04000D0016001F0096
:1023D00064B2002C11D064B2012C02D064B2022C81
:1023E00002D16DB2022D08DB64B2032C05D040F29D
:1023F0008511DFF8B00200F0D0F9290049B22000C1
:1024000040B2FFF709FFDFF8A00201684FF47A70CD
:10241000414388464046000CB0FBF6F08146002060
:1024200082461FFA89F9484650FA0AF0012802DB71
:102430001AF1010AF5E75FFA8AFABAF1080F05DB2B
:102440004FF4D071DFF85C0200F0A7F9404630FA93
:102450000AF0B0FBF6F081461FFA89F9DFF84C026A
:1024600064B240F8249064B2002C05D0022C1BD03A
:102470000ED3032C24D02FE01FFA89F919F10100A3
:1024800000FB07F042F21071B0FBF1F0834623E04D
:102490001FFA89F919F1010000FB07F042F21071EF
:1024A000B0FBF1F0834617E01FFA89F919F101003A
:1024B00000FB07F042F21071B0FBF1F083460BE035
:1024C0001FFA89F919F1010000FB07F042F21071BF
:1024D000B0FBF1F08346FFE7DFF8D40164B250F8B7
:1024E00024006DB200EBC500DFF8C41164B251F8EE
:1024F00024106DB201EBC501C96831F00401C1605F
:10250000DFF8AC0164B250F824006DB200EBC500F6
:102510002821C1605FFA8AFA1AF0070050F008001B
:10252000DFF88C1164B251F8241008601FFA89F9A1
:10253000DFF87C0164B250F82400C0F80890002055
:10254000DFF86C1164B251F82410C864DFF8600140
:1025500064B250F824006DB200EBC5001FFA8BFB8B
:10256000C0F810B00020DFF8481164B251F8241010
:102570004860BDE8F18F2DE9F04104000D00160020
:102580005FF0000864B2002C11D064B2012C02D0BC
:1025900064B2022C02D16DB2022D08DB64B2032CAE
:1025A00005D04FF4F371DFF8FC0000F0F6F864B2E8
:1025B000002C05D0022C19D00DD3032C21D02BE0F8
:1025C00042F21170864205D34FF4F671DFF8D40061
:1025D00000F0E3F820E042F21170864205D34FF498
:1025E000F871DFF8C00000F0D8F815E042F2117081
:1025F000864205D34FF4FA71DFF8A80000F0CDF859
:102600000AE042F21170864205D340F2F911DFF878
:10261000940000F0C2F8FFE7DFF8900064B250F8D1
:102620002400804664B2002C05D0022C17D00CD3B5
:10263000032C1ED027E018F1010000FB06F042F247
:102640001071B0FBF1F007001DE018F1010000FB74
:1026500006F042F21071B0FBF1F0070013E018F140
:10266000010000FB06F042F21071B0FBF1F0070030
:1026700009E018F1010000FB06F042F21071B0FB16
:10268000F1F00700FFE7DFF8280064B250F82400FB
:102690006DB200EBC5000761BDE8F0813C800440ED
:1026A00030800440A4390000600EFF1F480EFF1F59
:1026B000180BFF1F10B42C4A13684FF4007402006B
:1026C000D2B2520994402343274A1360274AC0B22A
:1026D00003005B1152F82330012410F01F029440D4
:1026E000C3F8A040214AC0B203005B1152F8232076
:1026F000C0B210F01F0342F8231010BC704710B492
:10270000194A13684FF400740200D2B2520994407F
:102710002343154A1360154AC0B203005B1152F8F7
:102720002330012410F01F029440C3F8A04031F47C
:10273000E0610E4AC0B203005B1152F82320C0B220
:1027400010F01F0352F8232012F4E0621143074AED
:10275000C0B203005B1152F82320C0B210F01F0377
:1027600042F8231010BC704738800440980BFF1FBC
:10277000DFF800F0850CFF1FDFF800F0A90CFF1F49
:10278000BFF34F8F4748016811F4E06146480143A9
:1027900044480160BFF34F8FFEE738B504000D00D9
:1027A000002000F08FF82A002100404800F0C2F815
:1027B000002000F0A4F84FF47A7000F0EAF8F2E795
:1027C00038B504000D00210049B2032000F045FA9D
:1027D000200032BD10B50024042000F069FA042066
:1027E00000F09CFA002841D1002000F06BF8042092
:1027F00000F094FA012801D101200400002000F02B
:102800007EF82B4800F096F84FF4FA7000F0C1F80B
:10281000E4B2012CEBD1042000F080FA0028E6D1CC
:10282000042000F07BFA002806D1002000F067F8B1
:10283000642000F0AEF8F3E7042000F06FFA0128FE
:1028400006D1002000F05BF8322000F0A2F8F3E798
:10285000184800F06FF8FFF78BFF642000F099F83C
:102860000020FFF789FFFFF78BFFC0E710BD10B511
:1028700011480468012000F025F8012000F03FF81D
:102880000E48E4B20F2101FB04F100EB0102E4B2B7
:1028900021000B4800F04EF84FF47A7000F079F800
:1028A000EBE700000CED00E00400FA05DC3A000064
:1028B000A43B0000343B000004ED00E01004FF1FC7
:1028C000783A000010B5040064B2042C07DA012243
:1028D0000121174864B2005D00F038FA0EE00420D0
:1028E00004002000441E40B2002807D0012201212C
:1028F0000F4864B2005D00F029FAF2E710BD10B590
:10290000040064B2042C05DA094864B2005D00F0EA
:102910007CFA0CE0042004002000441E40B2002891
:1029200005D0034864B2005D00F06FFAF4E710BD13
:10293000CC0BFF1F0EB4C0B5024603A800210190C6
:10294000009101AB0121044878440C30FDF764FD8F
:1029500006BC5DF810FB00BF2B12000010B5040090
:10296000002C15D0B4F1807F03D329210F48FFF745
:1029700014FF00200E4908600E48046000200E4934
:10298000086005200A49086009480068C003FBD5B3
:1029900010BD10B504002000441E002804D00748D4
:1029A0000068FFF7DBFFF6E710BD00000439000008
:1029B00010E000E014E000E018E000E0580EFF1F17
:1029C0002DE9F84304000D0064B2002C08D0022C5D
:1029D0002CD018D3042C4FD03BD3052C5FD071E002
:1029E000DFF8B402006850F48060DFF8AC120860D1
:1029F0004FF440716620FFF75DFE4FF44071672091
:102A0000FFF758FE5EE0DFF89002006850F40060C7
:102A1000DFF8841208604FF440718120FFF74AFE0E
:102A20004FF440718020FFF745FE4BE0DFF868026D
:102A3000006850F48050DFF8601208604FF4407175
:102A40006320FFF737FE4FF440716220FFF732FE3C
:102A500038E0DFF84402006850F40050DFF8381224
:102A600008604FF440715020FFF724FE4FF440718E
:102A70005120FFF71FFE25E0DFF82002006850F428
:102A80008060DFF8181208604FF440714E20FFF7A5
:102A900011FE4FF440714F20FFF70CFE12E0DFF8FB
:102AA000FC01006850F40060DFF8F01108604FF49A
:102AB00040718920FFF7FEFD4FF440718820FFF739
:102AC000F9FDFFE7DFF8D80164B250F82400C078C0
:102AD00010F0F300DFF8C81164B251F82410C87088
:102AE000DFF8BC0164B250F824008078DFF8B01140
:102AF00064B251F82410887064B2002C02D064B221
:102B0000012C07D1DFF89C0101684FF47A70414332
:102B1000894606E0DFF8900101684FF47A7041437E
:102B200089462801B9FBF0F00600B6B2B6F5005FA1
:102B300002DB41F6FF700600B9FBF5F0B6B2B0EB70
:102B400006100700BFB2202F03DBDC215748FFF738
:102B500024FE534864B250F82400007810F0E000DE
:102B60008046C6F3042050EA08004D4964B251F88B
:102B7000241008704A4864B250F82400467048484F
:102B800064B250F82400807A10F0E000804617F01C
:102B90001F0050EA0800424964B251F824108872BC
:102BA0003F4864B250F82400007C50F088003C4953
:102BB00064B251F824100874394864B250F8240003
:102BC000C07850F00C00364964B251F82410C87037
:102BD000BDE8F1830200324852B250F82200807DF5
:102BE000002808D02E4852B250F8220090F9070071
:102BF0000870012002E000200870002070472DE9D5
:102C0000F04104000D0016005FF0000800200700EE
:102C100042F2107087421AD205EB0801200040B240
:102C2000FFF7D8FF002810D00020070015F9080092
:102C3000002801D140460EE018F10108B045EBD361
:102C4000002005F80800404605E07F1CE0E7002072
:102C500005F808004046BDE8F081114A40B252F83C
:102C6000202012791206F8D50D4A40B252F82020E1
:102C7000D171704738B504000D002878002809D0BC
:102C800095F90000010049B2200040B2FFF7E5FFCE
:102C90006D1CF2E731BD0000348004402880044000
:102CA000AC0BFF1F580EFF1F600EFF1F54390000B2
:102CB00010B5040064B2082C0DDA0022002122486D
:102CC00064B2005D00F042F803211F4864B2005D69
:102CD000FFF715FD14E0082004002000441E40B258
:102CE00000280DD000220021174864B2005D00F0DA
:102CF0002DF80321144864B2005DFFF700FDECE7F6
:102D000010BD10B50400104864B2005D00F09BF8DF
:102D1000002801D1002000E0012010BD10B5040002
:102D2000200040B2FFF7EDFF00280AD10A20FFF78C
:102D300030FE200040B2FFF7E4FF002801D1002060
:102D400000E0012010BD0000C40BFF1F70B506009D
:102D50000C0015004FF480713000C0B2FFF7AAFCE0
:102D600064B2002C13D14848F6B23100491150F832
:102D700021104548F6B23200521150F82200426943
:102D8000012316F01F0083409A434A613CE03E480D
:102D9000F6B23100491150F821103B48F6B232002A
:102DA000521150F822004269012316F01F0083409F
:102DB0001A434A61EDB2002D13D13348F6B2310007
:102DC000491150F821000168012216F01F008240CD
:102DD00091432D48F6B23200521150F822000160A2
:102DE00012E02948F6B23100491150F8210001687B
:102DF000012216F01F00824011432348F6B2320030
:102E0000521150F82200016070BD10B504001E4838
:102E1000E4B22100491150F82100406914F01F016B
:102E2000C840C00703D47B211848FFF7B6FC1648FA
:102E3000E4B22100491150F82110012214F01F00C2
:102E40008240CA6010BD10B504000F48E4B22100F2
:102E5000491150F82100406914F01F01C840C00713
:102E600003D58C210948FFF798FC0748E4B22100FC
:102E7000491150F82100006914F01F04E04010F0DF
:102E8000010010BD00000000280BFF1FB438000037
:102E9000DFF800F0F90DFF1FDFF8E01340B231F862
:102EA000201040B20128C0F28F8140B2162880F273
:102EB0008B810022DFF8C8331A7089B2652904DAE1
:102EC0000022DFF8BC335A708BE089B2C92904DADA
:102ED0000122DFF8AC335A7083E089B240F22D1240
:102EE000914204DA0222DFF898335A7079E089B20D
:102EF00040F29112914204DA0322DFF884335A70CF
:102F00006FE089B240F2F512914204DA0422DFF850
:102F100070335A7065E089B240F25922914204DA66
:102F20000522DFF85C335A705BE089B240F2BD22C3
:102F3000914204DA0622DFF848335A7051E089B230
:102F400040F22132914204DA0722DFF834335A701A
:102F500047E089B240F28532914204DA0822DFF874
:102F600020335A703DE089B240F2E932914204DAEE
:102F70000922DFF80C335A7033E089B240F24D4237
:102F8000914204DA0A22DFF8F8325A7029E089B255
:102F900040F2B142914204DA0B22DFF8E4325A7077
:102FA0001FE089B240F21552914204DA0C22DFF898
:102FB000D0325A7015E089B240F27952914204DA67
:102FC0000D22DFF8BC325A700BE089B240F2DD52BC
:102FD000914203DA0E22AA4B5A7002E00F22A84B4C
:102FE0005A7089B2332903DA0022A54B9A7078E02F
:102FF00089B2652903DA0122A14B9A7071E089B286
:10300000972903DA02229E4B9A706AE089B2C92995
:1030100003DA03229A4B9A7063E089B2FB2903DA40
:103020000422974B9A705CE089B240F22D129142D3
:1030300003DA0522924B9A7053E089B240F25F1294
:10304000914203DA06228E4B9A704AE089B240F22E
:103050009112914203DA0722894B9A7041E089B2BA
:1030600040F2C312914203DA0822854B9A7038E08D
:1030700089B240F2F512914203DA0922804B9A702C
:103080002FE089B240F22722914203DA0A227C4BD8
:103090009A7026E089B240F25922914203DA0B225B
:1030A000774B9A701DE089B240F28B22914203DA8D
:1030B0000C22734B9A7014E089B240F2BD22914207
:1030C00003DA0D226E4B9A700BE089B240F2EF22C8
:1030D000914203DA0E226A4B9A7002E00F22684B8B
:1030E0009A7089B21A2903DA0022654BDA706BE014
:1030F00089B2332903DA0122614BDA7064E089B2C4
:103100004C2903DA02225E4BDA705DE089B2652950
:1031100003DA03225A4BDA7056E089B27E2903DAC9
:103120000422574BDA704FE089B2972903DA05225F
:10313000534BDA7048E089B2B02903DA0622504BCB
:10314000DA7041E089B2C92903DA07224C4BDA7000
:103150003AE089B2E22903DA0822494BDA7033E017
:1031600089B2FB2903DA0922454BDA702CE089B2D7
:10317000B1F58A7F03DA0A22414BDA7024E089B282
:1031800040F22D12914203DA0B223D4BDA701BE024
:1031900089B2B1F5A37F03DA0C22394BDA7013E060
:1031A00089B240F25F12914203DA0D22344BDA7099
:1031B0000AE089B2B1F5BC7F03DA0E22304BDA7037
:1031C00002E00F222E4BDA70704710B50400200089
:1031D00040B2FFF761FE2B48007810F0FD0029494E
:1031E00008702848007850F0100026490870B82070
:1031F0002549087025480078C006FBD4234800788C
:10320000C0B2C0F381000228F8D11D48C3781C4821
:1032100082781B4841781A480078FFF739FE174832
:1032200064B200EB8400807810F007001849087041
:10323000124864B200EB8400C07810F01F0050F018
:10324000400014490870114800788006FBD50F48EB
:1032500000784006FBD50C48007810F03F000A4982
:1032600008700A480078C0B2C0F381000328F8D182
:10327000024864B230F82400C0B210BD3C0BFF1FFE
:10328000940BFF1F014006400040064006400640E8
:10329000044006400540064080B540F225636422A4
:1032A00001210320FFF78EF800234FF4FA52012189
:1032B0000020FFF787F800234FF4FA520221002084
:1032C000FFF780F800234FF4FA5203210020FFF7A4
:1032D00079F800234FF4FA5204210020FFF772F826
:1032E0004FF416510120FFF76BFB00F03EF87748D2
:1032F000028801210320FFF73EF975480078012874
:1033000014D1002206210020FFF735F90022022106
:103310000020FFF730F9002203210020FFF72BF9EE
:10332000002204210020FFF726F9DEE700234FF4F6
:10333000FA5206210020FFF745F840F2DC534FF423
:10334000FA5202210020FFF73DF800234FF4FA5211
:1033500003210020FFF736F840F2DC534FF4FA5215
:1033600004210020FFF72EF8BFE710B586B0002437
:10337000092203A90120FFF742FC0400002C00F001
:10338000A0809DF90C0030283ED1002004004F4859
:103390000088401C4D4908804C4800884FF47A71E1
:1033A00090FBF1F030308DF80000484800884FF471
:1033B0007A7190FBF1F201FB1200642190FBF1F0B5
:1033C00030308DF8010041480088642190FBF1F213
:1033D00001FB12000A2190FBF1F030308DF8020061
:1033E0003A4800880A2190FBF1F201FB120001210A
:1033F00090FBF1F030308DF803000A208DF80400C6
:1034000069460120FFF736FC9DF90C0031283ED1BA
:10341000002004002D480088401E2C4908802B48BD
:1034200000884FF47A7190FBF1F030308DF8000095
:10343000264800884FF47A7190FBF1F201FB1200EC
:10344000642190FBF1F030308DF801001F480088B6
:10345000642190FBF1F201FB12000A2190FBF1F0D4
:1034600030308DF80200194800880A2190FBF1F2F3
:1034700001FB1200012190FBF1F030308DF80300C8
:103480000A208DF8040069460120FFF7F3FB9DF93F
:103490000C00382808D10020040001200C490870D5
:1034A0000C490120FFF7E6FB9DF90C00392808D1F3
:1034B0000020040000200649087003A10120FFF746
:1034C000D9FB06B010BD00006F6E0A00500CFF1F44
:1034D000520CFF1FC43B0000DFF800F09B270000E8
:1034E000DFF800F093290000F02055490870544897
:1034F00000780006FBD55248007810F0710F01D01B
:10350000002000E00120704780B54E48006850F46C
:1035100000204C4908604A4800780006FBD5F0209E
:10352000474908700A20FFF7DBFF01BD10B582B0E4
:103530000400A4B24FF4805000FB04F00090092076
:10354000414908709DF80200404908709DF801004B
:103550003F4908709DF800003E490870FFF7C4FF1E
:10356000002801D100200EE0A4B2002C0AD15FF0A7
:10357000FF327FF001034FF48161200080B200F040
:1035800003F800E0012016BDF0B583B006000F007F
:1035900014001D00B6B24FF48050BFB200FB06709D
:1035A0000190BFB2082097FBF0F100FB11700028DA
:1035B00003D0EA212848FFF78FFFBFB241F2010094
:1035C000874203DBEC212448FFF786FF9DF80600C5
:1035D0001E4908709DF805001D4908709DF80400FB
:1035E0001C49087000949DF803001C4908709DF860
:1035F00002001B4908709DF801001A4908709DF8E7
:1036000000001949087007200F49087000959DF8BF
:103610000300164908709DF80200154908709DF8CE
:103620000100144908709DF8000013490870FFF765
:103630005BFF002801D1002000E00120FEBD00005A
:103640000000024004F00140070002400600024072
:103650000500024004000240643800000B000240F4
:103660000A00024009000240080002400F00024028
:103670000E0002400D0002400C000240F0B4114E5A
:10368000366834000F4E366856F47F060D4F3E60A4
:103690000E0616F0706656EA0076170517F47007E6
:1036A0003E431F0417F470273E43074F3E60002639
:1036B0003500EDB29D4201D26D1CFAE7014E346037
:1036C000F0BC704700F001404480044080B500F039
:1036D00093F800F02AF800F00AF8FFF77BF80122CF
:1036E00001210420FFF732FBFFF7D6FDFEE780B58E
:1036F0000C20FFF76AFD32490860314801684FF439
:103700007A7041432F4801602E4800682E490968AD
:10371000C1F30361491CB0FBF1F02C4908605FF470
:10372000E1310320FFF74CF901BD2DE9F8432848AA
:10373000284988420DD000208146B9F5826F08D211
:10374000244850F82900224941F8290019F10109BB
:10375000F3E71F4800F070F81F4804001F480500F9
:103760001F480600701B81464846B0F10109002839
:1037700004D0287820706D1C641CF5E719480700F8
:1037800019488046B8EB070081464846B0F1010968
:10379000002803D0002038707F1CF6E71349144A34
:1037A000144B981A81464846B0F10109002804D00C
:1037B00010780870521C491CF5E7BDE8F183000041
:1037C0005C0EFF1F580EFF1F44800440600EFF1F59
:1037D0000000FF1F000000001004FF1FD4190000AC
:1037E00018220000480EFF1FB80EFF1F540CFF1FC9
:1037F000D8340000CC36000080B500F008F80C4842
:1038000001884FF6FE7001400948018001BDEFF3C9
:10381000118072B64CF22051064A11804DF62811E3
:10382000044A1180C0B2002800D162B6704700007F
:10383000002005400E20054010B504004FF4007034
:1038400094FBF0F100FB1140002803D01E21034837
:10385000FEF7A3FF0248046010BD0000F03900002D
:1038600008ED00E0463A5C30315F5FE9A39EE680F8
:103870009DE58DA1E5B094E699BAE883BDE8BDA6C3
:103880005C30305F5FE8B59BE58CBAE8B59B5CE8DF
:1038900088B5E69CBAE6B58BE8AF955C436869707D
:1038A0005C7372635C4D4B36305F666C6173682E7F
:1038B00063000000463A5C30315F5FE9A39EE6801A
:1038C0009DE58DA1E5B094E699BAE883BDE8BDA673
:1038D0005C30305F5FE8B59BE58CBAE8B59B5CE88F
:1038E00088B5E69CBAE6B58BE8AF955C436869702D
:1038F0005C7372635C4D4B36305F6770696F2E632B
:1039000000000000463A5C30315F5FE9A39EE6802C
:103910009DE58DA1E5B094E699BAE883BDE8BDA622
:103920005C30305F5FE8B59BE58CBAE8B59B5CE83E
:1039300088B5E69CBAE6B58BE8AF955C43686970DC
:103940005C7372635C4D4B36305F537973546963BB
:103950006B2E6300463A5C30315F5FE9A39EE680E0
:103960009DE58DA1E5B094E699BAE883BDE8BDA6D2
:103970005C30305F5FE8B59BE58CBAE8B59B5CE8EE
:1039800088B5E69CBAE6B58BE8AF955C436869708C
:103990005C7372635C4D4B36305F756172742E637D
:1039A00000000000463A5C30315F5FE9A39EE6808C
:1039B0009DE58DA1E5B094E699BAE883BDE8BDA682
:1039C0005C30305F5FE8B59BE58CBAE8B59B5CE89E
:1039D00088B5E69CBAE6B58BE8AF955C436869703C
:1039E0005C7372635C4D4B36305F66746D2E6300A2
:1039F000463A5C30315F5FE9A39EE6809DE58DA18C
:103A0000E5B094E699BAE883BDE8BDA65C30305FC6
:103A10005FE8B59BE58CBAE8B59B5CE888B5E69CA9
:103A2000BAE6B58BE8AF955C436869705C73726306
:103A30005C6D6973632E630019E050F8042BD307A3
:103A400044BFA9F101039A18091F0023042942F871
:103A5000043BF9D25FEA817C134604D54FF0000C99
:103A6000A2F800C09B1CC90744BF0021197050F880
:103A7000041B0029E1D170470A2A2A2A2A646566B4
:103A800061756C745F69737220656E7465726564CC
:103A9000206F6E20766563746F722025642A2A2A4F
:103AA0002A2A0A0A257320496E7465727275707429
:103AB0000000000010B5074979441831064C7C44D9
:103AC000163404E00A68081D114488470146A142E3
:103AD000F8D110BD500000005C0000004173736518
:103AE0007274696F6E206661696C656420696E200E
:103AF0002573206174206C696E652025640A0000BE
:103B00004EF68851CEF20001086840F4700008605B
:103B1000BFF34F8FBFF36F8F4FF00070E1EE100ACD
:103B20007047000015FFFFFF70000000480EFF1FE8
:103B3000000000000ABDF8D0D0BDE2CBF8B2D9D762
:103B4000F7A3ACC7EBD6D8D0C2CBA2C8EBB9CCBCDC
:103B5000FE00000000F00BF8002801D0FFF7AAFFDC
:103B60000020AFF30080FFF797FB00F002F8012080
:103B7000704700F001B8000007463846FDF724FF03
:103B8000FBE738B504460D46284600F005F8A84284
:103B900018BF0024204632BD0149FEF711BE00BF08
:103BA000080CFF1F0ABDF8C8EBCBC0D1ADBBB7B541
:103BB000C8B4FDA3A1000000AFF30080FFF7A0FF91
:103BC000FFF7C8FF6F66660A0000000000002E00C5
:0400000500003BB903
:00000001FF
